{
  "contractName": "Database",
  "abi": [
    {
      "constant": false,
      "inputs": [
        {
          "name": "self",
          "type": "Database.DB storage"
        },
        {
          "name": "_name",
          "type": "bytes32"
        }
      ],
      "name": "createTable",
      "outputs": [],
      "payable": false,
      "stateMutability": "nonpayable",
      "type": "function"
    },
    {
      "constant": false,
      "inputs": [
        {
          "name": "self",
          "type": "Database.DB storage"
        },
        {
          "name": "_tableName",
          "type": "bytes32"
        }
      ],
      "name": "createRow",
      "outputs": [],
      "payable": false,
      "stateMutability": "nonpayable",
      "type": "function"
    },
    {
      "constant": false,
      "inputs": [
        {
          "name": "self",
          "type": "Database.DB storage"
        },
        {
          "name": "_tableName",
          "type": "bytes32"
        },
        {
          "name": "_row",
          "type": "uint256"
        }
      ],
      "name": "deleteRow",
      "outputs": [],
      "payable": false,
      "stateMutability": "nonpayable",
      "type": "function"
    },
    {
      "constant": false,
      "inputs": [
        {
          "name": "self",
          "type": "Database.DB storage"
        },
        {
          "name": "_tableName",
          "type": "bytes32"
        },
        {
          "name": "_columnName",
          "type": "bytes32"
        },
        {
          "name": "_default",
          "type": "bytes"
        }
      ],
      "name": "createColumn",
      "outputs": [],
      "payable": false,
      "stateMutability": "nonpayable",
      "type": "function"
    },
    {
      "constant": false,
      "inputs": [
        {
          "name": "self",
          "type": "Database.DB storage"
        },
        {
          "name": "_tableName",
          "type": "bytes32"
        },
        {
          "name": "_columnName",
          "type": "bytes32"
        }
      ],
      "name": "deleteColumn",
      "outputs": [],
      "payable": false,
      "stateMutability": "nonpayable",
      "type": "function"
    },
    {
      "constant": false,
      "inputs": [
        {
          "name": "self",
          "type": "Database.DB storage"
        },
        {
          "name": "_tableName",
          "type": "bytes32"
        },
        {
          "name": "_row",
          "type": "uint256"
        },
        {
          "name": "_columnName",
          "type": "bytes32"
        },
        {
          "name": "_data",
          "type": "bytes"
        }
      ],
      "name": "write",
      "outputs": [],
      "payable": false,
      "stateMutability": "nonpayable",
      "type": "function"
    },
    {
      "constant": false,
      "inputs": [
        {
          "name": "self",
          "type": "Database.DB storage"
        },
        {
          "name": "_tableName",
          "type": "bytes32"
        },
        {
          "name": "_row",
          "type": "uint256"
        },
        {
          "name": "_columnName",
          "type": "bytes32"
        }
      ],
      "name": "deleteCell",
      "outputs": [],
      "payable": false,
      "stateMutability": "nonpayable",
      "type": "function"
    },
    {
      "constant": true,
      "inputs": [
        {
          "name": "self",
          "type": "Database.DB storage"
        },
        {
          "name": "_tableName",
          "type": "bytes32"
        },
        {
          "name": "_row",
          "type": "uint256"
        },
        {
          "name": "_columnName",
          "type": "bytes32"
        }
      ],
      "name": "read",
      "outputs": [
        {
          "name": "",
          "type": "bool"
        },
        {
          "name": "",
          "type": "bytes"
        }
      ],
      "payable": false,
      "stateMutability": "view",
      "type": "function"
    },
    {
      "constant": true,
      "inputs": [
        {
          "name": "self",
          "type": "Database.DB storage"
        },
        {
          "name": "_tableName",
          "type": "bytes32"
        },
        {
          "name": "_columnName",
          "type": "bytes32"
        },
        {
          "name": "_data",
          "type": "bytes"
        }
      ],
      "name": "query",
      "outputs": [
        {
          "name": "",
          "type": "uint256[]"
        }
      ],
      "payable": false,
      "stateMutability": "view",
      "type": "function"
    },
    {
      "constant": true,
      "inputs": [
        {
          "name": "self",
          "type": "Database.DB storage"
        },
        {
          "name": "_tableName",
          "type": "bytes32"
        }
      ],
      "name": "tableSize",
      "outputs": [
        {
          "name": "",
          "type": "uint256"
        }
      ],
      "payable": false,
      "stateMutability": "view",
      "type": "function"
    },
    {
      "constant": true,
      "inputs": [
        {
          "name": "self",
          "type": "Database.DB storage"
        },
        {
          "name": "_tableName",
          "type": "bytes32"
        }
      ],
      "name": "tableWidth",
      "outputs": [
        {
          "name": "",
          "type": "uint256"
        }
      ],
      "payable": false,
      "stateMutability": "view",
      "type": "function"
    },
    {
      "constant": true,
      "inputs": [
        {
          "name": "self",
          "type": "Database.DB storage"
        },
        {
          "name": "_tableName",
          "type": "bytes32"
        },
        {
          "name": "_row",
          "type": "uint256"
        }
      ],
      "name": "hasRow",
      "outputs": [
        {
          "name": "",
          "type": "bool"
        }
      ],
      "payable": false,
      "stateMutability": "view",
      "type": "function"
    },
    {
      "constant": true,
      "inputs": [
        {
          "name": "self",
          "type": "Database.DB storage"
        },
        {
          "name": "_tableName",
          "type": "bytes32"
        },
        {
          "name": "_columnName",
          "type": "bytes32"
        }
      ],
      "name": "hasColumn",
      "outputs": [
        {
          "name": "",
          "type": "bool"
        },
        {
          "name": "",
          "type": "uint256"
        }
      ],
      "payable": false,
      "stateMutability": "view",
      "type": "function"
    }
  ],
  "bytecode": "0x611589610030600b82828239805160001a6073146000811461002057610022565bfe5b5030600052607381538281f30073000000000000000000000000000000000000000030146080604052600436106100dc576000357c0100000000000000000000000000000000000000000000000000000000900463ffffffff16806309caad3e146100e15780630c7c0246146101ab578063139cefc914610282578063343e2691146102bd57806341b9efdf146102ff5780634a6578ec1461034857806376097c2614610398578063766a6564146103eb5780637e11925e1461043057806388b661a61461046b5780638f51e836146104fa578063d725eabe1461053c578063df3622af14610597575b600080fd5b610125600480360381019080803590602001909291908035600019169060200190929190803590602001909291908035600019169060200190929190505050610630565b604051808315151515815260200180602001828103825283818151815260200191508051906020019080838360005b8381101561016f578082015181840152602081019050610154565b50505050905090810190601f16801561019c5780820380516001836020036101000a031916815260200191505b50935050505060405180910390f35b61022b6004803603810190808035906020019092919080356000191690602001909291908035600019169060200190929190803590602001908201803590602001908080601f0160208091040260200160405190810160405280939291908181526020018383808284378201915050505050509192919290505050610780565b6040518080602001828103825283818151815260200191508051906020019060200280838360005b8381101561026e578082015181840152602081019050610253565b505050509050019250505060405180910390f35b81801561028e57600080fd5b506102bb60048036038101908080359060200190929190803560001916906020019092919050505061096b565b005b6102e9600480360381019080803590602001909291908035600019169060200190929190505050610a40565b6040518082815260200191505060405180910390f35b81801561030b57600080fd5b506103466004803603810190808035906020019092919080356000191690602001909291908035600019169060200190929190505050610a70565b005b61037e60048036038101908080359060200190929190803560001916906020019092919080359060200190929190505050610b11565b604051808215151515815260200191505060405180910390f35b8180156103a457600080fd5b506103e9600480360381019080803590602001909291908035600019169060200190929190803590602001909291908035600019169060200190929190505050610b84565b005b8180156103f757600080fd5b5061042e60048036038101908080359060200190929190803560001916906020019092919080359060200190929190505050610c47565b005b81801561043c57600080fd5b50610469600480360381019080803590602001909291908035600019169060200190929190505050610cda565b005b81801561047757600080fd5b506104f86004803603810190808035906020019092919080356000191690602001909291908035600019169060200190929190803590602001908201803590602001908080601f0160208091040260200160405190810160405280939291908181526020018383808284378201915050505050509192919290505050610d80565b005b610526600480360381019080803590602001909291908035600019169060200190929190505050610e7b565b6040518082815260200191505060405180910390f35b6105766004803603810190808035906020019092919080356000191690602001909291908035600019169060200190929190505050610eab565b60405180831515151581526020018281526020019250505060405180910390f35b8180156105a357600080fd5b5061062e600480360381019080803590602001909291908035600019169060200190929190803590602001909291908035600019169060200190929190803590602001908201803590602001908080601f0160208091040260200160405190810160405280939291908181526020018383808284378201915050505050509192919290505050610fb3565b005b6000606060008060008060006106478b8b8b610b11565b151561065257600080fd5b61065d8b8b8a610eab565b809550819650505084151561067157600080fd5b8a60000160008b6000191660001916815260200190815260200160002092508260070160008a8152602001908152602001600020600085815260200190815260200160002091508160060160009054906101000a900460ff161590508082600201808054600181600116156101000203166002900480601f0160208091040260200160405190810160405280929190818152602001828054600181600116156101000203166002900480156107675780601f1061073c57610100808354040283529160200191610767565b820191906000526020600020905b81548152906001019060200180831161074a57829003601f168201915b5050505050905096509650505050505094509492505050565b60606000806000806000806000806107998d8d8d610eab565b80985081995050508715156107ad57600080fd5b8c60000160008d6000191660001916815260200190815260200160002095508a8a60405180836000191660001916815260200182805190602001908083835b60208310151561081157805182526020820191506020810190506020830392506107ec565b6001836020036101000a038019825116818451168082178552505050505050905001925050506040518091039020945085600a01600086600019166000191681526020019081526020016000209350600091505b838054905082101561090957856005016000858481548110151561088557fe5b9060005260206000200154815260200190815260200160002090508060010160009054906101000a900460ff1615156108fc578284838154811015156108c757fe5b906000526020600020015490806001815401808255809150509060018203906000526020600020016000909192909190915055505b8180600101925050610865565b8280548060200260200160405190810160405280929190818152602001828054801561095457602002820191906000526020600020905b815481526020019060010190808311610940575b505050505098505050505050505050949350505050565b60006109756113bb565b836000016000846000191660001916815260200190815260200160002091508160030154816000018181525050600081602001901515908115158152505080826005016000846003015481526020019081526020016000206000820151816000015560208201518160010160006101000a81548160ff021916908315150217905550905050610a126001836001015461138490919063ffffffff16565b8260010181905550610a326001836003015461138490919063ffffffff16565b826003018190555050505050565b60008083600001600084600019166000191681526020019081526020016000209050806002015491505092915050565b600080600080610a81878787610eab565b8094508195505050831515610a9557600080fd5b86600001600087600019166000191681526020019081526020016000209150816006016000848152602001908152602001600020905060018160020160006101000a81548160ff021916908315150217905550610b00600183600201546113a290919063ffffffff16565b826002018190555050505050505050565b60008060008060008760000160008860001916600019168152602001908152602001600020935083600501600087815260200190815260200160002092508584600301541191508260010160009054906101000a900460ff16159050818015610b775750805b9450505050509392505050565b6000806000806000610b97898989610b11565b1515610ba257600080fd5b610bad898988610eab565b8095508196505050841515610bc157600080fd5b8860000160008960001916600019168152602001908152602001600020925082600501600088815260200190815260200160002091508260070160008881526020019081526020016000206000858152602001908152602001600020905060018160060160006101000a81548160ff021916908315150217905550505050505050505050565b600080610c55858585610b11565b1515610c6057600080fd5b84600001600085600019166000191681526020019081526020016000209150816005016000848152602001908152602001600020905060018160010160006101000a81548160ff021916908315150217905550610ccb600183600101546113a290919063ffffffff16565b82600101819055505050505050565b610ce26113d7565b818160000190600019169081600019168152505060008160200181815250506000816040018181525050600081606001818152505060008160800181815250508083600001600084600019166000191681526020019081526020016000206000820151816000019060001916905560208201518160010155604082015181600201556060820151816003015560808201518160040155905050505050565b6000610d8a61140a565b856000016000866000191660001916815260200190815260200160002091508160040154816000018181525050838160200190600019169081600019168152505060008160400190151590811515815250508082600601600084600401548152602001908152602001600020600082015181600001556020820151816001019060001916905560408201518160020160006101000a81548160ff021916908315150217905550905050610e4b6001836002015461138490919063ffffffff16565b8260020181905550610e6b6001836004015461138490919063ffffffff16565b8260040181905550505050505050565b60008083600001600084600019166000191681526020019081526020016000209050806001015491505092915050565b60008060008060008060008060008b60000160008c6000191660001916815260200190815260200160002096508660080160008b6000191660001916815260200190815260200160002054955086600601600087815260200190815260200160002094508587600401541193508460020160009054906101000a900460ff161592508960405180826000191660001916815260200191505060405180910390206000191687600901600088815260200190815260200160002054604051808260001916600019168152602001915050604051809103902060001916149150838015610f935750825b8015610f9c5750815b905080869850985050505050505050935093915050565b600080600080600080600080610fca8d8d8d610b11565b1515610fd557600080fd5b610fe08d8d8c610eab565b8098508199505050871515610ff457600080fd5b8c60000160008d6000191660001916815260200190815260200160002095508560050160008c815260200190815260200160002094508560060160008881526020019081526020016000209350898960405180836000191660001916815260200182805190602001908083835b6020831015156110865780518252602082019150602081019050602083039250611061565b6001836020036101000a03801982511681845116808217855250505050505090500192505050604051809103902092508560070160008c81526020019081526020016000206000888152602001908152602001600020915085600a01600083600401546000191660001916815260200190815260200160002090506000600102826003015460001916141515611149578a81836005015481548110151561112957fe5b906000526020600020018190555081600501548260050181905550611182565b80805490508260050181905550808b90806001815401808255809150509060018203906000526020600020016000909192909190915055505b8a8260000181905550868260010181905550888260020190805190602001906111ac929190611431565b50886040518082805190602001908083835b6020831015156111e357805182526020820191506020810190506020830392506111be565b6001836020036101000a0380198251168184511680821785525050505050509050019150506040518091039020826003018160001916905550898960405180836000191660001916815260200182805190602001908083835b602083101515611261578051825260208201915060208101905060208303925061123c565b6001836020036101000a03801982511681845116808217855250505050505090500192505050604051809103902082600401816000191690555060008260060160006101000a81548160ff021916908315150217905550818660070160008d8152602001908152602001600020600089815260200190815260200160002060008201548160000155600182015481600101556002820181600201908054600181600116156101000203166002900461131a9291906114b1565b506003820154816003019060001916905560048201548160040190600019169055600582015481600501556006820160009054906101000a900460ff168160060160006101000a81548160ff02191690831515021790555090505050505050505050505050505050565b600080828401905083811015151561139857fe5b8091505092915050565b60008282111515156113b057fe5b818303905092915050565b6040805190810160405280600081526020016000151581525090565b60a06040519081016040528060008019168152602001600081526020016000815260200160008152602001600081525090565b60606040519081016040528060008152602001600080191681526020016000151581525090565b828054600181600116156101000203166002900490600052602060002090601f016020900481019282601f1061147257805160ff19168380011785556114a0565b828001600101855582156114a0579182015b8281111561149f578251825591602001919060010190611484565b5b5090506114ad9190611538565b5090565b828054600181600116156101000203166002900490600052602060002090601f016020900481019282601f106114ea5780548555611527565b8280016001018555821561152757600052602060002091601f016020900482015b8281111561152657825482559160010191906001019061150b565b5b5090506115349190611538565b5090565b61155a91905b8082111561155657600081600090555060010161153e565b5090565b905600a165627a7a72305820d54673eb5f97c6e9c2afa2369ff3dad8d19272b6436aa000073c93474a712b7f0029",
  "source": "pragma solidity ^0.4.24;\n\nimport \"../../libs/SafeMath.sol\";\n\nlibrary Database {\n\n  using SafeMath for uint;\n\n  /* Database. */\n  struct DB {\n\n    /* Holds table instances. */\n    mapping(bytes32 => Table) tables;\n  }\n\n  /* Represents a table. */\n\tstruct Table {\n\n    /* Name of table. */\n\t\tbytes32 name;\n\n    /* Number of rows in table. */\n    uint size;\n\n    /* Number of columns in table. */\n    uint width;\n\n    /* Index of next added row. */\n    uint nextRow;\n\n    /* Index of next added column. */\n    uint nextColumn;\n\n    /* Stores row descriptord. */\n    mapping(uint => Row) rows;\n\n    /* Stores matrix of cells. */\n    mapping(uint => Column) columns;\n\n    /* Stores matrix of cells. */\n    mapping(uint => mapping(uint => Cell)) cells;\n\n    /* Maps column names to column indices. */\n    mapping(bytes32 => uint) columnIndices;\n\n    /* Maps column indices to column names. */\n    mapping(uint => bytes32) columnNames;\n\n    /* Hash of column name and bytes, for faster access. \n       Used when querying rows with specific column values. \n       Keys are created with keccak256(column name, bytes). */\n    mapping(bytes32 => uint[]) cache;\n\t}\n\n  /* Represents a database row. */\n  struct Row {\n    uint index;\n    bool deleted;\n  }\n\n  /* Represents a database column. */\n  struct Column {\n    uint index;\n    bytes32 name;\n    bool deleted;\n  }\n\n  /* Represents a database cell. */\n  struct Cell {\n\n    /* Coordinates. */\n    uint row;\n    uint column;\n\n    /* Actual stored data. */\n    bytes data;\n\n    /* Metadata. */\n    bytes32 dataHash; // Hash of data.\n    bytes32 columnHash; // Hash of columnName and data.\n    uint cacheIndex; // Index of row within table.cache.\n    bool deleted;\n  }\n\n  /* \n   * Create a table within a database.\n   * \n   * @param _name Name of table\n   */\n  function createTable(DB storage self, bytes32 _name) public {\n\n    /* Create table. */\n    Table memory table;\n    table.name = _name;\n    table.size = 0;\n    table.width = 0;\n    table.nextRow = 0;\n    table.nextColumn = 0;\n\n    /* Store table. */\n    self.tables[_name] = table;\n  }\n\n  /* \n   * Adds a row to a table.\n   * \n   * @param _tableName Name of table\n   */\n  function createRow(DB storage self, bytes32 _tableName) public {\n    // Increment table size.\n    Table storage table = self.tables[_tableName];\n\n    // Create Row instance.\n    Row memory row;\n    row.index = table.nextRow;\n    row.deleted = false;\n\n    // Store newly created Row instance to storage.\n    table.rows[table.nextRow] = row;\n\n    // Set table metadata.\n    table.size = table.size.add(1);\n    table.nextRow = table.nextRow.add(1);\n  }\n\n  /* \n   * Delete a row from the table.\n   * \n   * @param _tableName Name of table\n   * @param _row Index of row to delete\n   */\n  function deleteRow(DB storage self, bytes32 _tableName, uint _row) public {\n\n    require(hasRow(self, _tableName, _row));\n\n    // Load corresponding table.\n    Table storage table = self.tables[_tableName];\n\n    // Load corresponding row.\n    Row storage row = table.rows[_row];\n\n    row.deleted = true;\n\n    // Decrement table size.\n    table.size = table.size.sub(1);\n  }\n\n  /* \n   * Create a column within a table.\n   * \n   * @param _tableName Name of table\n   * @param _columnName Name of column to delete\n   * @param _default Default value, in bytes\n   */\n  function createColumn(DB storage self, \n    bytes32 _tableName, bytes32 _columnName, bytes _default) public {\n\n    // Increment table width.\n    Table storage table = self.tables[_tableName];\n\n    // Create Column instance.\n    Column memory column;\n    column.index = table.nextColumn;\n    column.name = _columnName;\n    column.deleted = false;\n\n    // Store newly created Row instance to storage.\n    table.columns[table.nextColumn] = column;\n\n    // Set table metadata.\n    table.width = table.width.add(1);\n    table.nextColumn = table.nextColumn.add(1);\n  }\n\n  /* \n   * Delete a column within a table.\n   * \n   * @param _tableName Name of table\n   * @param _columnName Name of column to delete\n   */\n  function deleteColumn(DB storage self, \n    bytes32 _tableName, bytes32 _columnName) public {\n\n    bool hasCol;\n    uint columnIndex;\n    (hasCol, columnIndex) = hasColumn(self, _tableName, _columnName);\n    require(hasCol);\n\n    // Load corresponding table.\n    Table storage table = self.tables[_tableName];\n\n    // Load corresponding column.\n    Column storage column = table.columns[columnIndex];\n\n    column.deleted = true;\n\n    // Decrement table width.\n    table.width = table.width.sub(1);\n  }\n\n  /* \n   * Write data to a cell within a table.\n   * \n   * @param _tableName Name of table\n   * @param _row Row index to write to\n   * @param _columnName Column name to write to\n   * @param _bytes Data to put in\n   */\n  function write(DB storage self, bytes32 _tableName, \n    uint _row, bytes32 _columnName, bytes _data) public {\n\n    require(hasRow(self, _tableName, _row));\n\n    bool hasCol;\n    uint columnIndex;\n    (hasCol, columnIndex) = hasColumn(self, _tableName, _columnName);\n    require(hasCol);\n\n    // Load corresponding table.\n    Table storage table = self.tables[_tableName];\n\n    // Load corresponding row.\n    Row storage row = table.rows[_row];\n\n    // Load corresponding column.\n    Column storage column = table.columns[columnIndex];\n\n    // Calculate data hash that will be used as cache when fetching.\n    bytes32 hash = keccak256(_columnName, _data);\n\n    // Fetch cell in coordinate.\n    Cell storage cell = table.cells[_row][columnIndex];\n\n    // Fetch array of rows that contan same data in same column.\n    uint[] storage rows = table.cache[cell.columnHash];\n\n    // If existing data is not empty, remove its hash from cache(table.cache).\n    if (cell.dataHash != 0x0) {\n      rows[cell.cacheIndex] = _row;\n      cell.cacheIndex = cell.cacheIndex;\n    } else {\n      // If data did not exist, append current row to existing rows.\n      cell.cacheIndex = rows.length;\n      rows.push(_row);\n    }\n\n    // Write to cell.\n    cell.row = _row;\n    cell.column = columnIndex;\n    cell.data = _data;\n    cell.dataHash = keccak256(_data);\n    cell.columnHash = keccak256(_columnName, _data);\n    cell.deleted = false;\n\n    // Insert cell to table.\n    table.cells[_row][columnIndex] = cell;\n  }\n\n  /* \n   * Delete cell from table.\n   * \n   * @param _tableName Name of table\n   * @param _row Row index to read from\n   * @param _columnName Column name to read from\n   * @param _bytes Extracted data\n   */\n  function deleteCell(DB storage self, bytes32 _tableName, \n    uint _row, bytes32 _columnName) public {\n\n    require(hasRow(self, _tableName, _row));\n\n    bool hasCol;\n    uint columnIndex;\n    (hasCol, columnIndex) = hasColumn(self, _tableName, _columnName);\n    require(hasCol);\n\n    // Load corresponding table.\n    Table storage table = self.tables[_tableName];\n    \n    // Load corresponding row.\n    Row storage row = table.rows[_row];\n\n    // Fetch cell in coordinate.\n    Cell storage cell = table.cells[_row][columnIndex];\n\n    // Remove cell contents.\n    // cell.row = 0;\n    // cell.column = 0;\n    // cell.data = \"\";\n    // cell.dataHash = 0x0;\n    // cell.columnHash = 0x0;\n    // cell.cacheIndex = 0;\n    cell.deleted = true;\n  }\n\n  /* \n   * Read data in a cell within a table.\n   * \n   * @param _tableName Name of table\n   * @param _row Row index to read from\n   * @param _columnName Column name to read from\n   * @returns Whether data is not deleted\n   * @returns Extracted data\n   */\n  function read(DB storage self, bytes32 _tableName, uint _row, bytes32 _columnName) \n    public view returns (bool, bytes) {\n\n    require(hasRow(self, _tableName, _row));\n\n    bool hasCol;\n    uint columnIndex;\n    (hasCol, columnIndex) = hasColumn(self, _tableName, _columnName);\n    require(hasCol);\n\n    // Load corresponding table.\n    Table storage table = self.tables[_tableName];\n\n    // Load corresponding cell.\n    Cell storage cell = table.cells[_row][columnIndex];\n\n    // Find out if cell is deleted. Row deletion was checked in hasRow. \n    bool intact = !cell.deleted;\n\n    // Return availability and data in (row, column).\n    return (intact, cell.data);\n  }\n\n  /* \n   * Query row ids that has a given byte as entry for a specific column.\n   * \n   * @param _tableName Name of table\n   * @param _columnName Column name to read from\n   * @param _data Data to match for\n   * @return _row Array containing row indices that match the query\n   */\n  function query(DB storage self, bytes32 _tableName, bytes32 _columnName, bytes _data) \n    public view returns (uint[]) {\n\n    bool hasCol;\n    uint columnIndex;\n    (hasCol, columnIndex) = hasColumn(self, _tableName, _columnName);\n    require(hasCol);\n\n    // Load corresponding table.\n    Table storage table = self.tables[_tableName];\n\n    // Calculate data hash that serves as the key to data cache.\n    bytes32 hash = keccak256(_columnName, _data);\n\n    // Fetch rows with same hash.\n    uint[] storage rows = table.cache[hash];\n\n    // Generate a new list and collect rows of non-deleted cells.\n    uint[] storage filteredRows;\n\n    for (uint i = 0; i < rows.length; i++) {\n      Row storage row = table.rows[rows[i]];\n      if (!row.deleted) {\n        filteredRows.push(rows[i]);\n      }\n    }\n\n    return filteredRows;\n  }\n\n/* \n   * Query db size.\n   * \n   * @param _tableName Name of table\n   * @returns Whether the row exists\n   */\n  function tableSize(DB storage self, \n    bytes32 _tableName) public view returns (uint) {\n\n    // Load corresponding table.\n    Table storage table = self.tables[_tableName];\n\n    return table.size;\n  }\n\n  /* \n   * Query db width.\n   * \n   * @param _tableName Name of table\n   * @returns Whether the row exists\n   */\n  function tableWidth(DB storage self, \n    bytes32 _tableName) public view returns (uint) {\n\n    // Load corresponding table.\n    Table storage table = self.tables[_tableName];\n\n    return table.width;\n  }\n\n  /* \n   * Query if a row of index exists.\n   * \n   * @param _tableName Name of table\n   * @param _row Row index to query\n   * @returns Whether the row exists\n   */\n  function hasRow(DB storage self, \n    bytes32 _tableName, uint _row) public view returns (bool) {\n\n    // Load corresponding table.\n    Table storage table = self.tables[_tableName];\n\n    // Load corresponding row.\n    Row storage row = table.rows[_row];\n\n    bool withinRange = table.nextRow > _row;\n    bool notDeleted = !row.deleted;\n\n    return withinRange && notDeleted;\n  }\n\n  /* \n   * Query if a column with name exists.\n   * \n   * @param _tableName Name of table\n   * @param _columnName Column name to query\n   * @returns Whether the column name exists\n   * @returns Column index, if found\n   */\n  function hasColumn(DB storage self, \n    bytes32 _tableName, bytes32 _columnName) public view returns (bool, uint) {\n\n    // Load corresponding table.\n    Table storage table = self.tables[_tableName];\n    \n    // Load column index.\n    uint columnIndex = table.columnIndices[_columnName];\n\n    // Load corresponding row.\n    Column storage column = table.columns[columnIndex];\n\n    bool withinRange = table.nextColumn > columnIndex;\n\n    bool notDeleted = !column.deleted;\n\n    /* Weed out false positives when checking if provided column name exists.\n       If the column name did not exist, columnIndex would be 0.\n       String comparison is better when done after hashing with keccak256. */\n    bool indexMatches = keccak256(table.columnNames[columnIndex]) \n                        == keccak256(_columnName); \n\n    bool hasCol = withinRange && notDeleted && indexMatches;\n\n    return (hasCol, columnIndex);\n  }\n\n}",
  "sourcePath": "/home/seongmin/okeydokey/contracts/core/storage/Database.sol",
  "compiler": {
    "name": "solc",
    "version": "0.4.24+commit.e67f0147.Emscripten.clang"
  },
  "schemaVersion": "2.0.0",
  "updatedAt": "2018-06-05T01:08:04.346Z"
}