{
  "contractName": "DatabaseTest",
  "abi": [
    {
      "constant": false,
      "inputs": [
        {
          "name": "_name",
          "type": "bytes32"
        }
      ],
      "name": "createTable",
      "outputs": [],
      "payable": false,
      "stateMutability": "nonpayable",
      "type": "function"
    },
    {
      "constant": false,
      "inputs": [
        {
          "name": "_tableName",
          "type": "bytes32"
        }
      ],
      "name": "createRow",
      "outputs": [],
      "payable": false,
      "stateMutability": "nonpayable",
      "type": "function"
    },
    {
      "constant": false,
      "inputs": [
        {
          "name": "_tableName",
          "type": "bytes32"
        },
        {
          "name": "_row",
          "type": "uint256"
        }
      ],
      "name": "deleteRow",
      "outputs": [],
      "payable": false,
      "stateMutability": "nonpayable",
      "type": "function"
    },
    {
      "constant": false,
      "inputs": [
        {
          "name": "_tableName",
          "type": "bytes32"
        },
        {
          "name": "_columnName",
          "type": "bytes32"
        },
        {
          "name": "_default",
          "type": "bytes"
        }
      ],
      "name": "createColumn",
      "outputs": [],
      "payable": false,
      "stateMutability": "nonpayable",
      "type": "function"
    },
    {
      "constant": false,
      "inputs": [
        {
          "name": "_tableName",
          "type": "bytes32"
        },
        {
          "name": "_columnName",
          "type": "bytes32"
        }
      ],
      "name": "deleteColumn",
      "outputs": [],
      "payable": false,
      "stateMutability": "nonpayable",
      "type": "function"
    },
    {
      "constant": false,
      "inputs": [
        {
          "name": "_tableName",
          "type": "bytes32"
        },
        {
          "name": "_row",
          "type": "uint256"
        },
        {
          "name": "_columnName",
          "type": "bytes32"
        },
        {
          "name": "_data",
          "type": "bytes"
        }
      ],
      "name": "write",
      "outputs": [],
      "payable": false,
      "stateMutability": "nonpayable",
      "type": "function"
    },
    {
      "constant": false,
      "inputs": [
        {
          "name": "_tableName",
          "type": "bytes32"
        },
        {
          "name": "_row",
          "type": "uint256"
        },
        {
          "name": "_columnName",
          "type": "bytes32"
        }
      ],
      "name": "deleteCell",
      "outputs": [],
      "payable": false,
      "stateMutability": "nonpayable",
      "type": "function"
    },
    {
      "constant": true,
      "inputs": [
        {
          "name": "_tableName",
          "type": "bytes32"
        },
        {
          "name": "_row",
          "type": "uint256"
        },
        {
          "name": "_columnName",
          "type": "bytes32"
        }
      ],
      "name": "read",
      "outputs": [
        {
          "name": "",
          "type": "bool"
        },
        {
          "name": "",
          "type": "bytes"
        }
      ],
      "payable": false,
      "stateMutability": "view",
      "type": "function"
    },
    {
      "constant": true,
      "inputs": [
        {
          "name": "_tableName",
          "type": "bytes32"
        },
        {
          "name": "_columnName",
          "type": "bytes32"
        },
        {
          "name": "_data",
          "type": "bytes"
        }
      ],
      "name": "query",
      "outputs": [
        {
          "name": "",
          "type": "uint256[]"
        }
      ],
      "payable": false,
      "stateMutability": "view",
      "type": "function"
    },
    {
      "constant": true,
      "inputs": [
        {
          "name": "_tableName",
          "type": "bytes32"
        },
        {
          "name": "_row",
          "type": "uint256"
        }
      ],
      "name": "hasRow",
      "outputs": [
        {
          "name": "",
          "type": "bool"
        }
      ],
      "payable": false,
      "stateMutability": "view",
      "type": "function"
    },
    {
      "constant": true,
      "inputs": [
        {
          "name": "_tableName",
          "type": "bytes32"
        },
        {
          "name": "_columnName",
          "type": "bytes32"
        }
      ],
      "name": "hasColumn",
      "outputs": [
        {
          "name": "",
          "type": "bool"
        },
        {
          "name": "",
          "type": "uint256"
        }
      ],
      "payable": false,
      "stateMutability": "view",
      "type": "function"
    }
  ],
  "bytecode": "0x608060405234801561001057600080fd5b50610f48806100206000396000f3006080604052600436106100af576000357c0100000000000000000000000000000000000000000000000000000000900463ffffffff1680630cc60aba146100b45780630ee90091146100ef5780631b5422d01461012e5780632865b6751461015f578063329710421461022c57806393be6a87146102bb578063977057bf14610319578063c5c2c0831461036c578063c911eb511461039d578063ce36d60a14610422578063d3767cf4146104fc575b600080fd5b3480156100c057600080fd5b506100ed600480360381019080803560001916906020019092919080359060200190929190505050610545565b005b3480156100fb57600080fd5b5061012c600480360381019080803560001916906020019092919080356000191690602001909291905050506105e5565b005b34801561013a57600080fd5b5061015d600480360381019080803560001916906020019092919050505061068d565b005b34801561016b57600080fd5b506101a66004803603810190808035600019169060200190929190803590602001909291908035600019169060200190929190505050610724565b604051808315151515815260200180602001828103825283818151815260200191508051906020019080838360005b838110156101f05780820151818401526020810190506101d5565b50505050905090810190601f16801561021d5780820380516001836020036101000a031916815260200191505b50935050505060405180910390f35b34801561023857600080fd5b506102b96004803603810190808035600019169060200190929190803590602001909291908035600019169060200190929190803590602001908201803590602001908080601f0160208091040260200160405190810160405280939291908181526020018383808284378201915050505050509192919290505050610863565b005b3480156102c757600080fd5b506102f860048036038101908080356000191690602001909291908035600019169060200190929190505050610982565b60405180831515151581526020018281526020019250505060405180910390f35b34801561032557600080fd5b50610352600480360381019080803560001916906020019092919080359060200190929190505050610a60565b604051808215151515815260200191505060405180910390f35b34801561037857600080fd5b5061039b6004803603810190808035600019169060200190929190505050610b29565b005b3480156103a957600080fd5b5061042060048036038101908080356000191690602001909291908035600019169060200190929190803590602001908201803590602001908080601f0160208091040260200160405190810160405280939291908181526020018383808284378201915050505050509192919290505050610bc0565b005b34801561042e57600080fd5b506104a560048036038101908080356000191690602001909291908035600019169060200190929190803590602001908201803590602001908080601f0160208091040260200160405190810160405280939291908181526020018383808284378201915050505050509192919290505050610cd6565b6040518080602001828103825283818151815260200191508051906020019060200280838360005b838110156104e85780820151818401526020810190506104cd565b505050509050019250505060405180910390f35b34801561050857600080fd5b506105436004803603810190808035600019169060200190929190803590602001909291908035600019169060200190929190505050610e6b565b005b73__Database______________________________63766a6564600084846040518463ffffffff167c0100000000000000000000000000000000000000000000000000000000028152600401808481526020018360001916600019168152602001828152602001935050505060006040518083038186803b1580156105c957600080fd5b505af41580156105dd573d6000803e3d6000fd5b505050505050565b73__Database______________________________6341b9efdf600084846040518463ffffffff167c01000000000000000000000000000000000000000000000000000000000281526004018084815260200183600019166000191681526020018260001916600019168152602001935050505060006040518083038186803b15801561067157600080fd5b505af4158015610685573d6000803e3d6000fd5b505050505050565b73__Database______________________________637e11925e6000836040518363ffffffff167c01000000000000000000000000000000000000000000000000000000000281526004018083815260200182600019166000191681526020019250505060006040518083038186803b15801561070957600080fd5b505af415801561071d573d6000803e3d6000fd5b5050505050565b6000606073__Database______________________________6309caad3e60008787876040518563ffffffff167c0100000000000000000000000000000000000000000000000000000000028152600401808581526020018460001916600019168152602001838152602001826000191660001916815260200194505050505060006040518083038186803b1580156107bc57600080fd5b505af41580156107d0573d6000803e3d6000fd5b505050506040513d6000823e3d601f19601f8201168201806040525060408110156107fa57600080fd5b8101908080519060200190929190805164010000000081111561081c57600080fd5b8281019050602081018481111561083257600080fd5b815185600182028301116401000000008211171561084f57600080fd5b505092919050505091509150935093915050565b73__Database______________________________63df3622af6000868686866040518663ffffffff167c0100000000000000000000000000000000000000000000000000000000028152600401808681526020018560001916600019168152602001848152602001836000191660001916815260200180602001828103825283818151815260200191508051906020019080838360005b838110156109165780820151818401526020810190506108fb565b50505050905090810190601f1680156109435780820380516001836020036101000a031916815260200191505b50965050505050505060006040518083038186803b15801561096457600080fd5b505af4158015610978573d6000803e3d6000fd5b5050505050505050565b60008073__Database______________________________63d725eabe600086866040518463ffffffff167c010000000000000000000000000000000000000000000000000000000002815260040180848152602001836000191660001916815260200182600019166000191681526020019350505050604080518083038186803b158015610a1057600080fd5b505af4158015610a24573d6000803e3d6000fd5b505050506040513d6040811015610a3a57600080fd5b810190808051906020019092919080519060200190929190505050915091509250929050565b600073__Database______________________________634a6578ec600085856040518463ffffffff167c0100000000000000000000000000000000000000000000000000000000028152600401808481526020018360001916600019168152602001828152602001935050505060206040518083038186803b158015610ae657600080fd5b505af4158015610afa573d6000803e3d6000fd5b505050506040513d6020811015610b1057600080fd5b8101908080519060200190929190505050905092915050565b73__Database______________________________63139cefc96000836040518363ffffffff167c01000000000000000000000000000000000000000000000000000000000281526004018083815260200182600019166000191681526020019250505060006040518083038186803b158015610ba557600080fd5b505af4158015610bb9573d6000803e3d6000fd5b5050505050565b73__Database______________________________6388b661a660008585856040518563ffffffff167c0100000000000000000000000000000000000000000000000000000000028152600401808581526020018460001916600019168152602001836000191660001916815260200180602001828103825283818151815260200191508051906020019080838360005b83811015610c6c578082015181840152602081019050610c51565b50505050905090810190601f168015610c995780820380516001836020036101000a031916815260200191505b509550505050505060006040518083038186803b158015610cb957600080fd5b505af4158015610ccd573d6000803e3d6000fd5b50505050505050565b606073__Database______________________________630c7c024660008686866040518563ffffffff167c0100000000000000000000000000000000000000000000000000000000028152600401808581526020018460001916600019168152602001836000191660001916815260200180602001828103825283818151815260200191508051906020019080838360005b83811015610d84578082015181840152602081019050610d69565b50505050905090810190601f168015610db15780820380516001836020036101000a031916815260200191505b509550505050505060006040518083038186803b158015610dd157600080fd5b505af4158015610de5573d6000803e3d6000fd5b505050506040513d6000823e3d601f19601f820116820180604052506020811015610e0f57600080fd5b810190808051640100000000811115610e2757600080fd5b82810190506020810184811115610e3d57600080fd5b8151856020820283011164010000000082111715610e5a57600080fd5b505092919050505090509392505050565b73__Database______________________________6376097c2660008585856040518563ffffffff167c0100000000000000000000000000000000000000000000000000000000028152600401808581526020018460001916600019168152602001838152602001826000191660001916815260200194505050505060006040518083038186803b158015610eff57600080fd5b505af4158015610f13573d6000803e3d6000fd5b505050505050505600a165627a7a72305820e6e5227943b7014631ba0bb5022273be15f7815c7db971662a6f9e6f2478ec990029",
  "source": "pragma solidity ^0.4.24;\n\nimport \"../core/storage/Database.sol\";\n\ncontract DatabaseTest {\n\n  using Database for Database.DB;\n\n  Database.DB db;\n\n  /* \n   * Create a table within a database.\n   * \n   * @param _name Name of table\n   */\n  function createTable(bytes32 _name) public {\n    Database.createTable(db, _name);\n  }\n\n  /* \n   * Adds a row to a table.\n   * \n   * @param _tableName Name of table\n   */\n  function createRow(bytes32 _tableName) public {\n    Database.createRow(db, _tableName);\n  }\n\n  /* \n   * Delete a row from the table.\n   * \n   * @param _tableName Name of table\n   * @param _row Index of row to delete\n   */\n  function deleteRow(bytes32 _tableName, uint _row) public {\n    Database.deleteRow(db, _tableName, _row);\n  }\n\n  /* \n   * Create a column within a table.\n   * \n   * @param _tableName Name of table\n   * @param _columnName Name of column to delete\n   * @param _default Default value, in bytes\n   */\n  function createColumn(bytes32 _tableName, \n    bytes32 _columnName, bytes _default) public {\n\n    Database.createColumn(db, _tableName, _columnName, _default);\n  }\n\n  /* \n   * Delete a column within a table.\n   * \n   * @param _tableName Name of table\n   * @param _columnName Name of column to delete\n   */\n  function deleteColumn(bytes32 _tableName, bytes32 _columnName) public {\n\n    Database.deleteColumn(db, _tableName, _columnName);\n  }\n\n  /* \n   * Write data to a cell within a table.\n   * \n   * @param _tableName Name of table\n   * @param _row Row index to write to\n   * @param _columnName Column name to write to\n   * @param _bytes Data to put in\n   */\n  function write(bytes32 _tableName, \n    uint _row, bytes32 _columnName, bytes _data) public {\n\n    Database.write(db, _tableName, _row, _columnName, _data);\n  }\n\n  /* \n   * Delete cell from table.\n   * \n   * @param _tableName Name of table\n   * @param _row Row index to read from\n   * @param _columnName Column name to read from\n   * @param _bytes Extracted data\n   */\n  function deleteCell(bytes32 _tableName, \n    uint _row, bytes32 _columnName) public {\n\n    Database.deleteCell(db, _tableName, _row, _columnName);\n  }\n\n  /* \n   * Read data in a cell within a table.\n   * \n   * @param _tableName Name of table\n   * @param _row Row index to read from\n   * @param _columnName Column name to read from\n   * @returns Whether data is not deleted\n   * @returns Extracted data\n   */\n  function read(bytes32 _tableName, uint _row, bytes32 _columnName) \n    public view returns (bool, bytes) {\n\n    return Database.read(db, _tableName, _row, _columnName);\n  }\n\n  /* \n   * Query row ids that has a given byte as entry for a specific column.\n   * \n   * @param _tableName Name of table\n   * @param _columnName Column name to read from\n   * @param _data Data to match for\n   * @return _row Array containing row indices that match the query\n   */\n  function query(bytes32 _tableName, bytes32 _columnName, bytes _data) \n    public view returns (uint[]) {\n\n    return Database.query(db, _tableName, _columnName, _data);\n  }\n\n  /* \n   * Query if a row of index exists.\n   * \n   * @param _tableName Name of table\n   * @param _row Row index to query\n   * @returns Whether the row exists\n   */\n  function hasRow(bytes32 _tableName, uint _row) public view returns (bool) {\n\n    return Database.hasRow(db, _tableName, _row);\n  }\n\n  /* \n   * Query if a column with name exists.\n   * \n   * @param _tableName Name of table\n   * @param _columnName Column name to query\n   * @returns Whether the column name exists\n   * @returns Column index, if found\n   */\n  function hasColumn(bytes32 _tableName, bytes32 _columnName) public view returns (bool, uint) {\n\n    return Database.hasColumn(db, _tableName, _columnName);\n  }\n\n}",
  "sourcePath": "/home/seongmin/okeydokey/contracts/tests/DatabaseTest.sol",
  "compiler": {
    "name": "solc",
    "version": "0.4.24+commit.e67f0147.Emscripten.clang"
  },
  "schemaVersion": "2.0.0",
  "updatedAt": "2018-06-04T20:22:03.952Z"
}