{
  "contractName": "Devices",
  "abi": [
    {
      "inputs": [],
      "payable": false,
      "stateMutability": "nonpayable",
      "type": "constructor"
    },
    {
      "anonymous": false,
      "inputs": [
        {
          "indexed": false,
          "name": "deviceAddr",
          "type": "address"
        },
        {
          "indexed": false,
          "name": "currentTime",
          "type": "uint256"
        }
      ],
      "name": "Activate",
      "type": "event"
    },
    {
      "constant": false,
      "inputs": [
        {
          "name": "_okeyDokeyAddress",
          "type": "address"
        }
      ],
      "name": "initializeContracts",
      "outputs": [
        {
          "name": "success",
          "type": "bool"
        }
      ],
      "payable": false,
      "stateMutability": "nonpayable",
      "type": "function"
    },
    {
      "constant": false,
      "inputs": [
        {
          "name": "owner",
          "type": "address"
        },
        {
          "name": "deviceType",
          "type": "uint256"
        },
        {
          "name": "name",
          "type": "bytes32"
        }
      ],
      "name": "register",
      "outputs": [],
      "payable": false,
      "stateMutability": "nonpayable",
      "type": "function"
    },
    {
      "constant": false,
      "inputs": [
        {
          "name": "deviceAddr",
          "type": "address"
        }
      ],
      "name": "deRegister",
      "outputs": [
        {
          "name": "success",
          "type": "bool"
        }
      ],
      "payable": false,
      "stateMutability": "nonpayable",
      "type": "function"
    },
    {
      "constant": false,
      "inputs": [
        {
          "name": "houseId",
          "type": "uint256"
        },
        {
          "name": "deviceAddr",
          "type": "address"
        }
      ],
      "name": "addToHouse",
      "outputs": [],
      "payable": false,
      "stateMutability": "nonpayable",
      "type": "function"
    },
    {
      "constant": false,
      "inputs": [
        {
          "name": "houseId",
          "type": "uint256"
        },
        {
          "name": "deviceAddr",
          "type": "address"
        }
      ],
      "name": "removeFromHouse",
      "outputs": [
        {
          "name": "success",
          "type": "bool"
        }
      ],
      "payable": false,
      "stateMutability": "nonpayable",
      "type": "function"
    },
    {
      "constant": false,
      "inputs": [
        {
          "name": "deviceAddr",
          "type": "address"
        },
        {
          "name": "deviceType",
          "type": "uint256"
        },
        {
          "name": "name",
          "type": "bytes32"
        }
      ],
      "name": "editDevice",
      "outputs": [
        {
          "name": "success",
          "type": "bool"
        }
      ],
      "payable": false,
      "stateMutability": "nonpayable",
      "type": "function"
    },
    {
      "constant": true,
      "inputs": [
        {
          "name": "addr",
          "type": "address"
        }
      ],
      "name": "getDeviceInfo",
      "outputs": [
        {
          "name": "success",
          "type": "bool"
        },
        {
          "name": "deviceAddr",
          "type": "address"
        },
        {
          "name": "houseId",
          "type": "uint256"
        },
        {
          "name": "deviceType",
          "type": "uint256"
        },
        {
          "name": "name",
          "type": "bytes32"
        },
        {
          "name": "state",
          "type": "uint256"
        }
      ],
      "payable": false,
      "stateMutability": "view",
      "type": "function"
    },
    {
      "constant": true,
      "inputs": [
        {
          "name": "guest",
          "type": "address"
        }
      ],
      "name": "verifyGuest",
      "outputs": [
        {
          "name": "success",
          "type": "bool"
        }
      ],
      "payable": false,
      "stateMutability": "view",
      "type": "function"
    },
    {
      "constant": false,
      "inputs": [],
      "name": "kill",
      "outputs": [],
      "payable": false,
      "stateMutability": "nonpayable",
      "type": "function"
    }
  ],
  "bytecode": "0x608060405234801561001057600080fd5b50336000806101000a81548173ffffffffffffffffffffffffffffffffffffffff021916908373ffffffffffffffffffffffffffffffffffffffff160217905550611b3c806100606000396000f300608060405260043610610099576000357c0100000000000000000000000000000000000000000000000000000000900463ffffffff16806312bb06041461009e57806330282a21146100f957806341c0e1b5146101545780634869fe261461016b5780635b114af61461021d5780637a8adb1714610278578063901ecb3f146102eb578063a0fb893414610350578063c57df3de146103ab575b600080fd5b3480156100aa57600080fd5b506100df600480360381019080803573ffffffffffffffffffffffffffffffffffffffff1690602001909291905050506103f8565b604051808215151515815260200191505060405180910390f35b34801561010557600080fd5b50610152600480360381019080803573ffffffffffffffffffffffffffffffffffffffff169060200190929190803590602001909291908035600019169060200190929190505050610859565b005b34801561016057600080fd5b50610169610a4f565b005b34801561017757600080fd5b506101ac600480360381019080803573ffffffffffffffffffffffffffffffffffffffff169060200190929190505050610ae4565b60405180871515151581526020018673ffffffffffffffffffffffffffffffffffffffff1673ffffffffffffffffffffffffffffffffffffffff1681526020018581526020018481526020018360001916600019168152602001828152602001965050505050505060405180910390f35b34801561022957600080fd5b5061025e600480360381019080803573ffffffffffffffffffffffffffffffffffffffff169060200190929190505050610c3d565b604051808215151515815260200191505060405180910390f35b34801561028457600080fd5b506102d1600480360381019080803573ffffffffffffffffffffffffffffffffffffffff169060200190929190803590602001909291908035600019169060200190929190505050610fb2565b604051808215151515815260200191505060405180910390f35b3480156102f757600080fd5b5061033660048036038101908080359060200190929190803573ffffffffffffffffffffffffffffffffffffffff169060200190929190505050611288565b604051808215151515815260200191505060405180910390f35b34801561035c57600080fd5b50610391600480360381019080803573ffffffffffffffffffffffffffffffffffffffff1690602001909291905050506115e0565b604051808215151515815260200191505060405180910390f35b3480156103b757600080fd5b506103f660048036038101908080359060200190929190803573ffffffffffffffffffffffffffffffffffffffff16906020019092919050505061178b565b005b60003373ffffffffffffffffffffffffffffffffffffffff166000809054906101000a900473ffffffffffffffffffffffffffffffffffffffff1673ffffffffffffffffffffffffffffffffffffffff1614151561045557600080fd5b600073ffffffffffffffffffffffffffffffffffffffff168273ffffffffffffffffffffffffffffffffffffffff161415151561049157600080fd5b3073ffffffffffffffffffffffffffffffffffffffff168273ffffffffffffffffffffffffffffffffffffffff16141515156104cc57600080fd5b81600360006101000a81548173ffffffffffffffffffffffffffffffffffffffff021916908373ffffffffffffffffffffffffffffffffffffffff160217905550600360009054906101000a900473ffffffffffffffffffffffffffffffffffffffff16600460006101000a81548173ffffffffffffffffffffffffffffffffffffffff021916908373ffffffffffffffffffffffffffffffffffffffff160217905550600460009054906101000a900473ffffffffffffffffffffffffffffffffffffffff1673ffffffffffffffffffffffffffffffffffffffff1663b93f9b0a60016040518263ffffffff167c010000000000000000000000000000000000000000000000000000000002815260040180828152602001915050602060405180830381600087803b15801561060257600080fd5b505af1158015610616573d6000803e3d6000fd5b505050506040513d602081101561062c57600080fd5b8101908080519060200190929190505050600760006101000a81548173ffffffffffffffffffffffffffffffffffffffff021916908373ffffffffffffffffffffffffffffffffffffffff160217905550600760009054906101000a900473ffffffffffffffffffffffffffffffffffffffff16600860006101000a81548173ffffffffffffffffffffffffffffffffffffffff021916908373ffffffffffffffffffffffffffffffffffffffff160217905550600460009054906101000a900473ffffffffffffffffffffffffffffffffffffffff1673ffffffffffffffffffffffffffffffffffffffff1663b93f9b0a60036040518263ffffffff167c010000000000000000000000000000000000000000000000000000000002815260040180828152602001915050602060405180830381600087803b15801561077257600080fd5b505af1158015610786573d6000803e3d6000fd5b505050506040513d602081101561079c57600080fd5b8101908080519060200190929190505050600560006101000a81548173ffffffffffffffffffffffffffffffffffffffff021916908373ffffffffffffffffffffffffffffffffffffffff160217905550600560009054906101000a900473ffffffffffffffffffffffffffffffffffffffff16600660006101000a81548173ffffffffffffffffffffffffffffffffffffffff021916908373ffffffffffffffffffffffffffffffffffffffff16021790555060019050919050565b610861611a9f565b600073ffffffffffffffffffffffffffffffffffffffff168473ffffffffffffffffffffffffffffffffffffffff161415151561089d57600080fd5b33816000019073ffffffffffffffffffffffffffffffffffffffff16908173ffffffffffffffffffffffffffffffffffffffff168152505083816020019073ffffffffffffffffffffffffffffffffffffffff16908173ffffffffffffffffffffffffffffffffffffffff168152505082816060018181525050818160800190600019169081600019168152505080600160003373ffffffffffffffffffffffffffffffffffffffff1673ffffffffffffffffffffffffffffffffffffffff16815260200190815260200160002060008201518160000160006101000a81548173ffffffffffffffffffffffffffffffffffffffff021916908373ffffffffffffffffffffffffffffffffffffffff16021790555060208201518160010160006101000a81548173ffffffffffffffffffffffffffffffffffffffff021916908373ffffffffffffffffffffffffffffffffffffffff16021790555060408201518160020155606082015181600301556080820151816004019060001916905560a08201518160050160006101000a81548160ff02191690836001811115610a4157fe5b021790555090505050505050565b3373ffffffffffffffffffffffffffffffffffffffff166000809054906101000a900473ffffffffffffffffffffffffffffffffffffffff1673ffffffffffffffffffffffffffffffffffffffff16141515610aaa57600080fd5b6000809054906101000a900473ffffffffffffffffffffffffffffffffffffffff1673ffffffffffffffffffffffffffffffffffffffff16ff5b600080600080600080600087600073ffffffffffffffffffffffffffffffffffffffff16600160008373ffffffffffffffffffffffffffffffffffffffff1673ffffffffffffffffffffffffffffffffffffffff16815260200190815260200160002060000160009054906101000a900473ffffffffffffffffffffffffffffffffffffffff1673ffffffffffffffffffffffffffffffffffffffff1614151515610b8e57600080fd5b60009750600160008a73ffffffffffffffffffffffffffffffffffffffff1673ffffffffffffffffffffffffffffffffffffffff16815260200190815260200160002091508160000160009054906101000a900473ffffffffffffffffffffffffffffffffffffffff1696508160020154955081600301549450816004015493508160050160009054906101000a900460ff166001811115610c2c57fe5b925060019750505091939550919395565b600081600073ffffffffffffffffffffffffffffffffffffffff16600160008373ffffffffffffffffffffffffffffffffffffffff1673ffffffffffffffffffffffffffffffffffffffff16815260200190815260200160002060000160009054906101000a900473ffffffffffffffffffffffffffffffffffffffff1673ffffffffffffffffffffffffffffffffffffffff1614151515610cde57600080fd5b600091503373ffffffffffffffffffffffffffffffffffffffff16600160008573ffffffffffffffffffffffffffffffffffffffff1673ffffffffffffffffffffffffffffffffffffffff16815260200190815260200160002060010160009054906101000a900473ffffffffffffffffffffffffffffffffffffffff1673ffffffffffffffffffffffffffffffffffffffff16141515610d7e57600080fd5b6000600160008573ffffffffffffffffffffffffffffffffffffffff1673ffffffffffffffffffffffffffffffffffffffff16815260200190815260200160002060020154141515610eec573073ffffffffffffffffffffffffffffffffffffffff1663901ecb3f600160008673ffffffffffffffffffffffffffffffffffffffff1673ffffffffffffffffffffffffffffffffffffffff16815260200190815260200160002060020154856040518363ffffffff167c0100000000000000000000000000000000000000000000000000000000028152600401808381526020018273ffffffffffffffffffffffffffffffffffffffff1673ffffffffffffffffffffffffffffffffffffffff16815260200192505050602060405180830381600087803b158015610eaf57600080fd5b505af1158015610ec3573d6000803e3d6000fd5b505050506040513d6020811015610ed957600080fd5b8101908080519060200190929190505050505b600160008473ffffffffffffffffffffffffffffffffffffffff1673ffffffffffffffffffffffffffffffffffffffff168152602001908152602001600020600080820160006101000a81549073ffffffffffffffffffffffffffffffffffffffff02191690556001820160006101000a81549073ffffffffffffffffffffffffffffffffffffffff02191690556002820160009055600382016000905560048201600090556005820160006101000a81549060ff021916905550506001915050919050565b6000806000856000600160008373ffffffffffffffffffffffffffffffffffffffff1673ffffffffffffffffffffffffffffffffffffffff168152602001908152602001600020600201541415151561100a57600080fd5b60009350600860009054906101000a900473ffffffffffffffffffffffffffffffffffffffff1673ffffffffffffffffffffffffffffffffffffffff1663ad50f56d600160008a73ffffffffffffffffffffffffffffffffffffffff1673ffffffffffffffffffffffffffffffffffffffff168152602001908152602001600020600201546040518263ffffffff167c010000000000000000000000000000000000000000000000000000000002815260040180828152602001915050600060405180830381600087803b1580156110e157600080fd5b505af11580156110f5573d6000803e3d6000fd5b505050506040513d6000823e3d601f19601f8201168201806040525061010081101561112057600080fd5b8101908080519060200190929190805164010000000081111561114257600080fd5b8281019050602081018481111561115857600080fd5b815185600182028301116401000000008211171561117557600080fd5b50509291906020018051906020019092919080519060200190929190805190602001909291908051906020019092919080519060200190929190805190602001909291905050505050505050945050508273ffffffffffffffffffffffffffffffffffffffff163373ffffffffffffffffffffffffffffffffffffffff161415156111ff57600080fd5b600160008873ffffffffffffffffffffffffffffffffffffffff1673ffffffffffffffffffffffffffffffffffffffff1681526020019081526020016000209150858260030154141515611257578582600301819055505b846000191682600401546000191614151561127a57848260040181600019169055505b600193505050509392505050565b600080600080600080866000600160008373ffffffffffffffffffffffffffffffffffffffff1673ffffffffffffffffffffffffffffffffffffffff16815260200190815260200160002060020154141515156112e457600080fd5b60009650600860009054906101000a900473ffffffffffffffffffffffffffffffffffffffff1673ffffffffffffffffffffffffffffffffffffffff1663ad50f56d8a6040518263ffffffff167c010000000000000000000000000000000000000000000000000000000002815260040180828152602001915050600060405180830381600087803b15801561137957600080fd5b505af115801561138d573d6000803e3d6000fd5b505050506040513d6000823e3d601f19601f820116820180604052506101008110156113b857600080fd5b810190808051906020019092919080516401000000008111156113da57600080fd5b828101905060208101848111156113f057600080fd5b815185600182028301116401000000008211171561140d57600080fd5b50509291906020018051906020019092919080519060200190929190805190602001909291908051906020019092919080519060200190929190805190602001909291905050505050505050975050508573ffffffffffffffffffffffffffffffffffffffff163373ffffffffffffffffffffffffffffffffffffffff1614151561149757600080fd5b6000600160008a73ffffffffffffffffffffffffffffffffffffffff1673ffffffffffffffffffffffffffffffffffffffff16815260200190815260200160002060020181905550600260008a815260200190815260200160002094506000935060009250600091505b848054905082101561158e578773ffffffffffffffffffffffffffffffffffffffff16858381548110151561153257fe5b9060005260206000200160009054906101000a900473ffffffffffffffffffffffffffffffffffffffff1673ffffffffffffffffffffffffffffffffffffffff16141561158157600193508192505b8180600101925050611501565b83156115d45784838154811015156115a257fe5b9060005260206000200160006101000a81549073ffffffffffffffffffffffffffffffffffffffff0219169055600196505b50505050505092915050565b6000336000600160008373ffffffffffffffffffffffffffffffffffffffff1673ffffffffffffffffffffffffffffffffffffffff168152602001908152602001600020600201541415151561163557600080fd5b60009150600660009054906101000a900473ffffffffffffffffffffffffffffffffffffffff1673ffffffffffffffffffffffffffffffffffffffff1663484c92b7600160003373ffffffffffffffffffffffffffffffffffffffff1673ffffffffffffffffffffffffffffffffffffffff16815260200190815260200160002060020154856040518363ffffffff167c0100000000000000000000000000000000000000000000000000000000028152600401808381526020018273ffffffffffffffffffffffffffffffffffffffff1673ffffffffffffffffffffffffffffffffffffffff16815260200192505050602060405180830381600087803b15801561174057600080fd5b505af1158015611754573d6000803e3d6000fd5b505050506040513d602081101561176a57600080fd5b81019080805190602001909291905050501561178557600191505b50919050565b600081600073ffffffffffffffffffffffffffffffffffffffff16600160008373ffffffffffffffffffffffffffffffffffffffff1673ffffffffffffffffffffffffffffffffffffffff16815260200190815260200160002060000160009054906101000a900473ffffffffffffffffffffffffffffffffffffffff1673ffffffffffffffffffffffffffffffffffffffff161415151561182c57600080fd5b600860009054906101000a900473ffffffffffffffffffffffffffffffffffffffff1673ffffffffffffffffffffffffffffffffffffffff1663ad50f56d856040518263ffffffff167c010000000000000000000000000000000000000000000000000000000002815260040180828152602001915050600060405180830381600087803b1580156118bd57600080fd5b505af11580156118d1573d6000803e3d6000fd5b505050506040513d6000823e3d601f19601f820116820180604052506101008110156118fc57600080fd5b8101908080519060200190929190805164010000000081111561191e57600080fd5b8281019050602081018481111561193457600080fd5b815185600182028301116401000000008211171561195157600080fd5b50509291906020018051906020019092919080519060200190929190805190602001909291908051906020019092919080519060200190929190805190602001909291905050505050505050935050508173ffffffffffffffffffffffffffffffffffffffff163373ffffffffffffffffffffffffffffffffffffffff161415156119db57600080fd5b83600160008573ffffffffffffffffffffffffffffffffffffffff1673ffffffffffffffffffffffffffffffffffffffff16815260200190815260200160002060020181905550600260008581526020019081526020016000208390806001815401808255809150509060018203906000526020600020016000909192909190916101000a81548173ffffffffffffffffffffffffffffffffffffffff021916908373ffffffffffffffffffffffffffffffffffffffff1602179055505050505050565b60c060405190810160405280600073ffffffffffffffffffffffffffffffffffffffff168152602001600073ffffffffffffffffffffffffffffffffffffffff16815260200160008152602001600081526020016000801916815260200160006001811115611b0a57fe5b815250905600a165627a7a72305820a925d3e40ea573c2f96ac90dfd93283a1076bd2170a906de3151f8f7464c31690029",
  "source": "pragma solidity ^0.4.19;\n\nimport \"../core/OkeyDokey.sol\";\nimport \"./Reservations.sol\";\nimport \"./Houses.sol\";\n\ncontract Devices {\n\n    /** Admin of this contract. */\n    address private admin;\n\n    // /** Running count of device ids. Smallest valid device index is 1. */\n    // uint256 deviceId = 0;\n\n    /** Map of device address to each corresponding device. */\n    mapping(address => Device) private devices;\n\n    /** Map of house id to its device addresses */\n    mapping(uint256 => address[]) private devicesOf;\n    \n    /** Address of OkeyDokey contract. */\n    address private okeyDokeyAddress;\n\n    /** Instance of OkeyDokey contract. */\n    OkeyDokey private okeyDokey;\n\n    /** Address of Reservations contract. */\n    address private reservationsAddress;\n\n    /** Instance of Reservations contract. */\n    Reservations private reservations;\n\n    /** Address of Houses contract. */\n    address private housesAddress;\n\n    /** Instance of Houses contract. */\n    Houses private houses;\n\n    /** Device states */\n    enum DeviceStates {ACTIVE, INACTIVE}\n\n    /** Structure of a device. */\n    struct Device {\n        // uint256 id;\n        address addr;\n        address owner;\n        uint256 houseId;\n        \n        uint256 deviceType; // (ex: 0: doorlock, 1: ...)\n        bytes32 name; // device name (ex: doorlock_front, doorlock_garage)\n        \n        DeviceStates state;\n    }\n    \n    event Activate (\n        address deviceAddr,\n        uint currentTime\n    );\n    \n\n    /**\n     * Modifier for functions only smart contract owner(admin) can run.\n     */\n    modifier system() {\n\n        /* Verify admin. */\n        require(admin == msg.sender);\n\n        _;\n    }\n\n    /**\n     * Modifier to verify that device (caller) is registered to this contract.\n     */\n    modifier isRegistered(address addr) {\n\n        require(devices[addr].addr != address(0));\n\n        _;\n    }\n\n\n    /**\n     * Modifier to verify that device (caller) belongs to a house.\n     * Premise: isRegistered() returns true.\n     */\n    modifier belongsToHouse(address addr) {\n        \n        require(devices[addr].houseId != 0);\n\n        _;\n    }\n    \n\n    /**\n     * Constrctor function.\n     *\n     * Assign contract owner (admin).\n     */\n    function Devices() public {\n        admin = msg.sender;\n    }\n    \n    \n    /**\n     * Initialize other OKDK contracts this contract depends on.\n     *\n     * @param _okeyDokeyAddress The address of main application contract.\n     * @return success Whether the initialization was successful.\n     */\n    function initializeContracts(address _okeyDokeyAddress) system public \n        returns (bool success) {\n            \n        require(_okeyDokeyAddress != address(0));\n        require(_okeyDokeyAddress != address(this));\n\n        okeyDokeyAddress = _okeyDokeyAddress;\n        okeyDokey = OkeyDokey(okeyDokeyAddress);\n\n        housesAddress = okeyDokey.getAddress(1);\n        houses = Houses(housesAddress);\n\n        reservationsAddress = okeyDokey.getAddress(3);\n        reservations = Reservations(reservationsAddress);\n\n        return true;\n    }\n\n\n    /**\n     * Register device (caller) to this contract.\n     *\n     * @param owner The address of the device owner. \n     * @param deviceType The type of device defined by okdk system. \n     * @param name The name of device.\n     */\n    function register(address owner, uint256 deviceType, bytes32 name) public {\n\n        require(owner != address(0));\n\n        Device memory device;\n        \n        device.addr = msg.sender;\n        device.owner = owner; \n\n        device.deviceType = deviceType; \n        device.name = name; \n\n        devices[msg.sender] = device;\n    }\n\n\n    /**\n     * De-register device from this contract.\n     * ** caller must be the owner of the device.\n     *\n     * @param deviceAddr The address of device to de-register. \n     * @return success Whether the registration was successful.\n     */\n    function deRegister(address deviceAddr) isRegistered(deviceAddr) public \n        returns (bool success) {\n\n        success = false; \n\n        // check if caller is the owner of the device\n        require(devices[deviceAddr].owner == msg.sender);\n\n        // if the device belongs to a house, remove from house first\n        if(devices[deviceAddr].houseId != 0) {\n            this.removeFromHouse(devices[deviceAddr].houseId, deviceAddr);\n        }\n\n        // remove device from the list\n        //TODO: need to test what this leaves after. \n        delete devices[deviceAddr];\n\n        success = true; \n\n    }\n\n\n\n    /**\n     * Add device to a house.\n     *\n     * @param houseId Id of the house to add this device. \n     * @param deviceAddr The address of the device. \n     */\n    function addToHouse(uint256 houseId, address deviceAddr) \n        isRegistered(deviceAddr) public {\n        \n        var (,,host,,,,,) = houses.getHouseInfo(houseId);\n\n        // Verify if caller is the host of the house.\n        require(msg.sender == host);\n\n        devices[deviceAddr].houseId = houseId; \n        devicesOf[houseId].push(deviceAddr);\n    }\n\n\n    /**\n     * Remove device from a house.\n     *\n     * @param houseId The id of the house.\n     * @param deviceAddr The address of the device to remove.\n     * @return success Whether the operation was successful.\n     */\n    function removeFromHouse(uint256 houseId, address deviceAddr) belongsToHouse(deviceAddr) \n        public returns (bool success) {\n\n        success = false;\n        \n        var (,,host,,,,,) = houses.getHouseInfo(houseId);\n\n        // verify caller is the host of the house\n        require(msg.sender == host);\n\n        devices[deviceAddr].houseId = 0; \n        \n        address[] storage houseDevices = devicesOf[houseId];\n        bool found = false;\n        uint256 index = 0;\n\n        for (uint256 i = 0; i < houseDevices.length; i++) {\n            if (houseDevices[i] == deviceAddr) {\n                found = true;\n                index = i;\n            }\n        }\n\n        if (found) {\n            // TODO: currently, this leaves a gap (deleting simply makes element 0)\n            delete houseDevices[index];\n            success = true;\n        }\n        \n    }\n\n\n    /**\n     * Edit device info (device type & name)\n     *\n     * @param deviceAddr The address of device to register.\n     * @param deviceType The type of device defined by okdk system. \n     * @param name The name of device.\n     * @return success Whether the edit was successful.\n     */\n    function editDevice(address deviceAddr, uint256 deviceType, bytes32 name) \n        belongsToHouse(deviceAddr) public returns (bool success) {\n\n        success = false;\n        \n        var (,,host,,,,,) = houses.getHouseInfo(devices[deviceAddr].houseId);\n\n        // verify caller is the host of the house\n        require(msg.sender == host);\n\n        Device storage device = devices[deviceAddr]; \n\n        if(device.deviceType != deviceType) {\n            device.deviceType = deviceType;\n        }\n\n        if(device.name != name) {\n            device.name = name; \n        }\n        \n        success = true; \n    }\n\n\n    /**\n     * Fetch device information.\n     *\n     * @param addr The address of the device to query.\n     * @return success Whether the query was successful.\n     * @return deviceAddr The address of the device.\n     * @return houseId The Id of the house device belongs to.\n     * @return deviceType The type of the device.\n     * @return name The name of the device.\n     * @return state The state of the device.\n     */\n    function getDeviceInfo(address addr) isRegistered(addr) public view\n        returns (bool success, address deviceAddr, uint256 houseId, \n                uint256 deviceType, bytes32 name, uint256 state) {\n    \n        success = false;\n\n        Device storage device = devices[addr]; \n\n        deviceAddr = device.addr;\n\n        // if device doesn't belong to any house, houseId will be 0 \n        houseId = device.houseId;\n\n        deviceType = device.deviceType;\n        name = device.name; \n        state = uint256(device.state);\n\n        success = true;\n    } \n    \n    \n    /**\n     * Verify the guest.\n     *\n     * @param guest The guest who is trying to activate the device. \n     * @return success Whether the activation was successful.\n     */\n    function verifyGuest(address guest) belongsToHouse(msg.sender) public view returns (bool success) {\n        \n        success = false;\n\n        // check if guest is indeed authorized guest for the device's house \n        if(reservations.isCurrentGuest(devices[msg.sender].houseId, guest)) {\n            success = true;    \n        }\n\n    }\n\n\n    /**\n     * Self destruct.\n     */\n    function kill() system public { \n        selfdestruct(admin); \n    }\n\n}",
  "sourcePath": "/home/seongmin/okeydokey/contracts/rental/Devices.sol",
  "compiler": {
    "name": "solc",
    "version": "0.4.24+commit.e67f0147.Emscripten.clang"
  },
  "schemaVersion": "2.0.0",
  "updatedAt": "2018-06-05T01:08:06.696Z"
}