{
  "contractName": "Facilities",
  "abi": [
    {
      "inputs": [],
      "payable": false,
      "stateMutability": "nonpayable",
      "type": "constructor"
    },
    {
      "constant": false,
      "inputs": [
        {
          "name": "_okeyDokeyAddress",
          "type": "address"
        }
      ],
      "name": "initializeContracts",
      "outputs": [
        {
          "name": "success",
          "type": "bool"
        }
      ],
      "payable": false,
      "stateMutability": "nonpayable",
      "type": "function"
    },
    {
      "constant": false,
      "inputs": [
        {
          "name": "name",
          "type": "bytes32"
        },
        {
          "name": "bzzHash",
          "type": "bytes"
        }
      ],
      "name": "registerFacility",
      "outputs": [],
      "payable": false,
      "stateMutability": "nonpayable",
      "type": "function"
    },
    {
      "constant": false,
      "inputs": [
        {
          "name": "facilityId",
          "type": "bytes32"
        },
        {
          "name": "name",
          "type": "bytes32"
        }
      ],
      "name": "defineZone",
      "outputs": [],
      "payable": false,
      "stateMutability": "nonpayable",
      "type": "function"
    },
    {
      "constant": false,
      "inputs": [
        {
          "name": "guest",
          "type": "address"
        },
        {
          "name": "zoneId",
          "type": "bytes32"
        },
        {
          "name": "isTemporary",
          "type": "bool"
        },
        {
          "name": "begin",
          "type": "uint256"
        },
        {
          "name": "end",
          "type": "uint256"
        },
        {
          "name": "hasLimit",
          "type": "bool"
        },
        {
          "name": "limit",
          "type": "uint256"
        },
        {
          "name": "count",
          "type": "uint256"
        }
      ],
      "name": "grantAccess",
      "outputs": [],
      "payable": false,
      "stateMutability": "nonpayable",
      "type": "function"
    },
    {
      "constant": false,
      "inputs": [],
      "name": "getMyAccesses",
      "outputs": [
        {
          "name": "accessIds",
          "type": "bytes32[]"
        }
      ],
      "payable": false,
      "stateMutability": "nonpayable",
      "type": "function"
    },
    {
      "constant": true,
      "inputs": [
        {
          "name": "accessId",
          "type": "bytes32"
        }
      ],
      "name": "getAccessInfo",
      "outputs": [
        {
          "name": "zoneId",
          "type": "bytes32"
        },
        {
          "name": "isTemporary",
          "type": "bool"
        },
        {
          "name": "begin",
          "type": "uint256"
        },
        {
          "name": "end",
          "type": "uint256"
        },
        {
          "name": "hasLimit",
          "type": "bool"
        },
        {
          "name": "limit",
          "type": "uint256"
        },
        {
          "name": "count",
          "type": "uint256"
        }
      ],
      "payable": false,
      "stateMutability": "view",
      "type": "function"
    },
    {
      "constant": true,
      "inputs": [
        {
          "name": "guest",
          "type": "address"
        },
        {
          "name": "zoneId",
          "type": "bytes32"
        }
      ],
      "name": "verifyAccess",
      "outputs": [
        {
          "name": "hasAccess",
          "type": "bool"
        },
        {
          "name": "accessId",
          "type": "bytes32"
        }
      ],
      "payable": false,
      "stateMutability": "view",
      "type": "function"
    },
    {
      "constant": false,
      "inputs": [
        {
          "name": "guest",
          "type": "address"
        },
        {
          "name": "zoneId",
          "type": "bytes32"
        }
      ],
      "name": "accessAction",
      "outputs": [],
      "payable": false,
      "stateMutability": "nonpayable",
      "type": "function"
    },
    {
      "constant": false,
      "inputs": [
        {
          "name": "guest",
          "type": "address"
        },
        {
          "name": "accessId",
          "type": "bytes32"
        }
      ],
      "name": "preAccessActions",
      "outputs": [],
      "payable": false,
      "stateMutability": "nonpayable",
      "type": "function"
    },
    {
      "constant": false,
      "inputs": [
        {
          "name": "guest",
          "type": "address"
        },
        {
          "name": "accessId",
          "type": "bytes32"
        }
      ],
      "name": "postAccessActions",
      "outputs": [],
      "payable": false,
      "stateMutability": "nonpayable",
      "type": "function"
    },
    {
      "constant": false,
      "inputs": [],
      "name": "kill",
      "outputs": [],
      "payable": false,
      "stateMutability": "nonpayable",
      "type": "function"
    }
  ],
  "bytecode": "0x608060405234801561001057600080fd5b50336000806101000a81548173ffffffffffffffffffffffffffffffffffffffff021916908373ffffffffffffffffffffffffffffffffffffffff16021790555061146a806100606000396000f3006080604052600436106100af576000357c0100000000000000000000000000000000000000000000000000000000900463ffffffff16806312bb0604146100b4578063305a0e5e1461010f57806341c0e1b51461017b5780635146b6c4146101925780637b631fd21461020957806390b3f5031461025a57806393a7fb7c146102eb5780639cfb25a51461036a578063b60dbda8146103bb578063f475b9a41461040c578063fad7c4ac1461044b575b600080fd5b3480156100c057600080fd5b506100f5600480360381019080803573ffffffffffffffffffffffffffffffffffffffff1690602001909291905050506104c3565b604051808215151515815260200191505060405180910390f35b34801561011b57600080fd5b50610124610644565b6040518080602001828103825283818151815260200191508051906020019060200280838360005b8381101561016757808201518184015260208101905061014c565b505050509050019250505060405180910390f35b34801561018757600080fd5b506101906106dd565b005b34801561019e57600080fd5b506102076004803603810190808035600019169060200190929190803590602001908201803590602001908080601f016020809104026020016040519081016040528093929190818152602001838380828437820191505050505050919291929050505061076e565b005b34801561021557600080fd5b50610258600480360381019080803573ffffffffffffffffffffffffffffffffffffffff1690602001909291908035600019169060200190929190505050610960565b005b34801561026657600080fd5b506102e9600480360381019080803573ffffffffffffffffffffffffffffffffffffffff1690602001909291908035600019169060200190929190803515159060200190929190803590602001909291908035906020019092919080351515906020019092919080359060200190929190803590602001909291905050506109cd565b005b3480156102f757600080fd5b5061031a6004803603810190808035600019169060200190929190505050610d03565b604051808860001916600019168152602001871515151581526020018681526020018581526020018415151515815260200183815260200182815260200197505050505050505060405180910390f35b34801561037657600080fd5b506103b9600480360381019080803573ffffffffffffffffffffffffffffffffffffffff1690602001909291908035600019169060200190929190505050610d83565b005b3480156103c757600080fd5b5061040a600480360381019080803573ffffffffffffffffffffffffffffffffffffffff1690602001909291908035600019169060200190929190505050610d87565b005b34801561041857600080fd5b5061044960048036038101908080356000191690602001909291908035600019169060200190929190505050610d8b565b005b34801561045757600080fd5b5061049a600480360381019080803573ffffffffffffffffffffffffffffffffffffffff1690602001909291908035600019169060200190929190505050610f4b565b604051808315151515815260200182600019166000191681526020019250505060405180910390f35b60003373ffffffffffffffffffffffffffffffffffffffff166000809054906101000a900473ffffffffffffffffffffffffffffffffffffffff1673ffffffffffffffffffffffffffffffffffffffff1614151561052057600080fd5b600073ffffffffffffffffffffffffffffffffffffffff168273ffffffffffffffffffffffffffffffffffffffff161415151561055c57600080fd5b3073ffffffffffffffffffffffffffffffffffffffff168273ffffffffffffffffffffffffffffffffffffffff161415151561059757600080fd5b81600160006101000a81548173ffffffffffffffffffffffffffffffffffffffff021916908373ffffffffffffffffffffffffffffffffffffffff160217905550600160009054906101000a900473ffffffffffffffffffffffffffffffffffffffff16600260006101000a81548173ffffffffffffffffffffffffffffffffffffffff021916908373ffffffffffffffffffffffffffffffffffffffff16021790555060019050919050565b6060600860003373ffffffffffffffffffffffffffffffffffffffff1673ffffffffffffffffffffffffffffffffffffffff1681526020019081526020016000208054806020026020016040519081016040528092919081815260200182805480156106d357602002820191906000526020600020905b815460001916815260200190600101908083116106bb575b5050505050905090565b6000809054906101000a900473ffffffffffffffffffffffffffffffffffffffff1673ffffffffffffffffffffffffffffffffffffffff163373ffffffffffffffffffffffffffffffffffffffff16141561076c576000809054906101000a900473ffffffffffffffffffffffffffffffffffffffff1673ffffffffffffffffffffffffffffffffffffffff16ff5b565b6000610778611233565b3384604051808373ffffffffffffffffffffffffffffffffffffffff1673ffffffffffffffffffffffffffffffffffffffff166c01000000000000000000000000028152601401826000191660001916815260200192505050604051809103902091506107e5338361109c565b156107ef5761095a565b818160200190600019169081600019168152505083816040019060001916908160001916815250508060056000846000191660001916815260200190815260200160002060008201518160000160006101000a81548173ffffffffffffffffffffffffffffffffffffffff021916908373ffffffffffffffffffffffffffffffffffffffff160217905550602082015181600101906000191690556040820151816002019060001916905560608201518160030190805190602001906108b6929190611278565b50905050600360003373ffffffffffffffffffffffffffffffffffffffff1673ffffffffffffffffffffffffffffffffffffffff1681526020019081526020016000208290806001815401808255809150509060018203906000526020600020016000909192909190915090600019169055508260096000846000191660001916815260200190815260200160002090805190602001906109589291906112cb565b505b50505050565b600080600061096f8585610f4b565b809350819450505082156109c65760076000836000191660001916815260200190815260200160002090508060070160009054906101000a900460ff16156109c557600181600901600082825401925050819055505b5b5050505050565b60006109d761134b565b60046000600660008c60001916600019168152602001908152602001600020600101546000191660001916815260200190815260200160002060009054906101000a900473ffffffffffffffffffffffffffffffffffffffff1673ffffffffffffffffffffffffffffffffffffffff163373ffffffffffffffffffffffffffffffffffffffff16141515610a6a57600080fd5b89898888604051808573ffffffffffffffffffffffffffffffffffffffff1673ffffffffffffffffffffffffffffffffffffffff166c01000000000000000000000000028152601401846000191660001916815260200183815260200182815260200194505050505060405180910390209150818160000190600019169081600019168152505089816020019073ffffffffffffffffffffffffffffffffffffffff16908173ffffffffffffffffffffffffffffffffffffffff1681525050888160600190600019169081600019168152505087816080019015159081151581525050868160a0018181525050858160c0018181525050848160e00190151590811515815250508381610100018181525050600081610120018181525050806007600084600019166000191681526020019081526020016000206000820151816000019060001916905560208201518160010160006101000a81548173ffffffffffffffffffffffffffffffffffffffff021916908373ffffffffffffffffffffffffffffffffffffffff160217905550604082015181600201906000191690556060820151816003019060001916905560808201518160040160006101000a81548160ff02191690831515021790555060a0820151816005015560c0820151816006015560e08201518160070160006101000a81548160ff02191690831515021790555061010082015181600801556101208201518160090155905050600860008b73ffffffffffffffffffffffffffffffffffffffff1673ffffffffffffffffffffffffffffffffffffffff16815260200190815260200160002082908060018154018082558091505090600182039060005260206000200160009091929091909150906000191690555050505050505050505050565b600080600080600080600080600760008a600019166000191681526020019081526020016000209050806003015497508060040160009054906101000a900460ff16965080600501549550806006015494508060070160009054906101000a900460ff169350806008015492508060090154915050919395979092949650565b5050565b5050565b6000610d956113c2565b60046000856000191660001916815260200190815260200160002060009054906101000a900473ffffffffffffffffffffffffffffffffffffffff1673ffffffffffffffffffffffffffffffffffffffff163373ffffffffffffffffffffffffffffffffffffffff16141515610e0a57600080fd5b838360405180836000191660001916815260200182600019166000191681526020019250505060405180910390209150610e44848361113d565b15610e4e57610f45565b818160000190600019169081600019168152505083816020019060001916908160001916815250508281604001906000191690816000191681525050806006600084600019166000191681526020019081526020016000206000820151816000019060001916905560208201518160010190600019169055604082015181600201906000191690556060820151816003019080519060200190610ef2929190611278565b509050506005600085600019166000191681526020019081526020016000206003018290806001815401808255809150509060018203906000526020600020016000909192909190915090600019169055505b50505050565b600080600080600080600080600860008b73ffffffffffffffffffffffffffffffffffffffff1673ffffffffffffffffffffffffffffffffffffffff168152602001908152602001600020955060009750600094505b858054905085101561108e578585815481101515610fbb57fe5b90600052602060002001549350600760008560001916600019168152602001908152602001600020925088600019168360030154600019161415611081578260040160009054906101000a900460ff16158061102b57504283600501541115801561102a575082600601544211155b5b91508260070160009054906101000a900460ff16158061105f57504283600501541115801561105e575082600601544211155b5b905081801561106b5750805b1561108057600197508260000154965061108f565b5b8480600101955050610fa1565b5b5050505050509250929050565b6000806000809250600360008673ffffffffffffffffffffffffffffffffffffffff1673ffffffffffffffffffffffffffffffffffffffff1681526020019081526020016000209150600090505b8180549050811015611134578360001916828281548110151561110957fe5b90600052602060002001546000191614156111275760019250611135565b80806001019150506110ea565b5b505092915050565b600080600060046000866000191660001916815260200190815260200160002060009054906101000a900473ffffffffffffffffffffffffffffffffffffffff1673ffffffffffffffffffffffffffffffffffffffff163373ffffffffffffffffffffffffffffffffffffffff161415156111b757600080fd5b600092506005600086600019166000191681526020019081526020016000206003019150600090505b818054905081101561122a57836000191682828154811015156111ff57fe5b906000526020600020015460001916141561121d576001925061122b565b80806001019150506111e0565b5b505092915050565b608060405190810160405280600073ffffffffffffffffffffffffffffffffffffffff1681526020016000801916815260200160008019168152602001606081525090565b8280548282559060005260206000209081019282156112ba579160200282015b828111156112b9578251829060001916905591602001919060010190611298565b5b5090506112c791906113f4565b5090565b828054600181600116156101000203166002900490600052602060002090601f016020900481019282601f1061130c57805160ff191683800117855561133a565b8280016001018555821561133a579182015b8281111561133957825182559160200191906001019061131e565b5b5090506113479190611419565b5090565b6101406040519081016040528060008019168152602001600073ffffffffffffffffffffffffffffffffffffffff1681526020016000801916815260200160008019168152602001600015158152602001600081526020016000815260200160001515815260200160008152602001600081525090565b608060405190810160405280600080191681526020016000801916815260200160008019168152602001606081525090565b61141691905b808211156114125760008160009055506001016113fa565b5090565b90565b61143b91905b8082111561143757600081600090555060010161141f565b5090565b905600a165627a7a72305820af5f5f9cfbceaf2e3e873d98ae7490edb872d6767d386675ef351be676ff4dd10029",
  "source": "pragma solidity ^0.4.19;\n\nimport \"../OkeyDokey.sol\";\n\ncontract Facilities {\n\n    /** Admin of this contract. */\n    address private admin;\n\n    /** Address of OkeyDokey contract. */\n    address private okeyDokeyAddress;\n\n    /** Instance of OkeyDokey contract. */\n    OkeyDokey private okeyDokey;\n\n    /** Addresses of owners to their facilities. */\n    mapping (address => bytes32[]) internal facilitiesOf;\n\n    /** Facility id to address of owner. */\n    mapping (bytes32 => address) internal ownerOf;\n\n    /** Facility ids to Facility instances. */\n    mapping (bytes32 => Facility) internal facilities;\n\n    /** Zone ids to Zone objects. */\n    mapping (bytes32 => Zone) internal zones;\n\n    /** Access ids to Access objects. */\n    mapping (bytes32 => Access) internal accesses;\n\n    /** Guest address to his/her access ids. */\n    mapping (address => bytes32[]) internal accessesOf;\n\n    /** Facility id to Bzz hash containing extra info. */\n    mapping (bytes32 => bytes) internal facilityInfo;\n\n    /** Definition of a facility. */\n    struct Facility {\n        address owner;\n        bytes32 id;\n        bytes32 name;\n        bytes32[] zones;\n    }\n\n    /** Definition of a zone. A zone consists of multiple devices. */\n    struct Zone {\n        bytes32 id;\n        bytes32 facilityId;\n        bytes32 name;\n        bytes32[] deviceIds; // Devices that belong to this zone.\n    }\n\n    /** Parameters that define a security clearance. */\n    struct Access {\n        bytes32 id; // Hash of guest address, facilityId, and zoneId.\n\n        address guest; // Person that access is granted for.\n\n        bytes32 facilityId;\n        bytes32 zoneId;\n\n        bool isTemporary; // Is this a temporary access?\n        uint256 begin; // In seconds since UNIX epoch\n        uint256 end; // In seconds since UNIX epoch\n\n        bool hasLimit; // Is this a count limited access?\n        uint256 limit; // Maximum number of access.\n        uint256 count; // Number of times accessed.\n    }\n\n    /**\n     * Modifier for functions only smart contract owner(admin) can run.\n     */\n    modifier OkeyDokeyAdmin() {\n\n        /* Verify admin. */\n        require(admin == msg.sender);\n\n        _;\n    }\n\n    /**\n     * Constrctor function.\n     *\n     * Set the admin.\n     */\n    function Facilities() public {\n        admin = msg.sender;\n    }\n\n    /**\n     * Initialize other OKDK contracts this contract depends on.\n     *\n     * @param _okeyDokeyAddress The address of main application contract.\n     * @return success Whether the initialization was successful.\n     */\n    function initializeContracts(address _okeyDokeyAddress) \n        OkeyDokeyAdmin public returns (bool success) {\n        require(_okeyDokeyAddress != address(0));\n        require(_okeyDokeyAddress != address(this));\n\n        okeyDokeyAddress = _okeyDokeyAddress;\n        okeyDokey = OkeyDokey(okeyDokeyAddress);\n\n        return true;\n    }\n\n    /**\n     * Register a facility.\n     *\n     * @param name Name of the facility.\n     * @param bzzHash Swarm hash containing extra information about the facility.\n     */\n    function registerFacility(bytes32 name, bytes bzzHash) public {\n\n        var facilityId = keccak256(msg.sender, name);\n\n        if (hasFacilityId(msg.sender, facilityId)) {\n            return;\n        }\n\n        /* Create new zone instance. */\n        Facility memory facility;\n        facility.id = facilityId;\n        facility.name = name;\n\n        /* Save to memory. */\n        facilities[facilityId] = facility;\n        facilitiesOf[msg.sender].push(facilityId);\n        facilityInfo[facilityId] = bzzHash;\n    }\n\n    /**\n     * Check if a owner has facility of the same id.\n     *\n     * @param owner Address of the owner.\n     * @param facilityId Id of the facility to check for.\n     * @return hasId Whether the id is already in use.\n     */\n    function hasFacilityId(address owner, bytes32 facilityId) \n        internal view returns (bool hasId) {\n\n        hasId = false;\n\n        bytes32[] storage facilityIds = facilitiesOf[owner];\n\n        for (uint256 i=0; i < facilityIds.length; i++) {\n\n            if (facilityIds[i] == facilityId) {\n                hasId = true;\n                return;\n            }\n        }\n    }\n\n    /**\n     * Designate a zone that actss as a unit of access.\n     *\n     * @param facilityId Id of the facility the zone belongs to.\n     * @param name Name of the zone.\n     */\n    function defineZone(bytes32 facilityId, bytes32 name) public {\n        require(msg.sender == ownerOf[facilityId]);\n\n        var zoneId = keccak256(facilityId, name);\n\n        if (hasZoneId(facilityId, zoneId)) {\n            return;\n        }\n\n        /* Create new zone instance. */\n        Zone memory zone;\n        zone.id = zoneId;\n        zone.facilityId = facilityId;\n        zone.name = name;\n\n        /* Save to memory. */\n        zones[zoneId] = zone;\n        facilities[facilityId].zones.push(zoneId);\n    }\n\n    /**\n     * Check if a facility has zone id.\n     *\n     * @param facilityId Id of the facility.\n     * @param zoneId Id of the zone to check for.\n     * @return hasId Whether the id is already in use.\n     */\n    function hasZoneId(bytes32 facilityId, bytes32 zoneId) \n        internal view returns (bool hasId) {\n\n        require(msg.sender == ownerOf[facilityId]);\n\n        hasId = false;\n\n        bytes32[] storage zoneIds = facilities[facilityId].zones;\n\n        for (uint256 i=0; i < zoneIds.length; i++) {\n\n            if (zoneIds[i] == zoneId) {\n                hasId = true;\n                return;\n            }\n        }\n    }\n\n    /**\n     * Give zone access to guest.\n     *\n     * @param guest Address of guest.\n     * @param zoneId Id of the zone.\n     * @param isTemporary Whether the access is timed.\n     * @param begin Time when access starts, in seconds since UNIX epoch,\n     * @param end Time when access ends, in seconds since UNIX epoch,\n     * @param hasLimit Whether the access has count limit.\n     * @param limit Maximum number of access.\n     * @param count Number of times accessed.\n     */\n    function grantAccess(address guest, bytes32 zoneId, \n                         bool isTemporary, uint256 begin, uint256 end, \n                         bool hasLimit, uint256 limit, uint256 count) public {\n\n        require(msg.sender == ownerOf[zones[zoneId].facilityId]);\n\n        var accessId = keccak256(guest, zoneId, begin, end);\n\n        /* Create new access instance. */\n        Access memory access;\n        access.id = accessId;\n        access.guest = guest;\n        access.zoneId = zoneId;\n        access.isTemporary = isTemporary;\n        access.begin = begin;\n        access.end = end;\n        access.hasLimit = hasLimit;\n        access.limit = limit;\n        access.count = 0;\n\n        /* Save to memory. */\n        accesses[accessId] = access;\n        accessesOf[guest].push(accessId);\n    }\n\n    /**\n     * Get a user's list of accesses.\n     *\n     * @return accessIds Array of access ids.\n     */\n    function getMyAccesses() public returns (bytes32[] accessIds) {\n\n        return accessesOf[msg.sender];\n    }\n\n    /**\n     * Get information about access from id.\n     *\n     * @param accessId Id of access instance.\n     * @return zoneId Id of the zone.\n     * @return isTemporary Whether the access is timed.\n     * @return begin Time when access starts, in seconds since UNIX epoch,\n     * @return end Time when access ends, in seconds since UNIX epoch,\n     * @return hasLimit Whether the access has count limit.\n     * @return limit Maximum number of access.\n     * @return count Number of times accessed.\n     */\n    function getAccessInfo(bytes32 accessId) public view \n        returns (bytes32 zoneId, \n                 bool isTemporary, uint256 begin, uint256 end, \n                 bool hasLimit, uint256 limit, uint256 count){\n\n        Access storage access = accesses[accessId];\n\n        zoneId = access.zoneId;\n        isTemporary = access.isTemporary;\n        begin = access.begin;\n        end = access.end;\n        hasLimit = access.hasLimit;\n        limit = access.limit;\n        count = access.count;\n    }\n\n    /**\n     * Verify if supplied user address has access of zone.\n     *\n     * @param guest Address to check for.\n     * @param zoneId Id of the zone.\n     * @return hasAccess Whether the guest address has current access.\n     * @return bytes32 Id of Access object, if it exists.\n     */\n    function verifyAccess(address guest, bytes32 zoneId) \n        public view returns (bool hasAccess, bytes32 accessId) {\n\n        bytes32[] storage accessIds = accessesOf[guest];\n\n        hasAccess = false;\n\n        for (uint256 i=0; i < accessIds.length; i++) {\n            var id = accessIds[i];\n            var access = accesses[id];\n\n            if (access.zoneId == zoneId) {\n\n                /* Check time. */\n                bool timeValid = !access.isTemporary || \n                                 (access.begin <= now && now <= access.end);\n\n                /* Check access count. */\n                bool limitValid = !access.hasLimit || \n                                  access.begin <= now && now <= access.end;\n\n                if (timeValid && limitValid) {\n                    hasAccess = true;\n                    accessId = access.id;\n                    return;\n                }\n            }\n        }\n    }  \n\n    /**\n     * Override to define access actions.\n     *\n     * @param guest Address to check for.\n     * @param zoneId Id of the zone .\n     */\n    function accessAction(address guest, bytes32 zoneId) public {\n\n        bool hasAccess;\n        bytes32 accessId;\n        (hasAccess, accessId) = verifyAccess(guest, zoneId);\n\n        if (hasAccess) {\n\n            Access storage access = accesses[accessId];\n        \n            if (access.hasLimit) {\n                access.count += 1;\n            }\n\n        }\n    } \n\n    /**\n     * Override to define pre access actions.\n     *\n     * @param guest Address to grant access to.\n     * @param accessId Id of the access.\n     */\n    function preAccessActions(address guest, bytes32 accessId) public {\n\n    }   \n\n    /**\n     * Override to define post access actions.\n     *\n     * @param guest Address to grant access to.\n     * @param accessId Id of the access.\n     */\n    function postAccessActions(address guest, bytes32 accessId) public {\n\n    }   \n\n    /**\n     * Self destruct.\n     */\n    function kill() public { \n        if (msg.sender == admin) selfdestruct(admin); \n    }\n\n}",
  "sourcePath": "/home/seongmin/okeydokey/contracts/core/access/Facilities.sol",
  "compiler": {
    "name": "solc",
    "version": "0.4.24+commit.e67f0147.Emscripten.clang"
  },
  "schemaVersion": "2.0.0",
  "updatedAt": "2018-06-04T20:22:03.917Z"
}