{
  "contractName": "Houses",
  "abi": [
    {
      "inputs": [],
      "payable": false,
      "stateMutability": "nonpayable",
      "type": "constructor"
    },
    {
      "anonymous": false,
      "inputs": [
        {
          "indexed": false,
          "name": "id",
          "type": "uint256"
        }
      ],
      "name": "NewHouse",
      "type": "event"
    },
    {
      "constant": false,
      "inputs": [
        {
          "name": "_okeydokeyAddress",
          "type": "address"
        }
      ],
      "name": "initializeContracts",
      "outputs": [
        {
          "name": "success",
          "type": "bool"
        }
      ],
      "payable": false,
      "stateMutability": "nonpayable",
      "type": "function"
    },
    {
      "constant": false,
      "inputs": [
        {
          "name": "bzzHash",
          "type": "bytes"
        },
        {
          "name": "gridId",
          "type": "uint256"
        },
        {
          "name": "hourlyRate",
          "type": "uint256"
        },
        {
          "name": "dailyRate",
          "type": "uint256"
        },
        {
          "name": "utilityFee",
          "type": "uint256"
        },
        {
          "name": "cleaningFee",
          "type": "uint256"
        }
      ],
      "name": "registerHouse",
      "outputs": [],
      "payable": false,
      "stateMutability": "nonpayable",
      "type": "function"
    },
    {
      "constant": false,
      "inputs": [
        {
          "name": "id",
          "type": "uint256"
        },
        {
          "name": "bzzHash",
          "type": "bytes"
        },
        {
          "name": "gridId",
          "type": "uint256"
        }
      ],
      "name": "editHouse",
      "outputs": [],
      "payable": false,
      "stateMutability": "nonpayable",
      "type": "function"
    },
    {
      "constant": false,
      "inputs": [
        {
          "name": "id",
          "type": "uint256"
        },
        {
          "name": "newAdmin",
          "type": "address"
        }
      ],
      "name": "addAdministrator",
      "outputs": [],
      "payable": false,
      "stateMutability": "nonpayable",
      "type": "function"
    },
    {
      "constant": false,
      "inputs": [
        {
          "name": "id",
          "type": "uint256"
        },
        {
          "name": "toDelete",
          "type": "address"
        }
      ],
      "name": "removeAdministrator",
      "outputs": [],
      "payable": false,
      "stateMutability": "nonpayable",
      "type": "function"
    },
    {
      "constant": true,
      "inputs": [
        {
          "name": "_id",
          "type": "uint256"
        }
      ],
      "name": "getHouseInfo",
      "outputs": [
        {
          "name": "id",
          "type": "uint256"
        },
        {
          "name": "bzzHash",
          "type": "bytes"
        },
        {
          "name": "host",
          "type": "address"
        },
        {
          "name": "hourlyRate",
          "type": "uint256"
        },
        {
          "name": "dailyRate",
          "type": "uint256"
        },
        {
          "name": "utilityFee",
          "type": "uint256"
        },
        {
          "name": "cleaningFee",
          "type": "uint256"
        },
        {
          "name": "active",
          "type": "bool"
        }
      ],
      "payable": false,
      "stateMutability": "view",
      "type": "function"
    },
    {
      "constant": false,
      "inputs": [],
      "name": "kill",
      "outputs": [],
      "payable": false,
      "stateMutability": "nonpayable",
      "type": "function"
    }
  ],
  "bytecode": "0x6080604052600060015534801561001557600080fd5b50336000806101000a81548173ffffffffffffffffffffffffffffffffffffffff021916908373ffffffffffffffffffffffffffffffffffffffff1602179055506114ec806100656000396000f300608060405260043610610083576000357c0100000000000000000000000000000000000000000000000000000000900463ffffffff16806312bb0604146100885780631e786cc1146100e357806341c0e1b5146101305780638204b94d14610147578063a78391e9146101c4578063ad50f56d1461025f578063b62f066714610366575b600080fd5b34801561009457600080fd5b506100c9600480360381019080803573ffffffffffffffffffffffffffffffffffffffff1690602001909291905050506103b3565b604051808215151515815260200191505060405180910390f35b3480156100ef57600080fd5b5061012e60048036038101908080359060200190929190803573ffffffffffffffffffffffffffffffffffffffff1690602001909291905050506106a0565b005b34801561013c57600080fd5b506101456108b1565b005b34801561015357600080fd5b506101c260048036038101908080359060200190929190803590602001908201803590602001908080601f016020809104026020016040519081016040528093929190818152602001838380828437820191505050505050919291929080359060200190929190505050610946565b005b3480156101d057600080fd5b5061025d600480360381019080803590602001908201803590602001908080601f01602080910402602001604051908101604052809392919081815260200183838082843782019150505050505091929192908035906020019092919080359060200190929190803590602001909291908035906020019092919080359060200190929190505050610af8565b005b34801561026b57600080fd5b5061028a60048036038101908080359060200190929190505050610e5c565b60405180898152602001806020018873ffffffffffffffffffffffffffffffffffffffff1673ffffffffffffffffffffffffffffffffffffffff16815260200187815260200186815260200185815260200184815260200183151515158152602001828103825289818151815260200191508051906020019080838360005b83811015610324578082015181840152602081019050610309565b50505050905090810190601f1680156103515780820380516001836020036101000a031916815260200191505b50995050505050505050505060405180910390f35b34801561037257600080fd5b506103b160048036038101908080359060200190929190803573ffffffffffffffffffffffffffffffffffffffff169060200190929190505050610fdd565b005b60003373ffffffffffffffffffffffffffffffffffffffff166000809054906101000a900473ffffffffffffffffffffffffffffffffffffffff1673ffffffffffffffffffffffffffffffffffffffff1614151561041057600080fd5b600073ffffffffffffffffffffffffffffffffffffffff168273ffffffffffffffffffffffffffffffffffffffff161415151561044c57600080fd5b3073ffffffffffffffffffffffffffffffffffffffff168273ffffffffffffffffffffffffffffffffffffffff161415151561048757600080fd5b81600560006101000a81548173ffffffffffffffffffffffffffffffffffffffff021916908373ffffffffffffffffffffffffffffffffffffffff160217905550600560009054906101000a900473ffffffffffffffffffffffffffffffffffffffff16600660006101000a81548173ffffffffffffffffffffffffffffffffffffffff021916908373ffffffffffffffffffffffffffffffffffffffff160217905550600660009054906101000a900473ffffffffffffffffffffffffffffffffffffffff1673ffffffffffffffffffffffffffffffffffffffff1663b93f9b0a60026040518263ffffffff167c010000000000000000000000000000000000000000000000000000000002815260040180828152602001915050602060405180830381600087803b1580156105bd57600080fd5b505af11580156105d1573d6000803e3d6000fd5b505050506040513d60208110156105e757600080fd5b8101908080519060200190929190505050600760006101000a81548173ffffffffffffffffffffffffffffffffffffffff021916908373ffffffffffffffffffffffffffffffffffffffff160217905550600760009054906101000a900473ffffffffffffffffffffffffffffffffffffffff16600860006101000a81548173ffffffffffffffffffffffffffffffffffffffff021916908373ffffffffffffffffffffffffffffffffffffffff160217905550919050565b6000806000806000868060001080156106bb57506001548111155b15156106c657600080fd5b60026000828152602001908152602001600020600a0160019054906101000a900460ff1615156106f557600080fd5b3373ffffffffffffffffffffffffffffffffffffffff166002600083815260200190815260200160002060020160009054906101000a900473ffffffffffffffffffffffffffffffffffffffff1673ffffffffffffffffffffffffffffffffffffffff1614151561076557600080fd5b60026000898152602001908152602001600020955085600a0160019054906101000a900460ff16156108a6576000945060009350856003019250600091505b8280549050821015610831578673ffffffffffffffffffffffffffffffffffffffff1683838154811015156107d557fe5b9060005260206000200160009054906101000a900473ffffffffffffffffffffffffffffffffffffffff1673ffffffffffffffffffffffffffffffffffffffff16141561082457600194508193505b81806001019250506107a4565b8415156108a557856003018790806001815401808255809150509060018203906000526020600020016000909192909190916101000a81548173ffffffffffffffffffffffffffffffffffffffff021916908373ffffffffffffffffffffffffffffffffffffffff160217905550506108a7565b5b5b5050505050505050565b3373ffffffffffffffffffffffffffffffffffffffff166000809054906101000a900473ffffffffffffffffffffffffffffffffffffffff1673ffffffffffffffffffffffffffffffffffffffff1614151561090c57600080fd5b6000809054906101000a900473ffffffffffffffffffffffffffffffffffffffff1673ffffffffffffffffffffffffffffffffffffffff16ff5b600083600080600083600010801561096057506001548411155b151561096b57600080fd5b60026000858152602001908152602001600020600a0160019054906101000a900460ff16151561099a57600080fd5b60009250600260008581526020019081526020016000206003019150600090505b8180549050811015610a45573373ffffffffffffffffffffffffffffffffffffffff1682828154811015156109ec57fe5b9060005260206000200160009054906101000a900473ffffffffffffffffffffffffffffffffffffffff1673ffffffffffffffffffffffffffffffffffffffff161415610a3857600192505b80806001019150506109bb565b821515610a5157600080fd5b60026000898152602001908152602001600020945086856001019080519060200190610a7e929190611252565b50858560050154141515610aed57610a9e856005015486600001546111c0565b6004600087815260200190815260200160002085600001549080600181540180825580915050906001820390600052602060002001600090919290919091505550858560050181905550610aee565b5b5050505050505050565b610b006112d2565b6001806000828254019250508190555060015481600001818152505086816020018190525033816040019073ffffffffffffffffffffffffffffffffffffffff16908173ffffffffffffffffffffffffffffffffffffffff1681525050858160a0018181525050600181610140019015159081151581525050600181610160019015159081151581525050848160c0018181525050838160e001818152505082816101000181815250508181610120018181525050806002600083600001518152602001908152602001600020600082015181600001556020820151816001019080519060200190610bf392919061134e565b5060408201518160020160006101000a81548173ffffffffffffffffffffffffffffffffffffffff021916908373ffffffffffffffffffffffffffffffffffffffff1602179055506060820151816003019080519060200190610c579291906113ce565b506080820151816004019080519060200190610c749291906113ce565b5060a0820151816005015560c0820151816006015560e082015181600701556101008201518160080155610120820151816009015561014082015181600a0160006101000a81548160ff02191690831515021790555061016082015181600a0160016101000a81548160ff021916908315150217905550905050600360003373ffffffffffffffffffffffffffffffffffffffff1673ffffffffffffffffffffffffffffffffffffffff16815260200190815260200160002081600001519080600181540180825580915050906001820390600052602060002001600090919290919091505550600460008781526020019081526020016000208160000151908060018154018082558091505090600182039060005260206000200160009091929091909150555060026000826000015181526020019081526020016000206003013390806001815401808255809150509060018203906000526020600020016000909192909190916101000a81548173ffffffffffffffffffffffffffffffffffffffff021916908373ffffffffffffffffffffffffffffffffffffffff160217905550507fa79d82e7357ca79a1b69fcc3bfae2223e25fa362d0648efd4070642307148e7c6001546040518082815260200191505060405180910390a150505050505050565b600060606000806000806000806000896000816000108015610e8057506001548211155b1515610e8b57600080fd5b60026000838152602001908152602001600020905080600a0160019054906101000a900460ff161515610ebd57600080fd5b600260008d8152602001908152602001600020925082600001549a50826001018054600181600116156101000203166002900480601f016020809104026020016040519081016040528092919081815260200182805460018160011615610100020316600290048015610f715780601f10610f4657610100808354040283529160200191610f71565b820191906000526020600020905b815481529060010190602001808311610f5457829003601f168201915b505050505099508260020160009054906101000a900473ffffffffffffffffffffffffffffffffffffffff1698508260060154975082600701549650826008015495508260090154945082600a0160009054906101000a900460ff169350505050919395975091939597565b600080600080600086806000108015610ff857506001548111155b151561100357600080fd5b60026000828152602001908152602001600020600a0160019054906101000a900460ff16151561103257600080fd5b3373ffffffffffffffffffffffffffffffffffffffff166002600083815260200190815260200160002060020160009054906101000a900473ffffffffffffffffffffffffffffffffffffffff1673ffffffffffffffffffffffffffffffffffffffff161415156110a257600080fd5b60026000898152602001908152602001600020955085600a0160019054906101000a900460ff16156111b5576000945060009350856003019250600091505b828054905082101561116e578673ffffffffffffffffffffffffffffffffffffffff16838381548110151561111257fe5b9060005260206000200160009054906101000a900473ffffffffffffffffffffffffffffffffffffffff1673ffffffffffffffffffffffffffffffffffffffff16141561116157600194508193505b81806001019250506110e1565b84156111b457828481548110151561118257fe5b9060005260206000200160006101000a81549073ffffffffffffffffffffffffffffffffffffffff02191690556111b6565b5b5b5050505050505050565b6000806000600460008681526020019081526020016000209250600090505b828054905081101561121c578383828154811015156111fa57fe5b9060005260206000200154141561120f578091505b80806001019150506111df565b8280549050821415151561122f57600080fd5b828281548110151561123d57fe5b90600052602060002001600090555050505050565b828054600181600116156101000203166002900490600052602060002090601f016020900481019282601f1061129357805160ff19168380011785556112c1565b828001600101855582156112c1579182015b828111156112c05782518255916020019190600101906112a5565b5b5090506112ce9190611458565b5090565b610180604051908101604052806000815260200160608152602001600073ffffffffffffffffffffffffffffffffffffffff168152602001606081526020016060815260200160008152602001600081526020016000815260200160008152602001600081526020016000151581526020016000151581525090565b828054600181600116156101000203166002900490600052602060002090601f016020900481019282601f1061138f57805160ff19168380011785556113bd565b828001600101855582156113bd579182015b828111156113bc5782518255916020019190600101906113a1565b5b5090506113ca9190611458565b5090565b828054828255906000526020600020908101928215611447579160200282015b828111156114465782518260006101000a81548173ffffffffffffffffffffffffffffffffffffffff021916908373ffffffffffffffffffffffffffffffffffffffff160217905550916020019190600101906113ee565b5b509050611454919061147d565b5090565b61147a91905b8082111561147657600081600090555060010161145e565b5090565b90565b6114bd91905b808211156114b957600081816101000a81549073ffffffffffffffffffffffffffffffffffffffff021916905550600101611483565b5090565b905600a165627a7a7230582088afa2fd0e6230d53444e5c5713cb9e604a85f45f0a200c4871d80a57e9d36f10029",
  "source": "pragma solidity ^0.4.19;\n\nimport \"../core/OkeyDokey.sol\";\nimport \"./Devices.sol\";\n\ncontract Houses {\n\n    /** Admin of this contract. */\n    address private admin;\n\n    /** Running count of house ids. Smallest valid house index is 1. */\n    uint256 houseId = 0;\n\n    /** Map of house ids to each corresponding house. */\n    mapping(uint256 => House) private houses;\n\n    /** Map of addresses to ids of houses it owns. */\n    mapping(address => uint256[]) private housesOf;\n\n    /** Map of a grid's id to houses located in that particular grid. */\n    mapping(uint256 => uint256[]) private housesInGrid;\n\n    /** Address of OkeyDokey contract. */\n    address private okeydokeyAddress;\n\n    /** Instance of OkeyDokey contract. */\n    OkeyDokey private okeydokey;\n\n    /** Address of Devices contract. */\n    address private devicesAddress;\n\n    /** Instance of Devices contract. */\n    Devices private devices;\n\n    /** Structure of a house. */\n    struct House {\n\n        /* House info */\n        uint256 id;\n        bytes bzzHash;\n\n        /* Owner info */\n        address host;\n        address[] administrators;\n\n        /* Smart devices */\n        address[] devices;\n\n        /* Location */\n        uint256 gridId;\n\n        /* Prices */\n        uint256 hourlyRate;\n        uint256 dailyRate;\n        uint256 utilityFee;\n        uint256 cleaningFee;\n\n        /* Logistics */\n        bool active;\n        bool valid;\n    }\n\n    /**\n     * Modifier for functions only smart contract owner(admin) can run.\n     */\n    modifier OkeyDokeyAdmin() {\n\n        /* Verify admin. */\n        require(admin == msg.sender);\n\n        _;\n    }\n\n    /**\n     * Modifier for functions only OkeyDokey smart contracts can run.\n     * \n     * @param _addr The address to check.\n     */\n    modifier system(address _addr) {\n\n        /* Verify admin. */\n        require(okeydokey.isAdmin(_addr));\n\n        _;\n    }\n\n    /**\n     * Modifier for functions only house host(owner) can run.\n     *\n     * @param id The id of house being manipulated.\n     */\n    modifier onlyHost(uint256 id) {\n\n        require(0 < id && id <= houseId);\n        require(houses[id].valid);\n\n        /* Verify owner. */\n        require(houses[id].host == msg.sender);\n\n        _;\n    }\n\n    /**\n     * Modifier for functions only house admins can run.\n     * \n     * @param id The id of house being manipulated.\n     */\n    modifier onlyAdmins(uint256 id) {\n\n        require(0 < id && id <= houseId);\n        require(houses[id].valid);\n        \n        /* Search for admin address. */\n        bool found = false;\n        address[] storage admins = houses[id].administrators;\n        for (uint256 i=0; i < admins.length; i++) {\n            if (admins[i] == msg.sender) {\n                found = true;\n            }\n        }\n\n        require(found);\n\n        _;\n    }\n\n    /**\n     * Modifier for checking valid house.\n     *\n     * @param id The id of house to check.\n     */\n    modifier validHouse(uint256 id) {\n        require(0 < id && id <= houseId);\n\n        House storage house = houses[id]; \n\n        require(house.valid);  \n\n        _;\n    }\n\n    /**\n     * Broadcast registration of new house.\n     *\n     * @param id Id of the new house.\n     */\n     event NewHouse(uint256 id);\n\n    /**\n     * Constrctor function.\n     *\n     * Assign contract owner (admin).\n     *\n     */\n    function Houses() public {\n        admin = msg.sender;\n    }\n\n    /**\n     * Initialize other OKDK contracts this contract depends on.\n     *\n     * @param _okeydokeyAddress The address of main application contract.\n     */\n    function initializeContracts(address _okeydokeyAddress)\n        OkeyDokeyAdmin public returns (bool success) {\n        require(_okeydokeyAddress != address(0));\n        require(_okeydokeyAddress != address(this));\n\n        okeydokeyAddress = _okeydokeyAddress;\n        okeydokey = OkeyDokey(okeydokeyAddress);\n\n        devicesAddress = okeydokey.getAddress(2);\n        devices = Devices(devicesAddress);\n    }\n\n    /**\n     * Register and list a new house.\n     *\n     * @param bzzHash Swarm identifier of JSON file containing house info.\n     * @param gridId Id within the Earth's grid.\n     * @param hourlyRate Hourly fee in KEY tokens.\n     * @param dailyRate Daily fee in KEY tokens.\n     * @param utilityFee Utility fee in KEY tokens.\n     * @param cleaningFee Cleaning fee in KEY tokens.\n     * @return success Whether the registration was successful.\n     */\n    function registerHouse(bytes bzzHash, uint256 gridId, \n                           uint256 hourlyRate, uint256 dailyRate, \n                           uint256 utilityFee, uint256 cleaningFee) public {\n\n        // TODO: more contraints\n        // ex: require(bzzHash.length != 0);\n\n        /* Smallest houseId is 1 */\n        houseId += 1;\n\n        House memory house;\n\n        house.id = houseId;\n        house.bzzHash = bzzHash;\n\n        house.host = msg.sender;\n        house.gridId = gridId;\n\n        /* Logistics */\n        house.active = true;\n        house.valid = true;\n\n        /* Prices */\n        house.hourlyRate = hourlyRate;\n        house.dailyRate = dailyRate;\n        house.utilityFee = utilityFee;\n        house.cleaningFee = cleaningFee;\n\n        /* Save newly created house to storage. */\n        houses[house.id] = house;\n        housesOf[msg.sender].push(house.id);\n        housesInGrid[gridId].push(house.id);\n\n        /* Add host as administrator as well */\n        houses[house.id].administrators.push(msg.sender);\n\n        NewHouse(houseId);\n    } \n    \n    /**\n     * Edit a listed house.\n     *\n     * @param id The id of the house to edit.\n     * @param bzzHash Swarm identifier of JSON file containing house info.\n     * @param gridId Id within the Earth's grid.\n     */\n    function editHouse(uint256 id, bytes bzzHash, uint256 gridId) onlyAdmins(id) public {\n\n        House storage house = houses[id]; \n\n        house.bzzHash = bzzHash;\n\n        /* If gridId is different from the previous one, update gridId */\n        if(house.gridId != gridId) {\n            /* Remove house from previous grid group */\n            removeFromGrid(house.gridId, house.id);\n\n            /* Add house to new grid group. */\n            housesInGrid[gridId].push(house.id);\n\n            /* Update location. */\n            house.gridId = gridId;\n\n            return;\n        }\n    }\n\n    /**\n     * Remove houseId from grid.\n     *\n     * Helper function for editHouse. \n     *\n     * @param prevGridId The id of the grid to erase house from.\n     * @param id The id of the house to erase.\n     * @return success Whether the operation was successful.\n     */\n    function removeFromGrid(uint256 prevGridId, uint256 id) internal {\n\n        uint256[] storage houseIds = housesInGrid[prevGridId];\n        uint256 toErase;\n        for (uint256 i=0; i < houseIds.length; i++) {\n            if (houseIds[i] == id) {\n                toErase = i;\n            }\n        }\n\n        /* Double check if there exists house id in grid group */        \n        require(toErase != houseIds.length);\n\n        // TODO: currently, this leaves a gap (deleting simply makes element 0)\n        delete houseIds[toErase];\n    }\n\n    /**\n     * Add administrator to house.\n     *\n     * @param id Id of house to edit.\n     * @param newAdmin The address of new admin.\n     */\n    function addAdministrator(uint256 id, address newAdmin) onlyHost(id) public {\n\n        House storage house = houses[id];\n\n        if (house.valid) {\n            bool found = false;\n            uint256 index = 0;\n            address[] storage admins = house.administrators;\n\n            /* Search for previous entry */\n            for (uint256 i=0; i < admins.length; i++) {\n                if (admins[i] == newAdmin) {\n                    found = true;\n                    index = i;\n                }\n            }\n\n            if (!found) {\n                house.administrators.push(newAdmin);\n                return;\n            }\n        }\n    }\n\n    /**\n     * Remove administrator from house.\n     *\n     * @param id Id of house to query.\n     * @param toDelete The address of admin to delete.\n     */\n    function removeAdministrator(uint256 id, address toDelete) onlyHost(id) public {\n\n        House storage house = houses[id];\n\n        if (house.valid) {\n\n            bool found = false;\n            uint256 index = 0;\n            address[] storage admins = house.administrators;\n\n            /* Search for previous entry */\n            for (uint256 i=0; i < admins.length; i++) {\n                if (admins[i] == toDelete) {\n                    found = true;\n                    index = i;\n                }\n            }\n\n            if (found) {\n                // TODO: currently, this leaves a gap (deleting simply makes element 0)\n                delete admins[index];\n                return;\n            }\n        }\n    }\n\n    /**\n     * Fetch house information.\n     *\n     * @param _id The id of the house to query.\n     * @return id Id of the house.\n     * @return bzzHash Swarm identifier of JSON file containing house info.\n     * @return host Address of the host.\n     * @return hourlyRate Hourly fee in KEY tokens.\n     * @return dailyRate Daily fee in KEY tokens.\n     * @return utilityFee Utility fee in KEY tokens.\n     * @return cleaningFee Cleaning fee in KEY tokens.\n     * @return active Whether the listing is active.\n     */\n    function getHouseInfo(uint256 _id) validHouse(_id) public view\n        returns (uint256 id, bytes bzzHash, \n                 address host, uint256 hourlyRate, uint256 dailyRate, \n                 uint256 utilityFee, uint256 cleaningFee, bool active) {\n\n        House storage house = houses[_id]; \n\n        id = house.id;\n        bzzHash = house.bzzHash;\n        host = house.host;\n        hourlyRate = house.hourlyRate;\n        dailyRate = house.dailyRate;\n        utilityFee = house.utilityFee;\n        cleaningFee = house.cleaningFee;\n        active = house.active;\n    } \n\n    /**\n     * Self destruct.\n     */\n    function kill() OkeyDokeyAdmin public { \n        selfdestruct(admin); \n    }\n\n}",
  "sourcePath": "/home/seongmin/okeydokey/contracts/rental/Houses.sol",
  "compiler": {
    "name": "solc",
    "version": "0.4.24+commit.e67f0147.Emscripten.clang"
  },
  "schemaVersion": "2.0.0",
  "updatedAt": "2018-06-04T20:22:05.945Z"
}