{
  "contractName": "Hubs",
  "abi": [
    {
      "inputs": [],
      "payable": false,
      "stateMutability": "nonpayable",
      "type": "constructor"
    },
    {
      "constant": false,
      "inputs": [
        {
          "name": "_okeyDokeyAddress",
          "type": "address"
        }
      ],
      "name": "initializeContracts",
      "outputs": [
        {
          "name": "success",
          "type": "bool"
        }
      ],
      "payable": false,
      "stateMutability": "nonpayable",
      "type": "function"
    },
    {
      "constant": false,
      "inputs": [
        {
          "name": "owner",
          "type": "address"
        },
        {
          "name": "facilityId",
          "type": "bytes32"
        }
      ],
      "name": "registerHub",
      "outputs": [],
      "payable": false,
      "stateMutability": "nonpayable",
      "type": "function"
    },
    {
      "constant": false,
      "inputs": [
        {
          "name": "hubAddress",
          "type": "address"
        },
        {
          "name": "macAddress",
          "type": "bytes"
        },
        {
          "name": "name",
          "type": "bytes32"
        }
      ],
      "name": "registerDevice",
      "outputs": [],
      "payable": false,
      "stateMutability": "nonpayable",
      "type": "function"
    },
    {
      "constant": false,
      "inputs": [],
      "name": "kill",
      "outputs": [],
      "payable": false,
      "stateMutability": "nonpayable",
      "type": "function"
    }
  ],
  "bytecode": "0x608060405234801561001057600080fd5b50336000806101000a81548173ffffffffffffffffffffffffffffffffffffffff021916908373ffffffffffffffffffffffffffffffffffffffff160217905550610790806100606000396000f300608060405260043610610062576000357c0100000000000000000000000000000000000000000000000000000000900463ffffffff16806312bb06041461006757806341c0e1b5146100c2578063a4ca1cc4146100d9578063b6e4716b14610170575b600080fd5b34801561007357600080fd5b506100a8600480360381019080803573ffffffffffffffffffffffffffffffffffffffff1690602001909291905050506101c1565b604051808215151515815260200191505060405180910390f35b3480156100ce57600080fd5b506100d7610342565b005b3480156100e557600080fd5b5061016e600480360381019080803573ffffffffffffffffffffffffffffffffffffffff169060200190929190803590602001908201803590602001908080601f016020809104026020016040519081016040528093929190818152602001838380828437820191505050505050919291929080356000191690602001909291905050506103d3565b005b34801561017c57600080fd5b506101bf600480360381019080803573ffffffffffffffffffffffffffffffffffffffff16906020019092919080356000191690602001909291905050506105fb565b005b60003373ffffffffffffffffffffffffffffffffffffffff166000809054906101000a900473ffffffffffffffffffffffffffffffffffffffff1673ffffffffffffffffffffffffffffffffffffffff1614151561021e57600080fd5b600073ffffffffffffffffffffffffffffffffffffffff168273ffffffffffffffffffffffffffffffffffffffff161415151561025a57600080fd5b3073ffffffffffffffffffffffffffffffffffffffff168273ffffffffffffffffffffffffffffffffffffffff161415151561029557600080fd5b81600660006101000a81548173ffffffffffffffffffffffffffffffffffffffff021916908373ffffffffffffffffffffffffffffffffffffffff160217905550600660009054906101000a900473ffffffffffffffffffffffffffffffffffffffff16600760006101000a81548173ffffffffffffffffffffffffffffffffffffffff021916908373ffffffffffffffffffffffffffffffffffffffff16021790555060019050919050565b6000809054906101000a900473ffffffffffffffffffffffffffffffffffffffff1673ffffffffffffffffffffffffffffffffffffffff163373ffffffffffffffffffffffffffffffffffffffff1614156103d1576000809054906101000a900473ffffffffffffffffffffffffffffffffffffffff1673ffffffffffffffffffffffffffffffffffffffff16ff5b565b60006103dd610744565b600160008673ffffffffffffffffffffffffffffffffffffffff1673ffffffffffffffffffffffffffffffffffffffff16815260200190815260200160002060009054906101000a900473ffffffffffffffffffffffffffffffffffffffff1673ffffffffffffffffffffffffffffffffffffffff163373ffffffffffffffffffffffffffffffffffffffff1614151561047657600080fd5b8484604051808373ffffffffffffffffffffffffffffffffffffffff1673ffffffffffffffffffffffffffffffffffffffff166c0100000000000000000000000002815260140182805190602001908083835b6020831015156104ee57805182526020820191506020810190506020830392506104c9565b6001836020036101000a038019825116818451168082178552505050505050905001925050506040518091039020915081816000019060001916908160001916815250508281602001906000191690816000191681525050806005600084600019166000191681526020019081526020016000206000820151816000019060001916905560208201518160010190600019169055905050600460008673ffffffffffffffffffffffffffffffffffffffff1673ffffffffffffffffffffffffffffffffffffffff1681526020019081526020016000208290806001815401808255809150509060018203906000526020600020016000909192909190915090600019169055505050505050565b81600160003373ffffffffffffffffffffffffffffffffffffffff1673ffffffffffffffffffffffffffffffffffffffff16815260200190815260200160002060006101000a81548173ffffffffffffffffffffffffffffffffffffffff021916908373ffffffffffffffffffffffffffffffffffffffff16021790555080600260003373ffffffffffffffffffffffffffffffffffffffff1673ffffffffffffffffffffffffffffffffffffffff16815260200190815260200160002081600019169055506003600082600019166000191681526020019081526020016000203390806001815401808255809150509060018203906000526020600020016000909192909190916101000a81548173ffffffffffffffffffffffffffffffffffffffff021916908373ffffffffffffffffffffffffffffffffffffffff160217905550505050565b6040805190810160405280600080191681526020016000801916815250905600a165627a7a723058203e06e23805af24d61b3eeaf6cb83f3ba558c49b31196ad866c8e43c107be37010029",
  "source": "pragma solidity ^0.4.19;\n\nimport \"../OkeyDokey.sol\";\n\ncontract Hubs {\n\n    /** Admin of this contract. */\n    address private admin;\n\n    /** Hub address to owner's address. */\n    mapping (address => address) private ownerOf;\n\n    /** Hub address to its facility id. */\n    mapping (address => bytes32) private facilityOf;\n\n    /** Facility id to list of hubs. */\n    mapping (bytes32 => address[]) private hubsIn;\n\n    /** Hub address to its device ids */\n    mapping (address => bytes32[]) devicesOf;\n\n    /** Device id to device */\n    mapping (bytes32 => Device) private devices;\n\n    /** Address of OkeyDokey contract. */\n    address private okeyDokeyAddress;\n\n    /** Instance of OkeyDokey contract. */\n    OkeyDokey private okeyDokey;\n\n    /** Definition of a device attached to the hub. */\n    struct Device {\n        bytes32 id; // Hash of hub address and connected device's mac address.\n        bytes32 name;\n    }\n\n    /**\n     * Modifier for functions only smart contract owner(admin) can run.\n     */\n    modifier OkeyDokeyAdmin() {\n\n        /* Verify admin. */\n        require(admin == msg.sender);\n\n        _;\n    }\n\n    /**\n     * Constrctor function.\n     *\n     * Set the admin.\n     */\n    function Hubs() public {\n        admin = msg.sender;\n    }\n\n    /**\n     * Initialize other OKDK contracts this contract depends on.\n     *\n     * @param _okeyDokeyAddress The address of main application contract.\n     * @return success Whether the initialization was successful.\n     */\n    function initializeContracts(address _okeyDokeyAddress) \n        OkeyDokeyAdmin public returns (bool success) {\n        require(_okeyDokeyAddress != address(0));\n        require(_okeyDokeyAddress != address(this));\n\n        okeyDokeyAddress = _okeyDokeyAddress;\n        okeyDokey = OkeyDokey(okeyDokeyAddress);\n\n        return true;\n    }\n\n    /**\n     * Register a hub to a facility. Called from the hub.\n     *\n     * @param owner Owner of the hub and facility.\n     * @param facilityId Id of the facility this hub belongs in.\n     */\n    function registerHub(address owner, bytes32 facilityId) public {\n        ownerOf[msg.sender] = owner;\n        facilityOf[msg.sender] = facilityId;\n        hubsIn[facilityId].push(msg.sender);\n    }\n\n    /**\n     * Add a device to a hub.\n     *\n     * @param hubAddress Address of hub to add the device to.\n     * @param macAddress MAC address of device.\n     * @param name Name of the device.\n     */\n    function registerDevice(address hubAddress, bytes macAddress, bytes32 name) public {\n\n        require(msg.sender == ownerOf[hubAddress]);\n\n        bytes32 deviceId = keccak256(hubAddress, macAddress);\n\n        /* Create new device instance. */\n        Device memory device;\n        device.id = deviceId;\n        device.name = name;\n\n        /* Save to memory. */\n        devices[deviceId] = device;\n        devicesOf[hubAddress].push(deviceId);\n    }\n\n    /**\n     * Self destruct.\n     */\n    function kill() public { \n        if (msg.sender == admin) selfdestruct(admin); \n    }\n\n}",
  "sourcePath": "/home/seongmin/okeydokey/contracts/core/access/Hubs.sol",
  "compiler": {
    "name": "solc",
    "version": "0.4.24+commit.e67f0147.Emscripten.clang"
  },
  "schemaVersion": "2.0.0",
  "updatedAt": "2018-06-05T01:08:04.344Z"
}