{
  "contractName": "IterableMapping",
  "abi": [
    {
      "constant": false,
      "inputs": [
        {
          "name": "self",
          "type": "IterableMapping.itmap storage"
        },
        {
          "name": "key",
          "type": "bytes32"
        },
        {
          "name": "value",
          "type": "address[5]"
        }
      ],
      "name": "insert",
      "outputs": [
        {
          "name": "replaced",
          "type": "bool"
        }
      ],
      "payable": false,
      "stateMutability": "nonpayable",
      "type": "function"
    },
    {
      "constant": false,
      "inputs": [
        {
          "name": "self",
          "type": "IterableMapping.itmap storage"
        },
        {
          "name": "key",
          "type": "bytes32"
        }
      ],
      "name": "remove",
      "outputs": [
        {
          "name": "success",
          "type": "bool"
        }
      ],
      "payable": false,
      "stateMutability": "nonpayable",
      "type": "function"
    },
    {
      "constant": true,
      "inputs": [
        {
          "name": "self",
          "type": "IterableMapping.itmap storage"
        },
        {
          "name": "key",
          "type": "bytes32"
        }
      ],
      "name": "contains",
      "outputs": [
        {
          "name": "",
          "type": "bool"
        }
      ],
      "payable": false,
      "stateMutability": "view",
      "type": "function"
    },
    {
      "constant": true,
      "inputs": [
        {
          "name": "self",
          "type": "IterableMapping.itmap storage"
        }
      ],
      "name": "iterate_start",
      "outputs": [
        {
          "name": "keyIndex",
          "type": "uint256"
        }
      ],
      "payable": false,
      "stateMutability": "view",
      "type": "function"
    },
    {
      "constant": true,
      "inputs": [
        {
          "name": "self",
          "type": "IterableMapping.itmap storage"
        },
        {
          "name": "keyIndex",
          "type": "uint256"
        }
      ],
      "name": "iterate_valid",
      "outputs": [
        {
          "name": "",
          "type": "bool"
        }
      ],
      "payable": false,
      "stateMutability": "view",
      "type": "function"
    },
    {
      "constant": true,
      "inputs": [
        {
          "name": "self",
          "type": "IterableMapping.itmap storage"
        },
        {
          "name": "keyIndex",
          "type": "uint256"
        }
      ],
      "name": "iterate_next",
      "outputs": [
        {
          "name": "r_keyIndex",
          "type": "uint256"
        }
      ],
      "payable": false,
      "stateMutability": "view",
      "type": "function"
    },
    {
      "constant": true,
      "inputs": [
        {
          "name": "self",
          "type": "IterableMapping.itmap storage"
        },
        {
          "name": "keyIndex",
          "type": "uint256"
        }
      ],
      "name": "iterate_get",
      "outputs": [
        {
          "name": "key",
          "type": "bytes32"
        },
        {
          "name": "value",
          "type": "address[5]"
        }
      ],
      "payable": false,
      "stateMutability": "view",
      "type": "function"
    }
  ],
  "bytecode": "0x6107e7610030600b82828239805160001a6073146000811461002057610022565bfe5b5030600052607381538281f300730000000000000000000000000000000000000000301460806040526004361061009a576000357c0100000000000000000000000000000000000000000000000000000000900463ffffffff16806375a3e8e81461009f57806388d04437146101145780638c69b24014610152578063a21ab716146101a5578063b47e169d146101d9578063c8fccc691461021f578063e9ef9e8114610261575b600080fd5b6100c760048036038101908080359060200190929190803590602001909291905050506102e3565b60405180836000191660001916815260200182600560200280838360005b838110156101005780820151818401526020810190506100e5565b505050509050019250505060405180910390f35b61013c60048036038101908080359060200190929190803590602001909291905050506103ad565b6040518082815260200191505060405180910390f35b81801561015e57600080fd5b5061018b600480360381019080803590602001909291908035600019169060200190929190505050610415565b604051808215151515815260200191505060405180910390f35b6101c3600480360381019080803590602001909291905050506104e0565b6040518082815260200191505060405180910390f35b610205600480360381019080803590602001909291908035600019169060200190929190505050610513565b604051808215151515815260200191505060405180910390f35b6102476004803603810190808035906020019092919080359060200190929190505050610540565b604051808215151515815260200191505060405180910390f35b81801561026d57600080fd5b506102c96004803603810190808035906020019092919080356000191690602001909291908060a00190600580602002604051908101604052809291908260056020028082843782019150505050509192919290505050610554565b604051808215151515815260200191505060405180910390f35b60006102ed610648565b83600101838154811015156102fe57fe5b9060005260206000209060020201600001549150836000016000836000191660001916815260200190815260200160002060010160058060200260405190810160405280929190826005801561039f576020028201915b8160009054906101000a900473ffffffffffffffffffffffffffffffffffffffff1673ffffffffffffffffffffffffffffffffffffffff1681526020019060010190808311610355575b505050505090509250929050565b600081806001019250505b8260010180549050821080156103fa575082600101828154811015156103da57fe5b906000526020600020906002020160010160009054906101000a900460ff165b1561040c5781806001019250506103b8565b81905092915050565b6000808360000160008460001916600019168152602001908152602001600020600001549050600081141561044d57600091506104d9565b8360000160008460001916600019168152602001908152602001600020600080820160009055600182016000610483919061066b565b50506001846001016001830381548110151561049b57fe5b906000526020600020906002020160010160006101000a81548160ff0219169083151502179055508360020160008154809291906001900391905055505b5092915050565b600061050c827fffffffffffffffffffffffffffffffffffffffffffffffffffffffffffffffff6103ad565b9050919050565b60008083600001600084600019166000191681526020019081526020016000206000015411905092915050565b600082600101805490508210905092915050565b60008084600001600085600019166000191681526020019081526020016000206000015490508285600001600086600019166000191681526020019081526020016000206001019060056105a992919061068e565b5060008111156105bc5760019150610640565b8460010180548091906001016105d2919061070b565b90506001810185600001600086600019166000191681526020019081526020016000206000018190555083856001018281548110151561060e57fe5b906000526020600020906002020160000181600019169055508460020160008154809291906001019190505550600091505b509392505050565b60a060405190810160405280600590602082028038833980820191505090505090565b506000815560010160008155600101600081556001016000815560010160009055565b82600581019282156106fa579160200282015b828111156106f95782518260006101000a81548173ffffffffffffffffffffffffffffffffffffffff021916908373ffffffffffffffffffffffffffffffffffffffff160217905550916020019190600101906106a1565b5b509050610707919061073d565b5090565b815481835581811115610738576002028160020283600052602060002091820191016107379190610780565b5b505050565b61077d91905b8082111561077957600081816101000a81549073ffffffffffffffffffffffffffffffffffffffff021916905550600101610743565b5090565b90565b6107b891905b808211156107b4576000808201600090556001820160006101000a81549060ff021916905550600201610786565b5090565b905600a165627a7a723058202aef4ef1f675ed8c7f88e07a80b48e320281c0eb577ce085c468d703736ccdda0029",
  "source": "// This library was provided by the Ethereum foundation.\n\npragma solidity ^0.4.19;\n\n/// @dev Models a uint -> uint mapping where it is possible to iterate over all keys.\nlibrary IterableMapping\n{\n\n  struct itmap\n  {\n    mapping(bytes32 => IndexValue) data;\n    KeyFlag[] keys;\n    uint size;\n  }\n  struct IndexValue { uint keyIndex; address[5] value; }\n  struct KeyFlag { bytes32 key; bool deleted; }\n  function insert(itmap storage self, bytes32 key, address[5] value) public returns (bool replaced)\n  {\n    uint keyIndex = self.data[key].keyIndex;\n    self.data[key].value = value;\n    if (keyIndex > 0)\n      return true;\n    else\n    {\n      keyIndex = self.keys.length++;\n      self.data[key].keyIndex = keyIndex + 1;\n      self.keys[keyIndex].key = key;\n      self.size++;\n      return false;\n    }\n  }\n  function remove(itmap storage self, bytes32 key) public returns (bool success)\n  {\n    uint keyIndex = self.data[key].keyIndex;\n    if (keyIndex == 0)\n      return false;\n    delete self.data[key];\n    self.keys[keyIndex - 1].deleted = true;\n    self.size --;\n  }\n  function contains(itmap storage self, bytes32 key) public view returns (bool)\n  {\n    return self.data[key].keyIndex > 0;\n  }\n  function iterate_start(itmap storage self) public view returns (uint keyIndex)\n  {\n    return iterate_next(self, uint(-1));\n  }\n  function iterate_valid(itmap storage self, uint keyIndex) public view returns (bool)\n  {\n    return keyIndex < self.keys.length;\n  }\n  function iterate_next(itmap storage self, uint keyIndex) public view returns (uint r_keyIndex)\n  {\n    keyIndex++;\n    while (keyIndex < self.keys.length && self.keys[keyIndex].deleted)\n      keyIndex++;\n    return keyIndex;\n  }\n  function iterate_get(itmap storage self, uint keyIndex) public view returns (bytes32 key, address[5] value)\n  {\n    key = self.keys[keyIndex].key;\n    value = self.data[key].value;\n  }\n}",
  "sourcePath": "/home/seongmin/okeydokey/contracts/libs/IterableMapping.sol",
  "compiler": {
    "name": "solc",
    "version": "0.4.24+commit.e67f0147.Emscripten.clang"
  },
  "schemaVersion": "2.0.0",
  "updatedAt": "2018-06-04T20:22:06.336Z"
}