{
  "contractName": "Market",
  "abi": [
    {
      "inputs": [
        {
          "name": "_okeydokeyAddress",
          "type": "address"
        },
        {
          "name": "_listingDBAddress",
          "type": "address"
        }
      ],
      "payable": false,
      "stateMutability": "nonpayable",
      "type": "constructor"
    },
    {
      "constant": false,
      "inputs": [
        {
          "name": "_id",
          "type": "bytes32"
        },
        {
          "name": "_price",
          "type": "uint256"
        }
      ],
      "name": "listItem",
      "outputs": [],
      "payable": false,
      "stateMutability": "nonpayable",
      "type": "function"
    }
  ],
  "bytecode": "0x608060405234801561001057600080fd5b506040516040806101b08339810180604052810190808051906020019092919080519060200190929190505050600073ffffffffffffffffffffffffffffffffffffffff168273ffffffffffffffffffffffffffffffffffffffff161415151561007957600080fd5b3073ffffffffffffffffffffffffffffffffffffffff168273ffffffffffffffffffffffffffffffffffffffff16141515156100b457600080fd5b816000806101000a81548173ffffffffffffffffffffffffffffffffffffffff021916908373ffffffffffffffffffffffffffffffffffffffff160217905550505060ac806101046000396000f300608060405260043610603f576000357c0100000000000000000000000000000000000000000000000000000000900463ffffffff168063bd67b9a2146044575b600080fd5b348015604f57600080fd5b50607a600480360381019080803560001916906020019092919080359060200190929190505050607c565b005b50505600a165627a7a72305820a9f37edb96c54436bf4e77e28161cb27f73234867a43fbb420abf77e6ce7ac710029",
  "source": "pragma solidity ^0.4.19;\n\nimport \"../OkeyDokey.sol\";\nimport \"./TransactionDatabase.sol\";\nimport \"./ListingDatabase.sol\";\n\ncontract Market {\n  \n  /** Instance of OkeyDokey contract. */\n  OkeyDokey private okeydokey;\n\n  /** Instance of TransactionDatabase contract. */\n  TransactionDatabase private transactionDB;\n\n  /** Instance of ListingDatabase contract. */\n  ListingDatabase private listingDB;\n\n  /**\n   * Modifier for functions only smart contract admins can run.\n   */\n  modifier onlyAdmin() {\n    require(okeydokey != address(0));\n    require(okeydokey.isAdmin(msg.sender));\n\n    _;\n  }\n\n  /**\n   * Constrctor function. \n   *\n   * Initialize other OKDK contracts this contract depends on.\n   *\n   * @param _okeydokeyAddress The address of main application contract\n   * @param _listingDBAddress The address of database contract for market data\n   */\n  function Market(address _okeydokeyAddress, address _listingDBAddress) public {\n    require(_okeydokeyAddress != address(0));\n    require(_okeydokeyAddress != address(this));\n\n    /* Initialize OkeyDokey. */\n    okeydokey = OkeyDokey(_okeydokeyAddress);\n\n    /* Initialize transaction db. */\n    // address marketDBAddress = okeydokey.getAddress(okeydokey.TRANSACTION_DATABASE);\n    // transactionDB = MarketDatabase(dbAddress);\n\n    /* Initialize listing db. */\n    // address dbAddress = okeydokey.getAddress(okeydokey.MARKET_DATABASE);\n    // listingDB = MarketDatabase(dbAddress);\n  }\n\n  /** \n   * List item on market.\n   */\n  function listItem(bytes32 _id, uint _price) public {\n    // db.write(_id, _price, );\n  }\n\n}",
  "sourcePath": "/home/seongmin/okeydokey/contracts/core/market/Market.sol",
  "compiler": {
    "name": "solc",
    "version": "0.4.24+commit.e67f0147.Emscripten.clang"
  },
  "schemaVersion": "2.0.0",
  "updatedAt": "2018-06-05T01:08:04.345Z"
}