{
  "contractName": "OkeyDokeySale",
  "abi": [
    {
      "constant": true,
      "inputs": [],
      "name": "rate",
      "outputs": [
        {
          "name": "",
          "type": "uint256"
        }
      ],
      "payable": false,
      "stateMutability": "view",
      "type": "function"
    },
    {
      "constant": true,
      "inputs": [],
      "name": "weiRaised",
      "outputs": [
        {
          "name": "",
          "type": "uint256"
        }
      ],
      "payable": false,
      "stateMutability": "view",
      "type": "function"
    },
    {
      "constant": true,
      "inputs": [],
      "name": "closingTime",
      "outputs": [
        {
          "name": "",
          "type": "uint256"
        }
      ],
      "payable": false,
      "stateMutability": "view",
      "type": "function"
    },
    {
      "constant": true,
      "inputs": [],
      "name": "tokensSold",
      "outputs": [
        {
          "name": "",
          "type": "uint256"
        }
      ],
      "payable": false,
      "stateMutability": "view",
      "type": "function"
    },
    {
      "constant": true,
      "inputs": [],
      "name": "wallet",
      "outputs": [
        {
          "name": "",
          "type": "address"
        }
      ],
      "payable": false,
      "stateMutability": "view",
      "type": "function"
    },
    {
      "constant": true,
      "inputs": [
        {
          "name": "",
          "type": "bytes32"
        }
      ],
      "name": "bonusTokensOf",
      "outputs": [
        {
          "name": "",
          "type": "uint256"
        }
      ],
      "payable": false,
      "stateMutability": "view",
      "type": "function"
    },
    {
      "constant": true,
      "inputs": [
        {
          "name": "",
          "type": "bytes32"
        }
      ],
      "name": "contributionOf",
      "outputs": [
        {
          "name": "",
          "type": "uint256"
        }
      ],
      "payable": false,
      "stateMutability": "view",
      "type": "function"
    },
    {
      "constant": true,
      "inputs": [],
      "name": "bonusRate",
      "outputs": [
        {
          "name": "",
          "type": "uint256"
        }
      ],
      "payable": false,
      "stateMutability": "view",
      "type": "function"
    },
    {
      "constant": true,
      "inputs": [
        {
          "name": "",
          "type": "bytes32"
        }
      ],
      "name": "tokensOf",
      "outputs": [
        {
          "name": "",
          "type": "uint256"
        }
      ],
      "payable": false,
      "stateMutability": "view",
      "type": "function"
    },
    {
      "constant": true,
      "inputs": [],
      "name": "openingTime",
      "outputs": [
        {
          "name": "",
          "type": "uint256"
        }
      ],
      "payable": false,
      "stateMutability": "view",
      "type": "function"
    },
    {
      "constant": true,
      "inputs": [],
      "name": "tokenCap",
      "outputs": [
        {
          "name": "",
          "type": "uint256"
        }
      ],
      "payable": false,
      "stateMutability": "view",
      "type": "function"
    },
    {
      "constant": true,
      "inputs": [],
      "name": "bonusCap",
      "outputs": [
        {
          "name": "",
          "type": "uint256"
        }
      ],
      "payable": false,
      "stateMutability": "view",
      "type": "function"
    },
    {
      "constant": false,
      "inputs": [
        {
          "name": "_beneficiary",
          "type": "address"
        }
      ],
      "name": "buyTokens",
      "outputs": [],
      "payable": true,
      "stateMutability": "payable",
      "type": "function"
    },
    {
      "constant": true,
      "inputs": [],
      "name": "bonusTokensSold",
      "outputs": [
        {
          "name": "",
          "type": "uint256"
        }
      ],
      "payable": false,
      "stateMutability": "view",
      "type": "function"
    },
    {
      "constant": true,
      "inputs": [],
      "name": "token",
      "outputs": [
        {
          "name": "",
          "type": "address"
        }
      ],
      "payable": false,
      "stateMutability": "view",
      "type": "function"
    },
    {
      "inputs": [
        {
          "name": "_rate",
          "type": "uint256"
        },
        {
          "name": "_bonusRate",
          "type": "uint256"
        },
        {
          "name": "_admin",
          "type": "address"
        },
        {
          "name": "_wallet",
          "type": "address"
        },
        {
          "name": "_whitelist",
          "type": "address"
        },
        {
          "name": "_referral",
          "type": "address"
        },
        {
          "name": "_token",
          "type": "address"
        },
        {
          "name": "_tokenCap",
          "type": "uint256"
        },
        {
          "name": "_bonusCap",
          "type": "uint256"
        },
        {
          "name": "_openingTime",
          "type": "uint256"
        },
        {
          "name": "_closingTime",
          "type": "uint256"
        }
      ],
      "payable": false,
      "stateMutability": "nonpayable",
      "type": "constructor"
    },
    {
      "payable": true,
      "stateMutability": "payable",
      "type": "fallback"
    },
    {
      "anonymous": false,
      "inputs": [
        {
          "indexed": true,
          "name": "purchaser",
          "type": "address"
        },
        {
          "indexed": true,
          "name": "beneficiary",
          "type": "address"
        },
        {
          "indexed": false,
          "name": "value",
          "type": "uint256"
        },
        {
          "indexed": false,
          "name": "amount",
          "type": "uint256"
        }
      ],
      "name": "TokenPurchase",
      "type": "event"
    },
    {
      "constant": false,
      "inputs": [
        {
          "name": "_admin",
          "type": "address"
        }
      ],
      "name": "setAdmin",
      "outputs": [],
      "payable": false,
      "stateMutability": "nonpayable",
      "type": "function"
    },
    {
      "constant": false,
      "inputs": [],
      "name": "recoverTokens",
      "outputs": [],
      "payable": false,
      "stateMutability": "nonpayable",
      "type": "function"
    },
    {
      "constant": false,
      "inputs": [
        {
          "name": "_id",
          "type": "bytes32"
        },
        {
          "name": "_address",
          "type": "address"
        }
      ],
      "name": "releaseTokens",
      "outputs": [],
      "payable": false,
      "stateMutability": "nonpayable",
      "type": "function"
    },
    {
      "constant": true,
      "inputs": [],
      "name": "capReached",
      "outputs": [
        {
          "name": "",
          "type": "bool"
        }
      ],
      "payable": false,
      "stateMutability": "view",
      "type": "function"
    },
    {
      "constant": true,
      "inputs": [],
      "name": "hasClosed",
      "outputs": [
        {
          "name": "",
          "type": "bool"
        }
      ],
      "payable": false,
      "stateMutability": "view",
      "type": "function"
    }
  ],
  "bytecode": "0x608060405234801561001057600080fd5b50604051610160806118d283398101806040528101908080519060200190929190805190602001909291908051906020019092919080519060200190929190805190602001909291908051906020019092919080519060200190929190805190602001909291908051906020019092919080519060200190929190805190602001909291905050508a88866000831115156100aa57600080fd5b600073ffffffffffffffffffffffffffffffffffffffff168273ffffffffffffffffffffffffffffffffffffffff16141515156100e657600080fd5b600073ffffffffffffffffffffffffffffffffffffffff168173ffffffffffffffffffffffffffffffffffffffff161415151561012257600080fd5b8260028190555081600160006101000a81548173ffffffffffffffffffffffffffffffffffffffff021916908373ffffffffffffffffffffffffffffffffffffffff160217905550806000806101000a81548173ffffffffffffffffffffffffffffffffffffffff021916908373ffffffffffffffffffffffffffffffffffffffff1602179055505050506000841115156101bc57600080fd5b81811115156101ca57600080fd5b33600460006101000a81548173ffffffffffffffffffffffffffffffffffffffff021916908373ffffffffffffffffffffffffffffffffffffffff16021790555088600560006101000a81548173ffffffffffffffffffffffffffffffffffffffff021916908373ffffffffffffffffffffffffffffffffffffffff16021790555086600960006101000a81548173ffffffffffffffffffffffffffffffffffffffff021916908373ffffffffffffffffffffffffffffffffffffffff16021790555085600a60006101000a81548173ffffffffffffffffffffffffffffffffffffffff021916908373ffffffffffffffffffffffffffffffffffffffff16021790555083600d8190555082600e8190555089600f81905550816010819055508060118190555050505050505050505050506115c78061030b6000396000f300608060405260043610610112576000357c0100000000000000000000000000000000000000000000000000000000900463ffffffff1680631515bc2b1461011d5780632c4e722e1461014c5780634042b66f146101775780634b6753bc146101a25780634f935945146101cd578063518ab2a8146101fc578063521eb27314610227578063572d65201461027e57806359ad5ac5146102c35780635af123f414610308578063704b6c02146103335780639db22f7114610376578063b77f39fe146103bb578063b7a8807c146103d2578063d7d57b52146103fd578063dd54291b1461044e578063e325fb4b14610479578063ec8ac4d8146104a4578063f4a32ef8146104da578063fc0c546a14610505575b61011b3361055c565b005b34801561012957600080fd5b5061013261062a565b604051808215151515815260200191505060405180910390f35b34801561015857600080fd5b50610161610636565b6040518082815260200191505060405180910390f35b34801561018357600080fd5b5061018c61063c565b6040518082815260200191505060405180910390f35b3480156101ae57600080fd5b506101b7610642565b6040518082815260200191505060405180910390f35b3480156101d957600080fd5b506101e2610648565b604051808215151515815260200191505060405180910390f35b34801561020857600080fd5b5061021161066b565b6040518082815260200191505060405180910390f35b34801561023357600080fd5b5061023c610671565b604051808273ffffffffffffffffffffffffffffffffffffffff1673ffffffffffffffffffffffffffffffffffffffff16815260200191505060405180910390f35b34801561028a57600080fd5b506102ad6004803603810190808035600019169060200190929190505050610697565b6040518082815260200191505060405180910390f35b3480156102cf57600080fd5b506102f260048036038101908080356000191690602001909291905050506106af565b6040518082815260200191505060405180910390f35b34801561031457600080fd5b5061031d6106c7565b6040518082815260200191505060405180910390f35b34801561033f57600080fd5b50610374600480360381019080803573ffffffffffffffffffffffffffffffffffffffff1690602001909291905050506106cd565b005b34801561038257600080fd5b506103a56004803603810190808035600019169060200190929190505050610807565b6040518082815260200191505060405180910390f35b3480156103c757600080fd5b506103d061081f565b005b3480156103de57600080fd5b506103e7610ab3565b6040518082815260200191505060405180910390f35b34801561040957600080fd5b5061044c6004803603810190808035600019169060200190929190803573ffffffffffffffffffffffffffffffffffffffff169060200190929190505050610ab9565b005b34801561045a57600080fd5b50610463610c7f565b6040518082815260200191505060405180910390f35b34801561048557600080fd5b5061048e610c85565b6040518082815260200191505060405180910390f35b6104d8600480360381019080803573ffffffffffffffffffffffffffffffffffffffff16906020019092919050505061055c565b005b3480156104e657600080fd5b506104ef610c8b565b6040518082815260200191505060405180910390f35b34801561051157600080fd5b5061051a610c91565b604051808273ffffffffffffffffffffffffffffffffffffffff1673ffffffffffffffffffffffffffffffffffffffff16815260200191505060405180910390f35b60008034915061056c8383610cb6565b61057582610dfa565b905061058c82600354610e1890919063ffffffff16565b60038190555061059c8382610e36565b8273ffffffffffffffffffffffffffffffffffffffff163373ffffffffffffffffffffffffffffffffffffffff167f623b3804fa71d67900d064613da8f94b9617215ee90799290593e1745087ad188484604051808381526020018281526020019250505060405180910390a36106138383610e3a565b61061b610e52565b6106258383610ebd565b505050565b60006011544211905090565b60025481565b60035481565b60115481565b6000600d54610664600c54600b54610e1890919063ffffffff16565b1015905090565b600b5481565b600160009054906101000a900473ffffffffffffffffffffffffffffffffffffffff1681565b60086020528060005260406000206000915090505481565b60066020528060005260406000206000915090505481565b600f5481565b600073ffffffffffffffffffffffffffffffffffffffff16600460009054906101000a900473ffffffffffffffffffffffffffffffffffffffff1673ffffffffffffffffffffffffffffffffffffffff161415151561072b57600080fd5b600460009054906101000a900473ffffffffffffffffffffffffffffffffffffffff1673ffffffffffffffffffffffffffffffffffffffff163373ffffffffffffffffffffffffffffffffffffffff1614151561078757600080fd5b600073ffffffffffffffffffffffffffffffffffffffff168173ffffffffffffffffffffffffffffffffffffffff16141515156107c357600080fd5b80600560006101000a81548173ffffffffffffffffffffffffffffffffffffffff021916908373ffffffffffffffffffffffffffffffffffffffff16021790555050565b60076020528060005260406000206000915090505481565b600073ffffffffffffffffffffffffffffffffffffffff16600460009054906101000a900473ffffffffffffffffffffffffffffffffffffffff1673ffffffffffffffffffffffffffffffffffffffff161415151561087d57600080fd5b600073ffffffffffffffffffffffffffffffffffffffff16600560009054906101000a900473ffffffffffffffffffffffffffffffffffffffff1673ffffffffffffffffffffffffffffffffffffffff16141515156108db57600080fd5b600460009054906101000a900473ffffffffffffffffffffffffffffffffffffffff1673ffffffffffffffffffffffffffffffffffffffff163373ffffffffffffffffffffffffffffffffffffffff1614806109845750600560009054906101000a900473ffffffffffffffffffffffffffffffffffffffff1673ffffffffffffffffffffffffffffffffffffffff163373ffffffffffffffffffffffffffffffffffffffff16145b151561098f57600080fd5b610ab1600460009054906101000a900473ffffffffffffffffffffffffffffffffffffffff166000809054906101000a900473ffffffffffffffffffffffffffffffffffffffff1673ffffffffffffffffffffffffffffffffffffffff166370a08231306040518263ffffffff167c0100000000000000000000000000000000000000000000000000000000028152600401808273ffffffffffffffffffffffffffffffffffffffff1673ffffffffffffffffffffffffffffffffffffffff168152602001915050602060405180830381600087803b158015610a7157600080fd5b505af1158015610a85573d6000803e3d6000fd5b505050506040513d6020811015610a9b57600080fd5b8101908080519060200190929190505050610ec1565b565b60105481565b600073ffffffffffffffffffffffffffffffffffffffff16600460009054906101000a900473ffffffffffffffffffffffffffffffffffffffff1673ffffffffffffffffffffffffffffffffffffffff1614151515610b1757600080fd5b600073ffffffffffffffffffffffffffffffffffffffff16600560009054906101000a900473ffffffffffffffffffffffffffffffffffffffff1673ffffffffffffffffffffffffffffffffffffffff1614151515610b7557600080fd5b600460009054906101000a900473ffffffffffffffffffffffffffffffffffffffff1673ffffffffffffffffffffffffffffffffffffffff163373ffffffffffffffffffffffffffffffffffffffff161480610c1e5750600560009054906101000a900473ffffffffffffffffffffffffffffffffffffffff1673ffffffffffffffffffffffffffffffffffffffff163373ffffffffffffffffffffffffffffffffffffffff16145b1515610c2957600080fd5b610c7b81610c766008600086600019166000191681526020019081526020016000205460076000876000191660001916815260200190815260200160002054610e1890919063ffffffff16565b610ec1565b5050565b600d5481565b600e5481565b600c5481565b6000809054906101000a900473ffffffffffffffffffffffffffffffffffffffff1681565b4260105411158015610cca57506011544211155b1515610cd557600080fd5b610cdd610648565b151515610ce957600080fd5b610cf38282610fa1565b600960009054906101000a900473ffffffffffffffffffffffffffffffffffffffff1673ffffffffffffffffffffffffffffffffffffffff16633f5dc6e5836040518263ffffffff167c0100000000000000000000000000000000000000000000000000000000028152600401808273ffffffffffffffffffffffffffffffffffffffff1673ffffffffffffffffffffffffffffffffffffffff168152602001915050602060405180830381600087803b158015610db057600080fd5b505af1158015610dc4573d6000803e3d6000fd5b505050506040513d6020811015610dda57600080fd5b81019080805190602001909291905050501515610df657600080fd5b5050565b6000610e1160025483610ff190919063ffffffff16565b9050919050565b6000808284019050838110151515610e2c57fe5b8091505092915050565b5050565b610e44828261102c565b610e4e8282611416565b5050565b600160009054906101000a900473ffffffffffffffffffffffffffffffffffffffff1673ffffffffffffffffffffffffffffffffffffffff166108fc349081150290604051600060405180830381858888f19350505050158015610eba573d6000803e3d6000fd5b50565b5050565b6000809054906101000a900473ffffffffffffffffffffffffffffffffffffffff1673ffffffffffffffffffffffffffffffffffffffff1663a9059cbb83836040518363ffffffff167c0100000000000000000000000000000000000000000000000000000000028152600401808373ffffffffffffffffffffffffffffffffffffffff1673ffffffffffffffffffffffffffffffffffffffff16815260200182815260200192505050600060405180830381600087803b158015610f8557600080fd5b505af1158015610f99573d6000803e3d6000fd5b505050505050565b600073ffffffffffffffffffffffffffffffffffffffff168273ffffffffffffffffffffffffffffffffffffffff1614151515610fdd57600080fd5b60008114151515610fed57600080fd5b5050565b60008060008414156110065760009150611025565b828402905082848281151561101757fe5b0414151561102157fe5b8091505b5092915050565b600080600080600080600960009054906101000a900473ffffffffffffffffffffffffffffffffffffffff1673ffffffffffffffffffffffffffffffffffffffff166345377d59896040518263ffffffff167c0100000000000000000000000000000000000000000000000000000000028152600401808273ffffffffffffffffffffffffffffffffffffffff1673ffffffffffffffffffffffffffffffffffffffff168152602001915050602060405180830381600087803b1580156110f257600080fd5b505af1158015611106573d6000803e3d6000fd5b505050506040513d602081101561111c57600080fd5b8101908080519060200190929190505050955061113887610dfa565b94506111688560076000896000191660001916815260200190815260200160002054610e1890919063ffffffff16565b6007600088600019166000191681526020019081526020016000208190555061119c85600b54610e1890919063ffffffff16565b600b81905550600a60009054906101000a900473ffffffffffffffffffffffffffffffffffffffff1673ffffffffffffffffffffffffffffffffffffffff1663bdbc01e4876040518263ffffffff167c01000000000000000000000000000000000000000000000000000000000281526004018082600019166000191681526020019150506040805180830381600087803b15801561123a57600080fd5b505af115801561124e573d6000803e3d6000fd5b505050506040513d604081101561126457600080fd5b8101908080519060200190929190805190602001909291905050508094508195505050831561140c5761129687611564565b91506112c68260086000896000191660001916815260200190815260200160002054610e1890919063ffffffff16565b600860008860001916600019168152602001908152602001600020819055506112fa82600c54610e1890919063ffffffff16565b600c81905550600e546008600085600019166000191681526020019081526020016000205410151561132f57600090506113a3565b600e546113608360086000876000191660001916815260200190815260200160002054610e1890919063ffffffff16565b10151561139e5761139760086000856000191660001916815260200190815260200160002054600e5461158290919063ffffffff16565b90506113a2565b8190505b5b6113d18160086000866000191660001916815260200190815260200160002054610e1890919063ffffffff16565b6008600085600019166000191681526020019081526020016000208190555061140581600c54610e1890919063ffffffff16565b600c819055505b5050505050505050565b6000600960009054906101000a900473ffffffffffffffffffffffffffffffffffffffff1673ffffffffffffffffffffffffffffffffffffffff166345377d59846040518263ffffffff167c0100000000000000000000000000000000000000000000000000000000028152600401808273ffffffffffffffffffffffffffffffffffffffff1673ffffffffffffffffffffffffffffffffffffffff168152602001915050602060405180830381600087803b1580156114d557600080fd5b505af11580156114e9573d6000803e3d6000fd5b505050506040513d60208110156114ff57600080fd5b810190808051906020019092919050505090506115408260066000846000191660001916815260200190815260200160002054610e1890919063ffffffff16565b60066000836000191660001916815260200190815260200160002081905550505050565b600061157b600f5483610ff190919063ffffffff16565b9050919050565b600082821115151561159057fe5b8183039050929150505600a165627a7a723058200ad4571e4f99b5864a50046f9ba3f117a85e83527527f587e71882cc320f203f0029",
  "source": "pragma solidity ^0.4.19;\n\nimport \"../libs/SafeMath.sol\";\nimport \"./Whitelist.sol\";\nimport \"./Referral.sol\";\nimport \"./Crowdsale.sol\";\n\n/**\n * @title OkeyDokeySale\n * @dev Crowdsale accepting contributions only within a time frame and under a cap.\n */\ncontract OkeyDokeySale is Crowdsale {\n    using SafeMath for uint256; \n\n    /* Creator of this ICO contract. */\n    address owner;\n\n    /* Admin of this ICO contract. */\n    address admin;\n\n    /* User id to amount of wei contributed. */\n    mapping (bytes32 => uint256) public contributionOf;\n\n    /* User id to amount of tokens rewarded. */\n    mapping (bytes32 => uint256) public tokensOf;\n\n    /* User id to amount of referral bonus rewarded. */\n    mapping (bytes32 => uint256) public bonusTokensOf;\n\n    Whitelist private whitelist;\n    Referral private referral;\n    uint256 public tokensSold;\n    uint256 public bonusTokensSold;\n    uint256 public tokenCap;\n    uint256 public bonusCap;\n    uint256 public bonusRate;\n    uint256 public openingTime;\n    uint256 public closingTime;\n\n    /**\n     * @dev Reverts if not in crowdsale time range. \n     */\n    modifier onlyWhileOpen {\n        require(openingTime <= now && now <= closingTime);\n\n        // Allow last purchase that overshoots sale goal.\n        require(!capReached());\n        _;\n    }\n\n    /**\n     * @dev Reverts if not in owner status.    \n     */\n    modifier onlyOwner() {\n        require(owner != address(0));\n        require(msg.sender == owner);\n        _;\n    }\n\n    /**\n     * @dev Reverts if not in admin status.  \n     */\n    modifier onlyAdmin() {\n        require(owner != address(0));\n        require(admin != address(0));\n        require(msg.sender == owner || msg.sender == admin);\n        _;\n    }\n    \n    /**\n     * @dev Constructor, takes all necessary arguments.\n     * @param _rate Number of token units a buyer gets per wei\n     * @param _bonusRate Number of token units a awarded as referral bonus per wei\n     * @param _admin Address that can whitelist addresses\n     * @param _wallet Address where collected funds will be forwarded to\n     * @param _token Address of the token being sold\n     * @param _whitelist Address of whitelist contract\n     * @param _referral Address of referral contract\n     * @param _tokenCap Max amount of tokens to sell\n     * @param _bonusCap Max amount of tokens a referrer can receive as bonus\n     * @param _openingTime Crowdsale opening time\n     * @param _closingTime Crowdsale closing time\n     */\n    function OkeyDokeySale(uint256 _rate, uint256 _bonusRate, \n                           address _admin, address _wallet, \n                           Whitelist _whitelist, Referral _referral,\n                           OkeyToken _token, uint256 _tokenCap, uint256 _bonusCap,\n                           uint256 _openingTime, uint256 _closingTime) \n                           Crowdsale(_rate, _wallet, _token) public {\n        require(_tokenCap > 0);\n        require(_closingTime > _openingTime);\n\n        owner = msg.sender;\n        admin = _admin;\n        whitelist = _whitelist;\n        referral = _referral;\n        tokenCap = _tokenCap;\n        bonusCap = _bonusCap;\n        bonusRate = _bonusRate;\n        openingTime = _openingTime;\n        closingTime = _closingTime;\n    }\n\n    /**\n     * @dev Sets new admin. \n     */\n    function setAdmin(address _admin) onlyOwner public {\n      require(_admin != address(0));\n\n      admin = _admin;\n    }\n\n    /**\n     * @dev Extend parent behavior requiring purchase to respect the funding cap.\n     * @param _beneficiary Token purchaser\n     * @param _weiAmount Amount of wei contributed\n     */\n    function _preValidatePurchase(address _beneficiary, uint256 _weiAmount) \n      internal onlyWhileOpen {\n\n      super._preValidatePurchase(_beneficiary, _weiAmount);\n\n      // Only allow contributions from whitelisted addresses.\n      require(whitelist.addressInWhitelist(_beneficiary));\n    }\n\n    /**\n     * @dev Override for extensions that require an internal state to check for validity (current user contributions, etc.)\n     * @param _beneficiary Address receiving the tokens\n     * @param _weiAmount Value in wei involved in the purchase\n     */\n    function _updatePurchasingState(address _beneficiary, uint256 _weiAmount) internal {\n      _updateTokenBalanceState(_beneficiary, _weiAmount);\n      _updateContributionState(_beneficiary, _weiAmount);\n    }\n\n    /**\n     * @dev Set token balance after purchase.\n     * @param _beneficiary Address receiving the tokens\n     * @param _weiAmount Value in wei involved in the purchase\n     */\n    function _updateTokenBalanceState(address _beneficiary, uint256 _weiAmount) internal {\n\n      // Fetch id.\n      bytes32 id = whitelist.getIdOf(_beneficiary);\n\n      // Calculate and add token balance.\n      uint256 newTokens = _getTokenAmount(_weiAmount);\n      tokensOf[id] = tokensOf[id].add(newTokens);\n\n      tokensSold = tokensSold.add(newTokens);\n\n      // Calculate and award referral bonus, if applicable.\n      bool eligible;\n      bytes32 referrer;\n      (eligible, referrer) = referral.hasReferrer(id);\n\n      if (eligible) {\n\n        // Calculate bonus tokens.\n        uint256 newBonusTokens = _getBonusTokenAmount(_weiAmount);\n\n        // Update token buyer's bonus tokens.\n        bonusTokensOf[id] = bonusTokensOf[id].add(newBonusTokens);\n        bonusTokensSold = bonusTokensSold.add(newBonusTokens);\n\n        // Calculate referrer's bonus tokens.\n        uint256 referrerBonusTokens;\n        if (bonusTokensOf[referrer] >= bonusCap) {\n          referrerBonusTokens = 0;\n        } else if (bonusTokensOf[referrer].add(newBonusTokens) >= bonusCap) {\n          referrerBonusTokens = bonusCap.sub(bonusTokensOf[referrer]);\n        } else {\n          referrerBonusTokens = newBonusTokens;\n        }\n\n        // Update referrer's bonus tokens. \n        bonusTokensOf[referrer] = bonusTokensOf[referrer].add(referrerBonusTokens);\n        bonusTokensSold = bonusTokensSold.add(referrerBonusTokens);\n      }\n\n    }\n\n    /**\n     * @dev Set contribution log after purchase.\n     * @param _beneficiary Address receiving the tokens\n     * @param _weiAmount Value in wei involved in the purchase\n     */\n    function _updateContributionState(address _beneficiary, uint256 _weiAmount) internal {\n      // Prevent overflow.      \n      bytes32 id = whitelist.getIdOf(_beneficiary);\n      contributionOf[id] = contributionOf[id].add(_weiAmount);\n    }\n\n    /**\n     * @dev Calculate bonus token amount.\n     * @param _weiAmount Value in wei involved in the purchase\n     */\n    function _getBonusTokenAmount(uint256 _weiAmount) \n      internal view returns (uint256) {\n\n      return _weiAmount.mul(bonusRate);\n    }\n\n    /**\n     * @dev Recover funds from ico contract.\n     */\n    function recoverTokens() onlyAdmin public {\n        _deliverTokens(owner, token.balanceOf(address(this))); \n    }\n\n    /**\n     * @dev Deliver tokens to an individual user.\n     * @param _id Id of the user.\n     * @param _address Address to deliver tokens to.\n     */\n    function releaseTokens(bytes32 _id, address _address) public onlyAdmin {\n      // require(idOf[_address] == _id);\n\n      _deliverTokens(_address, tokensOf[_id].add(bonusTokensOf[_id]));\n    }\n\n    /* Sale status functions */\n\n    /**\n     * @dev Checks whether the cap has been reached. \n     * @return Whether the cap was reached\n     */\n    function capReached() public view returns (bool) {\n        return tokensSold.add(bonusTokensSold) >= tokenCap;\n    }\n\n    /**\n     * @dev Checks whether the period in which the crowdsale is open has already elapsed.\n     * @return Whether crowdsale period has elapsed\n     */\n    function hasClosed() public view returns (bool) {\n        return now > closingTime;\n    }\n}",
  "sourcePath": "/home/seongmin/okeydokey/contracts/ico/OkeyDokeySale.sol",
  "compiler": {
    "name": "solc",
    "version": "0.4.24+commit.e67f0147.Emscripten.clang"
  },
  "schemaVersion": "2.0.0",
  "updatedAt": "2018-06-05T01:08:07.274Z"
}