{
  "contractName": "OkeyDokey",
  "abi": [
    {
      "constant": true,
      "inputs": [
        {
          "name": "",
          "type": "address"
        }
      ],
      "name": "adminAccess",
      "outputs": [
        {
          "name": "",
          "type": "bool"
        }
      ],
      "payable": false,
      "stateMutability": "view",
      "type": "function"
    },
    {
      "constant": true,
      "inputs": [],
      "name": "TOKEN",
      "outputs": [
        {
          "name": "",
          "type": "uint256"
        }
      ],
      "payable": false,
      "stateMutability": "view",
      "type": "function"
    },
    {
      "constant": true,
      "inputs": [],
      "name": "contractCount",
      "outputs": [
        {
          "name": "",
          "type": "uint16"
        }
      ],
      "payable": false,
      "stateMutability": "view",
      "type": "function"
    },
    {
      "constant": true,
      "inputs": [],
      "name": "TRANSACTION_DATABASE",
      "outputs": [
        {
          "name": "",
          "type": "uint256"
        }
      ],
      "payable": false,
      "stateMutability": "view",
      "type": "function"
    },
    {
      "constant": true,
      "inputs": [],
      "name": "MARKET",
      "outputs": [
        {
          "name": "",
          "type": "uint256"
        }
      ],
      "payable": false,
      "stateMutability": "view",
      "type": "function"
    },
    {
      "inputs": [],
      "payable": false,
      "stateMutability": "nonpayable",
      "type": "constructor"
    },
    {
      "constant": false,
      "inputs": [
        {
          "name": "_newOwner",
          "type": "address"
        }
      ],
      "name": "transferOwnership",
      "outputs": [],
      "payable": false,
      "stateMutability": "nonpayable",
      "type": "function"
    },
    {
      "constant": false,
      "inputs": [
        {
          "name": "_address",
          "type": "address"
        },
        {
          "name": "_hasAccess",
          "type": "bool"
        }
      ],
      "name": "setAdmin",
      "outputs": [],
      "payable": false,
      "stateMutability": "nonpayable",
      "type": "function"
    },
    {
      "constant": false,
      "inputs": [
        {
          "name": "_address",
          "type": "address"
        }
      ],
      "name": "isAdmin",
      "outputs": [
        {
          "name": "",
          "type": "bool"
        }
      ],
      "payable": false,
      "stateMutability": "nonpayable",
      "type": "function"
    },
    {
      "constant": true,
      "inputs": [
        {
          "name": "_tag",
          "type": "uint256"
        }
      ],
      "name": "getAddress",
      "outputs": [
        {
          "name": "",
          "type": "address"
        }
      ],
      "payable": false,
      "stateMutability": "view",
      "type": "function"
    },
    {
      "constant": false,
      "inputs": [
        {
          "name": "_tag",
          "type": "uint256"
        },
        {
          "name": "_newAddress",
          "type": "address"
        }
      ],
      "name": "updateAddress",
      "outputs": [],
      "payable": false,
      "stateMutability": "nonpayable",
      "type": "function"
    },
    {
      "constant": false,
      "inputs": [],
      "name": "kill",
      "outputs": [],
      "payable": false,
      "stateMutability": "nonpayable",
      "type": "function"
    }
  ],
  "bytecode": "0x60806040526000600260006101000a81548161ffff021916908361ffff16021790555034801561002e57600080fd5b50336000806101000a81548173ffffffffffffffffffffffffffffffffffffffff021916908373ffffffffffffffffffffffffffffffffffffffff1602179055506109ce8061007e6000396000f3006080604052600436106100af576000357c0100000000000000000000000000000000000000000000000000000000900463ffffffff16806324d7806c146100b45780632ab29df71461010f57806341c0e1b51461015c5780634b0bddd2146101735780634f2819f6146101c257806382bfefc81461021d5780638736381a14610248578063b93f9b0a1461027b578063ddd889cd146102e8578063f2fde38b14610313578063f46f16c214610356575b600080fd5b3480156100c057600080fd5b506100f5600480360381019080803573ffffffffffffffffffffffffffffffffffffffff169060200190929190505050610381565b604051808215151515815260200191505060405180910390f35b34801561011b57600080fd5b5061015a60048036038101908080359060200190929190803573ffffffffffffffffffffffffffffffffffffffff1690602001909291905050506103d7565b005b34801561016857600080fd5b5061017161058f565b005b34801561017f57600080fd5b506101c0600480360381019080803573ffffffffffffffffffffffffffffffffffffffff1690602001909291908035151590602001909291905050506106d8565b005b3480156101ce57600080fd5b50610203600480360381019080803573ffffffffffffffffffffffffffffffffffffffff1690602001909291905050506107eb565b604051808215151515815260200191505060405180910390f35b34801561022957600080fd5b5061023261080b565b6040518082815260200191505060405180910390f35b34801561025457600080fd5b5061025d610810565b604051808261ffff1661ffff16815260200191505060405180910390f35b34801561028757600080fd5b506102a660048036038101908080359060200190929190505050610824565b604051808273ffffffffffffffffffffffffffffffffffffffff1673ffffffffffffffffffffffffffffffffffffffff16815260200191505060405180910390f35b3480156102f457600080fd5b506102fd610861565b6040518082815260200191505060405180910390f35b34801561031f57600080fd5b50610354600480360381019080803573ffffffffffffffffffffffffffffffffffffffff169060200190929190505050610866565b005b34801561036257600080fd5b5061036b61099d565b6040518082815260200191505060405180910390f35b6000600160008373ffffffffffffffffffffffffffffffffffffffff1673ffffffffffffffffffffffffffffffffffffffff16815260200190815260200160002060009054906101000a900460ff169050919050565b600073ffffffffffffffffffffffffffffffffffffffff166000809054906101000a900473ffffffffffffffffffffffffffffffffffffffff1673ffffffffffffffffffffffffffffffffffffffff161415151561043457600080fd5b6000809054906101000a900473ffffffffffffffffffffffffffffffffffffffff1673ffffffffffffffffffffffffffffffffffffffff163373ffffffffffffffffffffffffffffffffffffffff1614151561048f57600080fd5b60008173ffffffffffffffffffffffffffffffffffffffff16141515156104b557600080fd5b60006003600084815260200190815260200160002060009054906101000a900473ffffffffffffffffffffffffffffffffffffffff1673ffffffffffffffffffffffffffffffffffffffff161415610539576001600260008282829054906101000a900461ffff160192506101000a81548161ffff021916908361ffff1602179055505b806003600084815260200190815260200160002060006101000a81548173ffffffffffffffffffffffffffffffffffffffff021916908373ffffffffffffffffffffffffffffffffffffffff1602179055505050565b600073ffffffffffffffffffffffffffffffffffffffff166000809054906101000a900473ffffffffffffffffffffffffffffffffffffffff1673ffffffffffffffffffffffffffffffffffffffff16141515156105ec57600080fd5b6000809054906101000a900473ffffffffffffffffffffffffffffffffffffffff1673ffffffffffffffffffffffffffffffffffffffff163373ffffffffffffffffffffffffffffffffffffffff1614151561064757600080fd5b6000809054906101000a900473ffffffffffffffffffffffffffffffffffffffff1673ffffffffffffffffffffffffffffffffffffffff163373ffffffffffffffffffffffffffffffffffffffff1614156106d6576000809054906101000a900473ffffffffffffffffffffffffffffffffffffffff1673ffffffffffffffffffffffffffffffffffffffff16ff5b565b600073ffffffffffffffffffffffffffffffffffffffff166000809054906101000a900473ffffffffffffffffffffffffffffffffffffffff1673ffffffffffffffffffffffffffffffffffffffff161415151561073557600080fd5b6000809054906101000a900473ffffffffffffffffffffffffffffffffffffffff1673ffffffffffffffffffffffffffffffffffffffff163373ffffffffffffffffffffffffffffffffffffffff1614151561079057600080fd5b80600160008473ffffffffffffffffffffffffffffffffffffffff1673ffffffffffffffffffffffffffffffffffffffff16815260200190815260200160002060006101000a81548160ff0219169083151502179055505050565b60016020528060005260406000206000915054906101000a900460ff1681565b600081565b600260009054906101000a900461ffff1681565b60006003600083815260200190815260200160002060009054906101000a900473ffffffffffffffffffffffffffffffffffffffff169050919050565b606581565b600073ffffffffffffffffffffffffffffffffffffffff166000809054906101000a900473ffffffffffffffffffffffffffffffffffffffff1673ffffffffffffffffffffffffffffffffffffffff16141515156108c357600080fd5b6000809054906101000a900473ffffffffffffffffffffffffffffffffffffffff1673ffffffffffffffffffffffffffffffffffffffff163373ffffffffffffffffffffffffffffffffffffffff1614151561091e57600080fd5b600073ffffffffffffffffffffffffffffffffffffffff168173ffffffffffffffffffffffffffffffffffffffff161415151561095a57600080fd5b806000806101000a81548173ffffffffffffffffffffffffffffffffffffffff021916908373ffffffffffffffffffffffffffffffffffffffff16021790555050565b6064815600a165627a7a7230582097dfaaec37fdc48a7d163be132106b8bb5e40f301c044a37e4ed79e0dda9b6240029",
  "source": "pragma solidity ^0.4.19;\n\ncontract OkeyDokey {\n\n  /** Contract codes */\n  uint constant public TOKEN = 0;\n  uint constant public MARKET = 100;\n  uint constant public TRANSACTION_DATABASE = 101; \n\n  /** Owner of this contract. */\n  address private owner;\n\n  /* Add list of contracts that has admin access to this contract. */\n  mapping (address => bool) public adminAccess;\n\n  /** Running count of contracts in the OkeyDokey ecosystem. */\n  uint16 public contractCount = 0;\n\n  /** Address of contracts. \n   * \n   * 0 - OkeyDokeyToken.\n   * 1 ~ 99 - Important contracts.\n   * 100 ~ 199 - Internal libraries.\n   * 200 ~ 999 - Other internal libraries.\n   * 1000 ~ Maximum uint - Application ids.\n   *\n   */\n  mapping (uint => address) private addresses;\n\n  /** \n   * Only owner can call.\n   */\n  modifier onlyOwner() {\n    require(owner != address(0));\n    require(msg.sender == owner);\n\n    _;\n  }\n\n  /** \n   * Only admins can call.\n   */\n  modifier onlyAdmin() {\n    require(adminAccess[msg.sender]);\n\n    _;\n  }\n\n  /**\n   * Constrctor function.\n   *\n   * Set the owner.\n   */\n  function OkeyDokey() public {\n    owner = msg.sender;\n  }\n\n  /**\n   * Transfer ownership of contract.\n   *\n   * @param _newOwner The address of the potential new owner\n   */\n  function transferOwnership(address _newOwner) onlyOwner public {\n    require(_newOwner != address(0));\n\n    owner = _newOwner;\n  }\n\n  /**\n   * @dev Sets access level of an address. \n   * @param _address Address to set admin permissions\n   * @param _hasAccess Whether the address has admin access\n   */\n  function setAdmin(address _address, bool _hasAccess) onlyOwner public {\n    adminAccess[_address] = _hasAccess;\n  }\n\n  /**\n   * @dev Gets access level of an address. \n   * @param _address Address to get admin permissions\n   * @return Whether the address has admin access\n   */\n  function isAdmin(address _address) public returns (bool) {\n    return adminAccess[_address];\n  }\n\n  /**\n   * Return address of contracts.\n   *\n   * @param _tag The identifying tag of the contract\n   * @return Address of contract with tag\n   */\n  function getAddress(uint _tag) public view returns (address) {\n    return addresses[_tag];\n  }\n\n  /**\n   * Update address of contracts.\n   *\n   * @param _tag The identifying tag of the new contract\n   * @param _newAddress The address of the new contract\n   */\n  function updateAddress(uint _tag, address _newAddress) public onlyOwner {\n    require(_newAddress != 0x0);\n\n    if (addresses[_tag] == 0x0) {\n      /* New contract. */\n      contractCount += 1;\n    }\n\n    addresses[_tag] = _newAddress;\n  }\n\n  /**\n   * Self destruct.\n   */\n  function kill() onlyOwner public { \n    if (msg.sender == owner) selfdestruct(owner); \n  }\n\n}",
  "sourcePath": "/home/seongmin/okeydokey/contracts/core/OkeyDokey.sol",
  "compiler": {
    "name": "solc",
    "version": "0.4.24+commit.e67f0147.Emscripten.clang"
  },
  "schemaVersion": "2.0.0",
  "updatedAt": "2018-06-05T01:08:06.667Z"
}