{
  "contractName": "OkeyDokeyGod",
  "abi": [
    {
      "inputs": [],
      "payable": false,
      "stateMutability": "nonpayable",
      "type": "constructor"
    },
    {
      "constant": false,
      "inputs": [
        {
          "name": "newAdmin",
          "type": "address"
        }
      ],
      "name": "transferOwnership",
      "outputs": [
        {
          "name": "success",
          "type": "bool"
        }
      ],
      "payable": false,
      "stateMutability": "nonpayable",
      "type": "function"
    },
    {
      "constant": true,
      "inputs": [],
      "name": "getAddress",
      "outputs": [
        {
          "name": "okeyDokeyAddr",
          "type": "address"
        }
      ],
      "payable": false,
      "stateMutability": "view",
      "type": "function"
    },
    {
      "constant": false,
      "inputs": [
        {
          "name": "newAddress",
          "type": "address"
        }
      ],
      "name": "updateAddress",
      "outputs": [
        {
          "name": "success",
          "type": "bool"
        }
      ],
      "payable": false,
      "stateMutability": "nonpayable",
      "type": "function"
    },
    {
      "constant": false,
      "inputs": [],
      "name": "kill",
      "outputs": [],
      "payable": false,
      "stateMutability": "nonpayable",
      "type": "function"
    }
  ],
  "bytecode": "0x608060405234801561001057600080fd5b50336000806101000a81548173ffffffffffffffffffffffffffffffffffffffff021916908373ffffffffffffffffffffffffffffffffffffffff160217905550610469806100606000396000f300608060405260043610610062576000357c0100000000000000000000000000000000000000000000000000000000900463ffffffff16806338cc48311461006757806341c0e1b5146100be578063ed6d9096146100d5578063f2fde38b14610130575b600080fd5b34801561007357600080fd5b5061007c61018b565b604051808273ffffffffffffffffffffffffffffffffffffffff1673ffffffffffffffffffffffffffffffffffffffff16815260200191505060405180910390f35b3480156100ca57600080fd5b506100d36101b8565b005b3480156100e157600080fd5b50610116600480360381019080803573ffffffffffffffffffffffffffffffffffffffff169060200190929190505050610249565b604051808215151515815260200191505060405180910390f35b34801561013c57600080fd5b50610171600480360381019080803573ffffffffffffffffffffffffffffffffffffffff169060200190929190505050610372565b604051808215151515815260200191505060405180910390f35b6000600160009054906101000a900473ffffffffffffffffffffffffffffffffffffffff16905080905090565b6000809054906101000a900473ffffffffffffffffffffffffffffffffffffffff1673ffffffffffffffffffffffffffffffffffffffff163373ffffffffffffffffffffffffffffffffffffffff161415610247576000809054906101000a900473ffffffffffffffffffffffffffffffffffffffff1673ffffffffffffffffffffffffffffffffffffffff16ff5b565b6000808273ffffffffffffffffffffffffffffffffffffffff161415151561027057600080fd5b600160009054906101000a900473ffffffffffffffffffffffffffffffffffffffff1673ffffffffffffffffffffffffffffffffffffffff168273ffffffffffffffffffffffffffffffffffffffff16141515156102cd57600080fd5b6000809054906101000a900473ffffffffffffffffffffffffffffffffffffffff1673ffffffffffffffffffffffffffffffffffffffff163373ffffffffffffffffffffffffffffffffffffffff1614151561032857600080fd5b81600160006101000a81548173ffffffffffffffffffffffffffffffffffffffff021916908373ffffffffffffffffffffffffffffffffffffffff16021790555060019050919050565b6000808273ffffffffffffffffffffffffffffffffffffffff161415151561039957600080fd5b6000809054906101000a900473ffffffffffffffffffffffffffffffffffffffff1673ffffffffffffffffffffffffffffffffffffffff163373ffffffffffffffffffffffffffffffffffffffff161415156103f457600080fd5b816000806101000a81548173ffffffffffffffffffffffffffffffffffffffff021916908373ffffffffffffffffffffffffffffffffffffffff160217905550600190509190505600a165627a7a7230582079f2ad6227032dc95f981195585a185d605c05d9628b51c4fa032864c3ae99530029",
  "source": "pragma solidity ^0.4.19;\n\ncontract OkeyDokeyGod {\n\n\t/** Admin of address. */\n    address private admin;\n\n\t/** Entry point to application. */\n    address private okeyDokeyAddress;\n\n    /**\n     * Constrctor function.\n     *\n     * Assign admin.\n     */\n    function OkeyDokeyGod() public {\n    \tadmin = msg.sender;\n    }\n\n    /**\n     * Transfer ownership of contract.\n     *\n     * @param newAdmin The address of the potential new admin.\n     * @return success True if transfer of ownership was successful.\n     */\n    function transferOwnership(address newAdmin) public returns (bool success) {\n        require(newAdmin != 0x0);\n        require(msg.sender == admin);\n        admin = newAdmin;\n        return true;\n    }\n\n    /**\n     * Return entry address to OkeyDokey.\n     *\n     * @return okeyDokeyAddr Address of OkeyDokey.\n     */\n    function getAddress() public view returns (address okeyDokeyAddr){\n        okeyDokeyAddr = okeyDokeyAddress;\n        return okeyDokeyAddr;\n    }\n\n    /**\n     * Update entry address to OkeyDokey.\n     *\n     * @param newAddress The address of the new contract.\n     * @return success True if transfer of ownership was successful.\n     */\n    function updateAddress(address newAddress) public returns (bool success) {\n        require(newAddress != 0x0);\n        require(newAddress != okeyDokeyAddress);\n        require(msg.sender == admin);\n    \tokeyDokeyAddress = newAddress;\n        return true;\n    }\n\n    /**\n     * Self destruct.\n     */\n    function kill() public { \n        if (msg.sender == admin) selfdestruct(admin); \n    }\n\n}",
  "sourcePath": "/home/seongmin/okeydokey/contracts/core/OkeyDokeyGod.sol",
  "compiler": {
    "name": "solc",
    "version": "0.4.24+commit.e67f0147.Emscripten.clang"
  },
  "schemaVersion": "2.0.0",
  "updatedAt": "2018-06-04T20:22:05.927Z"
}