{
  "contractName": "Referral",
  "abi": [
    {
      "constant": true,
      "inputs": [
        {
          "name": "",
          "type": "bytes32"
        }
      ],
      "name": "referrerOf",
      "outputs": [
        {
          "name": "",
          "type": "bytes32"
        }
      ],
      "payable": false,
      "stateMutability": "view",
      "type": "function"
    },
    {
      "inputs": [],
      "payable": false,
      "stateMutability": "nonpayable",
      "type": "constructor"
    },
    {
      "constant": false,
      "inputs": [
        {
          "name": "_address",
          "type": "address"
        },
        {
          "name": "_hasAccess",
          "type": "bool"
        }
      ],
      "name": "setSystemAccess",
      "outputs": [],
      "payable": false,
      "stateMutability": "nonpayable",
      "type": "function"
    },
    {
      "constant": true,
      "inputs": [
        {
          "name": "_address",
          "type": "address"
        }
      ],
      "name": "getSystemAccess",
      "outputs": [
        {
          "name": "",
          "type": "bool"
        }
      ],
      "payable": false,
      "stateMutability": "view",
      "type": "function"
    },
    {
      "constant": false,
      "inputs": [
        {
          "name": "_referees",
          "type": "bytes32[]"
        },
        {
          "name": "_referrers",
          "type": "bytes32[]"
        }
      ],
      "name": "batchAddReferrer",
      "outputs": [],
      "payable": false,
      "stateMutability": "nonpayable",
      "type": "function"
    },
    {
      "constant": false,
      "inputs": [
        {
          "name": "_referee",
          "type": "bytes32"
        },
        {
          "name": "_referrer",
          "type": "bytes32"
        }
      ],
      "name": "addReferrer",
      "outputs": [],
      "payable": false,
      "stateMutability": "nonpayable",
      "type": "function"
    },
    {
      "constant": true,
      "inputs": [
        {
          "name": "_id",
          "type": "bytes32"
        }
      ],
      "name": "hasReferrer",
      "outputs": [
        {
          "name": "",
          "type": "bool"
        },
        {
          "name": "",
          "type": "bytes32"
        }
      ],
      "payable": false,
      "stateMutability": "view",
      "type": "function"
    }
  ],
  "bytecode": "0x608060405234801561001057600080fd5b50336000806101000a81548173ffffffffffffffffffffffffffffffffffffffff021916908373ffffffffffffffffffffffffffffffffffffffff1602179055506001600260003373ffffffffffffffffffffffffffffffffffffffff1673ffffffffffffffffffffffffffffffffffffffff16815260200190815260200160002060006101000a81548160ff02191690831515021790555061063a806100b86000396000f300608060405260043610610078576000357c0100000000000000000000000000000000000000000000000000000000900463ffffffff168063b257c1a11461007d578063bdbc01e4146100bc578063ceca59b714610114578063e53b29ed146101bd578063f6d0fa2214610218578063f99c144714610267575b600080fd5b34801561008957600080fd5b506100ba600480360381019080803560001916906020019092919080356000191690602001909291905050506102b4565b005b3480156100c857600080fd5b506100eb600480360381019080803560001916906020019092919050505061031a565b604051808315151515815260200182600019166000191681526020019250505060405180910390f35b34801561012057600080fd5b506101bb600480360381019080803590602001908201803590602001908080602002602001604051908101604052809392919081815260200183836020028082843782019150505050505091929192908035906020019082018035906020019080806020026020016040519081016040528093929190818152602001838360200280828437820191505050505050919291929050505061032f565b005b3480156101c957600080fd5b506101fe600480360381019080803573ffffffffffffffffffffffffffffffffffffffff169060200190929190505050610395565b604051808215151515815260200191505060405180910390f35b34801561022457600080fd5b50610265600480360381019080803573ffffffffffffffffffffffffffffffffffffffff1690602001909291908035151590602001909291905050506103eb565b005b34801561027357600080fd5b5061029660048036038101908080356000191690602001909291905050506104fe565b60405180826000191660001916815260200191505060405180910390f35b600260003373ffffffffffffffffffffffffffffffffffffffff1673ffffffffffffffffffffffffffffffffffffffff16815260200190815260200160002060009054906101000a900460ff16151561030c57600080fd5b6103168282610516565b5050565b6000806103268361053e565b91509150915091565b600260003373ffffffffffffffffffffffffffffffffffffffff1673ffffffffffffffffffffffffffffffffffffffff16815260200190815260200160002060009054906101000a900460ff16151561038757600080fd5b6103918282610595565b5050565b6000600260008373ffffffffffffffffffffffffffffffffffffffff1673ffffffffffffffffffffffffffffffffffffffff16815260200190815260200160002060009054906101000a900460ff169050919050565b600073ffffffffffffffffffffffffffffffffffffffff166000809054906101000a900473ffffffffffffffffffffffffffffffffffffffff1673ffffffffffffffffffffffffffffffffffffffff161415151561044857600080fd5b6000809054906101000a900473ffffffffffffffffffffffffffffffffffffffff1673ffffffffffffffffffffffffffffffffffffffff163373ffffffffffffffffffffffffffffffffffffffff161415156104a357600080fd5b80600260008473ffffffffffffffffffffffffffffffffffffffff1673ffffffffffffffffffffffffffffffffffffffff16815260200190815260200160002060006101000a81548160ff0219169083151502179055505050565b60036020528060005260406000206000915090505481565b8060036000846000191660001916815260200190815260200160002081600019169055505050565b600080600060010283600019161415151561055857600080fd5b600091506003600084600019166000191681526020019081526020016000205490506000600102816000191614151561059057600191505b915091565b60008083511115156105a657600080fd5b815183511415156105b657600080fd5b600090505b8251811015610609576105fc83828151811015156105d557fe5b9060200190602002015183838151811015156105ed57fe5b90602001906020020151610516565b80806001019150506105bb565b5050505600a165627a7a723058201bd13f6af6f4b22a11dac0c0ecf3e6b61e5a1d28f1123aa3baab3afa143e58680029",
  "source": "import \"./Whitelist.sol\";\n\npragma solidity ^0.4.19;\n\n/**\n * @title Referral\n * @dev Store referral information between ids.\n */\ncontract Referral {\n\n\t/* Creator of this ICO contract. */\n\taddress owner;\n\n\t/* Admin of this ICO contract. */\n\taddress admin;\n\n\t/* Add list of contracts that can access this contract. */\n\tmapping (address => bool) private systemAccess;\n\n\t/* User id to address that provided the referral link for an address. */\n\tmapping (bytes32 => bytes32) public referrerOf;\n\n\t/**\n\t * @dev Reverts if not in owner status.   \n\t */\n\tmodifier onlyOwner() {\n\t\trequire(owner != address(0));\n\t\trequire(msg.sender == owner);\n\t\t_;\n\t}\n\n\t/**\n\t * @dev Reverts if not in admin status.  \n\t */\n\tmodifier system() {\n\t\trequire(systemAccess[msg.sender]);\n\t\t_;\n\t}\n\n\t/**\n\t * @dev Constructor, takes all necessary arguments.\n\t */\n\tfunction Referral() public {\n\t\towner = msg.sender;\n\t\tsystemAccess[msg.sender] = true;\n\t}\n\n\t/**\n\t * @dev Sets access level of an address. \n\t * @param _address Address to set permissions to access referral\n\t * @param _hasAccess Whether the address has access\n\t */\n\tfunction setSystemAccess(address _address, bool _hasAccess) onlyOwner public {\n\t\tsystemAccess[_address] = _hasAccess;\n\t}\n\n\t/**\n\t* @dev Get access level of an address. \n\t* @return Whether address has access\n\t*/\n\tfunction getSystemAccess(address _address) public view returns (bool) {\n\treturn systemAccess[_address];\n\t}\n\n\t/**\n\t * @dev Add multiple referrers of multiple addresses.\n\t * @param _referees Ids of person who clicked the link\n\t * @param _referrers Ids of provider of referral link\n\t */\n\tfunction batchAddReferrer(bytes32[] _referees, bytes32[] _referrers) \n\t\tsystem public {\n\t\n\t\t_batchAddReferrer(_referees, _referrers);\n\t}\t\n\n\t/**\n   * @dev Add user to whitelist\n   * @param _referees Address of user to whitelist\n   * @param _referrers Index, from 0 to 4, indicating which address to modify.\n   */\n  function _batchAddReferrer(bytes32[] _referees, bytes32[] _referrers) \n    internal {\n\n    require(_referees.length > 0);\n    require(_referees.length == _referrers.length);\n\n    for (uint i=0; i < _referees.length; i++) {\n      _addReferrer(_referees[i], _referrers[i]);\n    }\n  }\n\n\t/**\n\t * @dev Add a referrer of an address.\n\t * @param _referee Id of person who clicked the link\n\t * @param _referrer Id of provider of referral link\n\t */\n\tfunction addReferrer(bytes32 _referee, bytes32 _referrer) \n\t\tsystem public {\n\t \n\t\t_addReferrer(_referee, _referrer);\n\t}\n\n\t/**\n\t * @dev Add a referrer of an address.\n\t * @param _referee Id of person who clicked the link\n\t * @param _referrer Id of provider of referral link\n\t */\n\tfunction _addReferrer(bytes32 _referee, bytes32 _referrer) \n\t\tinternal {\n\n\t\treferrerOf[_referee] = _referrer;\n\t}\n\n\t/**\n\t * @dev Checks whether an id has a referrer. \n\t * @param _id Id of user.\n\t * @return Whether the id has a referrer.\n\t * @return Id of the referrer.\n\t */\n\tfunction hasReferrer(bytes32 _id) public view \n\t\treturns (bool, bytes32) {\n\n\t\treturn _hasReferrer(_id);\n\t}\n\n\t/**\n\t * @dev Check if a sale is eligible for referral bonus.\n\t * @param _id Id that sent ether\n\t * @return _eligible True if eligible\n\t * @return _referrer Id of referrer\n\t */\n\tfunction _hasReferrer(bytes32 _id) \n\t\tinternal view returns (bool _eligible, bytes32 _referrer) {\n\n\t\trequire(_id != 0x0);\n\n\t\t_eligible = false;\n\t\t_referrer = referrerOf[_id];\n\n\t\tif (_referrer != 0x0) {\n\t\t\t_eligible = true;\n\t\t}\n\t}\n}",
  "sourcePath": "/home/seongmin/okeydokey/contracts/ico/Referral.sol",
  "compiler": {
    "name": "solc",
    "version": "0.4.24+commit.e67f0147.Emscripten.clang"
  },
  "schemaVersion": "2.0.0",
  "updatedAt": "2018-06-04T20:22:03.929Z"
}