{
  "contractName": "Reservations",
  "abi": [
    {
      "inputs": [],
      "payable": false,
      "stateMutability": "nonpayable",
      "type": "constructor"
    },
    {
      "anonymous": false,
      "inputs": [
        {
          "indexed": false,
          "name": "id",
          "type": "uint256"
        }
      ],
      "name": "NewReservation",
      "type": "event"
    },
    {
      "constant": false,
      "inputs": [
        {
          "name": "_okeydokeyAddress",
          "type": "address"
        }
      ],
      "name": "initializeContracts",
      "outputs": [
        {
          "name": "success",
          "type": "bool"
        }
      ],
      "payable": false,
      "stateMutability": "nonpayable",
      "type": "function"
    },
    {
      "constant": true,
      "inputs": [
        {
          "name": "_id",
          "type": "uint256"
        }
      ],
      "name": "getReservationInfo",
      "outputs": [
        {
          "name": "success",
          "type": "bool"
        },
        {
          "name": "id",
          "type": "uint256"
        },
        {
          "name": "houseId",
          "type": "uint256"
        },
        {
          "name": "reservationCode",
          "type": "bytes32"
        },
        {
          "name": "host",
          "type": "address"
        },
        {
          "name": "reserver",
          "type": "address"
        },
        {
          "name": "checkIn",
          "type": "uint256"
        },
        {
          "name": "checkOut",
          "type": "uint256"
        },
        {
          "name": "state",
          "type": "uint8"
        }
      ],
      "payable": false,
      "stateMutability": "view",
      "type": "function"
    },
    {
      "constant": false,
      "inputs": [
        {
          "name": "id",
          "type": "uint256"
        },
        {
          "name": "valid",
          "type": "bool"
        }
      ],
      "name": "confirmReservation",
      "outputs": [
        {
          "name": "success",
          "type": "bool"
        }
      ],
      "payable": false,
      "stateMutability": "nonpayable",
      "type": "function"
    },
    {
      "constant": false,
      "inputs": [
        {
          "name": "reservationCode",
          "type": "bytes32"
        }
      ],
      "name": "registerAsGuest",
      "outputs": [
        {
          "name": "success",
          "type": "bool"
        },
        {
          "name": "id",
          "type": "uint256"
        }
      ],
      "payable": false,
      "stateMutability": "nonpayable",
      "type": "function"
    },
    {
      "constant": true,
      "inputs": [
        {
          "name": "houseId",
          "type": "uint256"
        },
        {
          "name": "guest",
          "type": "address"
        }
      ],
      "name": "isCurrentGuest",
      "outputs": [
        {
          "name": "authorized",
          "type": "bool"
        }
      ],
      "payable": false,
      "stateMutability": "view",
      "type": "function"
    },
    {
      "constant": true,
      "inputs": [
        {
          "name": "checkIn",
          "type": "uint256"
        },
        {
          "name": "checkOut",
          "type": "uint256"
        },
        {
          "name": "hourlyRate",
          "type": "uint256"
        },
        {
          "name": "dailyRate",
          "type": "uint256"
        },
        {
          "name": "utilityFee",
          "type": "uint256"
        },
        {
          "name": "cleaningFee",
          "type": "uint256"
        }
      ],
      "name": "calculateReservationFee",
      "outputs": [
        {
          "name": "reservationFee",
          "type": "uint256"
        }
      ],
      "payable": false,
      "stateMutability": "view",
      "type": "function"
    },
    {
      "constant": false,
      "inputs": [
        {
          "name": "_from",
          "type": "address"
        },
        {
          "name": "_value",
          "type": "uint256"
        },
        {
          "name": "_token",
          "type": "address"
        },
        {
          "name": "_extraData",
          "type": "bytes"
        }
      ],
      "name": "receiveApproval",
      "outputs": [],
      "payable": false,
      "stateMutability": "nonpayable",
      "type": "function"
    },
    {
      "constant": false,
      "inputs": [],
      "name": "kill",
      "outputs": [],
      "payable": false,
      "stateMutability": "nonpayable",
      "type": "function"
    }
  ],
  "bytecode": "0x6080604052600060015534801561001557600080fd5b50336000806101000a81548173ffffffffffffffffffffffffffffffffffffffff021916908373ffffffffffffffffffffffffffffffffffffffff160217905550611e0a806100656000396000f30060806040526004361061008e576000357c0100000000000000000000000000000000000000000000000000000000900463ffffffff16806312bb06041461009357806328bb41cf146100ee57806336826478146101d957806341c0e1b51461024c578063484c92b7146102635780635acf836b146102c85780638f4ffcb114610318578063bde047e4146103cb575b600080fd5b34801561009f57600080fd5b506100d4600480360381019080803573ffffffffffffffffffffffffffffffffffffffff16906020019092919050505061041c565b604051808215151515815260200191505060405180910390f35b3480156100fa57600080fd5b5061011960048036038101908080359060200190929190505050610879565b604051808a15151515815260200189815260200188815260200187600019166000191681526020018673ffffffffffffffffffffffffffffffffffffffff1673ffffffffffffffffffffffffffffffffffffffff1681526020018573ffffffffffffffffffffffffffffffffffffffff1673ffffffffffffffffffffffffffffffffffffffff1681526020018481526020018381526020018260038111156101bd57fe5b60ff168152602001995050505050505050505060405180910390f35b3480156101e557600080fd5b50610236600480360381019080803590602001909291908035906020019092919080359060200190929190803590602001909291908035906020019092919080359060200190929190505050610ae0565b6040518082815260200191505060405180910390f35b34801561025857600080fd5b50610261610af0565b005b34801561026f57600080fd5b506102ae60048036038101908080359060200190929190803573ffffffffffffffffffffffffffffffffffffffff169060200190929190505050610b85565b604051808215151515815260200191505060405180910390f35b3480156102d457600080fd5b506102f76004803603810190808035600019169060200190929190505050610dc9565b60405180831515151581526020018281526020019250505060405180910390f35b34801561032457600080fd5b506103c9600480360381019080803573ffffffffffffffffffffffffffffffffffffffff16906020019092919080359060200190929190803573ffffffffffffffffffffffffffffffffffffffff169060200190929190803590602001908201803590602001908080601f0160208091040260200160405190810160405280939291908181526020018383808284378201915050505050509192919290505050611018565b005b3480156103d757600080fd5b50610402600480360381019080803590602001909291908035151590602001909291905050506113a6565b604051808215151515815260200191505060405180910390f35b60003373ffffffffffffffffffffffffffffffffffffffff166000809054906101000a900473ffffffffffffffffffffffffffffffffffffffff1673ffffffffffffffffffffffffffffffffffffffff1614151561047957600080fd5b600073ffffffffffffffffffffffffffffffffffffffff168273ffffffffffffffffffffffffffffffffffffffff16141515156104b557600080fd5b3073ffffffffffffffffffffffffffffffffffffffff168273ffffffffffffffffffffffffffffffffffffffff16141515156104f057600080fd5b81600660006101000a81548173ffffffffffffffffffffffffffffffffffffffff021916908373ffffffffffffffffffffffffffffffffffffffff160217905550600660009054906101000a900473ffffffffffffffffffffffffffffffffffffffff16600760006101000a81548173ffffffffffffffffffffffffffffffffffffffff021916908373ffffffffffffffffffffffffffffffffffffffff160217905550600760009054906101000a900473ffffffffffffffffffffffffffffffffffffffff1673ffffffffffffffffffffffffffffffffffffffff1663b93f9b0a60006040518263ffffffff167c010000000000000000000000000000000000000000000000000000000002815260040180828152602001915050602060405180830381600087803b15801561062657600080fd5b505af115801561063a573d6000803e3d6000fd5b505050506040513d602081101561065057600080fd5b8101908080519060200190929190505050600860006101000a81548173ffffffffffffffffffffffffffffffffffffffff021916908373ffffffffffffffffffffffffffffffffffffffff160217905550600860009054906101000a900473ffffffffffffffffffffffffffffffffffffffff16600960006101000a81548173ffffffffffffffffffffffffffffffffffffffff021916908373ffffffffffffffffffffffffffffffffffffffff160217905550600760009054906101000a900473ffffffffffffffffffffffffffffffffffffffff1673ffffffffffffffffffffffffffffffffffffffff1663b93f9b0a60016040518263ffffffff167c010000000000000000000000000000000000000000000000000000000002815260040180828152602001915050602060405180830381600087803b15801561079657600080fd5b505af11580156107aa573d6000803e3d6000fd5b505050506040513d60208110156107c057600080fd5b8101908080519060200190929190505050600a60006101000a81548173ffffffffffffffffffffffffffffffffffffffff021916908373ffffffffffffffffffffffffffffffffffffffff160217905550600a60009054906101000a900473ffffffffffffffffffffffffffffffffffffffff16600b60006101000a81548173ffffffffffffffffffffffffffffffffffffffff021916908373ffffffffffffffffffffffffffffffffffffffff160217905550919050565b60008060008060008060008060008960008060008092503373ffffffffffffffffffffffffffffffffffffffff166002600086815260200190815260200160002060030160009054906101000a900473ffffffffffffffffffffffffffffffffffffffff1673ffffffffffffffffffffffffffffffffffffffff1614156108ff57600192505b600260008581526020019081526020016000206005019150600090505b81805490508110156109a6573373ffffffffffffffffffffffffffffffffffffffff16828281548110151561094d57fe5b9060005260206000200160009054906101000a900473ffffffffffffffffffffffffffffffffffffffff1673ffffffffffffffffffffffffffffffffffffffff16141561099957600192505b808060010191505061091c565b8215156109b257600080fd5b60009c50600260008f8152602001908152602001600020600001549b50600260008f8152602001908152602001600020600101549a50600260008f8152602001908152602001600020600201549950600260008f815260200190815260200160002060030160009054906101000a900473ffffffffffffffffffffffffffffffffffffffff169850600260008f815260200190815260200160002060040160009054906101000a900473ffffffffffffffffffffffffffffffffffffffff169750600260008f8152602001908152602001600020600601549650600260008f8152602001908152602001600020600701549550600260008f815260200190815260200160002060080160009054906101000a900460ff16945060019c50505050509193959799909294969850565b6000603290509695505050505050565b3373ffffffffffffffffffffffffffffffffffffffff166000809054906101000a900473ffffffffffffffffffffffffffffffffffffffff1673ffffffffffffffffffffffffffffffffffffffff16141515610b4b57600080fd5b6000809054906101000a900473ffffffffffffffffffffffffffffffffffffffff1673ffffffffffffffffffffffffffffffffffffffff16ff5b600080600080600080600033600760009054906101000a900473ffffffffffffffffffffffffffffffffffffffff1673ffffffffffffffffffffffffffffffffffffffff166324d7806c826040518263ffffffff167c0100000000000000000000000000000000000000000000000000000000028152600401808273ffffffffffffffffffffffffffffffffffffffff1673ffffffffffffffffffffffffffffffffffffffff168152602001915050602060405180830381600087803b158015610c4e57600080fd5b505af1158015610c62573d6000803e3d6000fd5b505050506040513d6020811015610c7857600080fd5b81019080805190602001909291905050501515610c9457600080fd5b60008973ffffffffffffffffffffffffffffffffffffffff1614151515610cba57600080fd5b60008a111515610cc957600080fd5b60019750610dbc565b8680549050861015610dbb57600260008888815481101515610cf057fe5b90600052602060002001548152602001908152602001600020945060006003811115610d1857fe5b8560080160009054906101000a900460ff166003811115610d3557fe5b1480610d68575060016003811115610d4957fe5b8560080160009054906101000a900460ff166003811115610d6657fe5b145b935089856001015414925042856006015411158015610d8b575084600701544211155b9150838015610d975750825b8015610da05750815b15610dae5760019750610dbc565b8580600101965050610cd2565b5b5050505050505092915050565b6000806000806000806000806000809850600360008b60001916600019168152602001908152602001600020549650600260008881526020019081526020016000209550896000191686600201546000191614945060006003811115610e2b57fe5b8660080160009054906101000a900460ff166003811115610e4857fe5b1480610e7b575060016003811115610e5c57fe5b8660080160009054906101000a900460ff166003811115610e7957fe5b145b9350856005019150600090505b8180549050811015610f12573373ffffffffffffffffffffffffffffffffffffffff168282815481101515610eb957fe5b9060005260206000200160009054906101000a900473ffffffffffffffffffffffffffffffffffffffff1673ffffffffffffffffffffffffffffffffffffffff161415610f0557600192505b8080600101915050610e88565b848015610f1c5750835b8015610f26575082155b1561100c57856005013390806001815401808255809150509060018203906000526020600020016000909192909190916101000a81548173ffffffffffffffffffffffffffffffffffffffff021916908373ffffffffffffffffffffffffffffffffffffffff16021790555050600460003373ffffffffffffffffffffffffffffffffffffffff1673ffffffffffffffffffffffffffffffffffffffff1681526020019081526020016000208660000154908060018154018082558091505090600182039060005260206000200160009091929091909150555085600001549750600198505b50505050505050915091565b6000806000806000806000806000808b73ffffffffffffffffffffffffffffffffffffffff16600860009054906101000a900473ffffffffffffffffffffffffffffffffffffffff1673ffffffffffffffffffffffffffffffffffffffff1614151561108357600080fd5b61108c8b61156d565b809a50819b50829c50505050600b60009054906101000a900473ffffffffffffffffffffffffffffffffffffffff1673ffffffffffffffffffffffffffffffffffffffff1663ad50f56d8b6040518263ffffffff167c010000000000000000000000000000000000000000000000000000000002815260040180828152602001915050600060405180830381600087803b15801561112957600080fd5b505af115801561113d573d6000803e3d6000fd5b505050506040513d6000823e3d601f19601f8201168201806040525061010081101561116857600080fd5b8101908080519060200190929190805164010000000081111561118a57600080fd5b828101905060208101848111156111a057600080fd5b81518560018202830111640100000000821117156111bd57600080fd5b5050929190602001805190602001909291908051906020019092919080519060200190929190805190602001909291908051906020019092919080519060200190929190505050909192939495965090919293949550809750819850829950839a50849b50859c5050505050505081151561123457fe5b611242898988888888610ae0565b9050808d1015151561125057fe5b600960009054906101000a900473ffffffffffffffffffffffffffffffffffffffff1673ffffffffffffffffffffffffffffffffffffffff166323b872dd8f89846040518463ffffffff167c0100000000000000000000000000000000000000000000000000000000028152600401808473ffffffffffffffffffffffffffffffffffffffff1673ffffffffffffffffffffffffffffffffffffffff1681526020018373ffffffffffffffffffffffffffffffffffffffff1673ffffffffffffffffffffffffffffffffffffffff1681526020018281526020019350505050602060405180830381600087803b15801561134957600080fd5b505af115801561135d573d6000803e3d6000fd5b505050506040513d602081101561137357600080fd5b810190808051906020019092919050505015611396576113958e8b8b8b61158b565b5b5050505050505050505050505050565b60008060008460008060008092503373ffffffffffffffffffffffffffffffffffffffff166002600086815260200190815260200160002060030160009054906101000a900473ffffffffffffffffffffffffffffffffffffffff1673ffffffffffffffffffffffffffffffffffffffff16141561142357600192505b600260008581526020019081526020016000206005019150600090505b81805490508110156114ca573373ffffffffffffffffffffffffffffffffffffffff16828281548110151561147157fe5b9060005260206000200160009054906101000a900473ffffffffffffffffffffffffffffffffffffffff1673ffffffffffffffffffffffffffffffffffffffff1614156114bd57600192505b8080600101915050611440565b8215156114d657600080fd5b60009650600260008a8152602001908152602001600020955062015180866006015401421115945084156115615787156115355760018660080160006101000a81548160ff0219169083600381111561152b57fe5b021790555061155c565b60028660080160006101000a81548160ff0219169083600381111561155657fe5b02179055505b600196505b50505050505092915050565b600080600060019250635ac15ecd9150635ac2492d90509193909250565b611593611c8a565b60008060008060008688111515156115aa57600080fd5b60018060008282540192505081905550600b60009054906101000a900473ffffffffffffffffffffffffffffffffffffffff1673ffffffffffffffffffffffffffffffffffffffff1663ad50f56d8a6040518263ffffffff167c010000000000000000000000000000000000000000000000000000000002815260040180828152602001915050600060405180830381600087803b15801561164b57600080fd5b505af115801561165f573d6000803e3d6000fd5b505050506040513d6000823e3d601f19601f8201168201806040525061010081101561168a57600080fd5b810190808051906020019092919080516401000000008111156116ac57600080fd5b828101905060208101848111156116c257600080fd5b81518560018202830111640100000000821117156116df57600080fd5b50509291906020018051906020019092919080519060200190929190805190602001909291908051906020019092919080519060200190929190805190602001909291905050509a50505050509650505061173b898989611b1f565b9250821580611748575083155b156117625760018060008282540392505081905550611b13565b6001548660000181815250508886602001818152505089866080019073ffffffffffffffffffffffffffffffffffffffff16908173ffffffffffffffffffffffffffffffffffffffff1681525050878660c0018181525050868660e001818152505084866060019073ffffffffffffffffffffffffffffffffffffffff16908173ffffffffffffffffffffffffffffffffffffffff16815250506118098a86600154611bd9565b915091508115156118295760018060008282540392505081905550611b13565b80866040019060001916908160001916815250506000866101000190600381111561185057fe5b9081600381111561185d57fe5b8152505085600260008860000151815260200190815260200160002060008201518160000155602082015181600101556040820151816002019060001916905560608201518160030160006101000a81548173ffffffffffffffffffffffffffffffffffffffff021916908373ffffffffffffffffffffffffffffffffffffffff16021790555060808201518160040160006101000a81548173ffffffffffffffffffffffffffffffffffffffff021916908373ffffffffffffffffffffffffffffffffffffffff16021790555060a0820151816005019080519060200190611947929190611d11565b5060c0820151816006015560e082015181600701556101008201518160080160006101000a81548160ff0219169083600381111561198157fe5b0217905550905050856000015160036000836000191660001916815260200190815260200160002081905550600460008b73ffffffffffffffffffffffffffffffffffffffff1673ffffffffffffffffffffffffffffffffffffffff16815260200190815260200160002086600001519080600181540180825580915050906001820390600052602060002001600090919290919091505550600560008a81526020019081526020016000208660000151908060018154018082558091505090600182039060005260206000200160009091929091909150555060026000876000015181526020019081526020016000206005018a90806001815401808255809150509060018203906000526020600020016000909192909190916101000a81548173ffffffffffffffffffffffffffffffffffffffff021916908373ffffffffffffffffffffffffffffffffffffffff160217905550507f83bd7dc60944f22f0f5da53aa9089d8eff17620275ce4d5db60d87722a04e03f6001546040518082815260200191505060405180910390a15b50505050505050505050565b60008060008060008060019550611bcd565b8480549050841015611bc857600260008686815481101515611b4f57fe5b90600052602060002001548152602001908152602001600020925087836006015411158015611b875750620151808360070154018811155b9150866201518084600601540311158015611ba6575082600701548711155b90508180611bb15750805b15611bbb57611bcd565b8380600101945050611b31565b600195505b50505050509392505050565b60008060009150848484604051808473ffffffffffffffffffffffffffffffffffffffff1673ffffffffffffffffffffffffffffffffffffffff166c010000000000000000000000000281526014018373ffffffffffffffffffffffffffffffffffffffff1673ffffffffffffffffffffffffffffffffffffffff166c0100000000000000000000000002815260140182815260200193505050506040518091039020905060019150935093915050565b61012060405190810160405280600081526020016000815260200160008019168152602001600073ffffffffffffffffffffffffffffffffffffffff168152602001600073ffffffffffffffffffffffffffffffffffffffff16815260200160608152602001600081526020016000815260200160006003811115611d0b57fe5b81525090565b828054828255906000526020600020908101928215611d8a579160200282015b82811115611d895782518260006101000a81548173ffffffffffffffffffffffffffffffffffffffff021916908373ffffffffffffffffffffffffffffffffffffffff16021790555091602001919060010190611d31565b5b509050611d979190611d9b565b5090565b611ddb91905b80821115611dd757600081816101000a81549073ffffffffffffffffffffffffffffffffffffffff021916905550600101611da1565b5090565b905600a165627a7a7230582031eb851b318a9bec29320a64db58632a6ed380ea52f9e599629bb1d673f2257a0029",
  "source": "pragma solidity ^0.4.19;\n\nimport \"../core/OkeyDokey.sol\";\nimport \"../token/OkeyToken.sol\";\nimport \"./Houses.sol\";\n\ncontract Reservations is tokenRecipient {\n\n    /** Admin of this contract. */\n    address private admin;\n\n    /** Running count of reservation ids. Smallest valid reservation index is 1. */\n    uint256 reservationId = 0;\n\n    /** Map of reservation ids to each corresponding reservation. */\n    mapping(uint256 => Reservation) private reservations;\n\n    /** Map of reservation code to each corresponding reservation. */\n    mapping(bytes32 => uint256) private reservationCodes;\n\n    /** Map of address to its reservations. */\n    mapping(address => uint256[]) private reservationsBy;\n\n    /** Map of house id to reservation ids. */\n    mapping(uint256 => uint256[]) private reservationsAt;\n\n    /** Address of OkeyDokey contract. */\n    address private okeydokeyAddress;\n\n    /** Instance of OkeyDokey contract. */\n    OkeyDokey private okeydokey;\n\n    /** Address of Key Token contract. */\n    address private tokenAddress;\n\n    /** Instance of Key Token contract. */\n    OkeyToken private token;\n\n    /** Address of Houses contract. */\n    address private housesAddress;\n\n    /** Instance of Houses contract. */\n    Houses private houses;\n\n    /** Lifecycle of a reservation */\n    enum ReservationStates {RESERVED, CONFIRMED, REJECTED, OVER}\n\n    /** Structure of a reservation. */\n    struct Reservation {\n\n        uint256 id;\n        uint256 houseId;\n\n        /* Reservation info */\n        bytes32 reservationCode;\n        address host;\n        address reserver;\n        address[] guests;\n\n        uint256 checkIn; /* Seconds since unix epoch */\n        uint256 checkOut;\n\n        /* Logistics */\n        ReservationStates state;\n    }\n\n    /**\n     * Modifier for functions only smart contract owner(admin) can run.\n     */\n    modifier OkeyDokeyAdmin() {\n\n        /* Verify admin. */\n        require(admin == msg.sender);\n\n        _;\n    }\n\n    /**\n     * Modifier for functions only OkeyDokey smart contracts can run.\n     * \n     * @param _addr The address to check.\n     */\n    modifier system(address _addr) {\n\n        /* Verify admin. */\n        require(okeydokey.isAdmin(_addr));\n\n        _;\n    }\n\n    /**\n     * Modifier for functions only guests can run.\n     *\n     * @param id The id of reservation.\n     */\n    modifier onlyGuests(uint256 id) {\n\n        bool found = false;\n\n        /* Authorize host. */\n        if (reservations[id].host == msg.sender) {\n            found = true;\n        }\n\n        /* Verify guest. */\n        address[] storage guests = reservations[id].guests;\n        for (uint256 i=0; i < guests.length; i++) {\n            if (guests[i] == msg.sender) {\n                found = true;\n            }\n        }\n\n        require(found); \n\n        _;\n    }\n\n    /**\n     * Broadcast successful reservation.\n     *\n     * @param id Id of the reservation.\n     */\n     event NewReservation(uint256 id);\n\n    /**\n     * Constrctor function.\n     *\n     * Assign contract owner (admin).\n     *\n     */\n    function Reservations() public {\n        admin = msg.sender;\n    }\n\n    /**\n     * Initialize other OKDK contracts this contract depends on.\n     *\n     * @param _okeydokeyAddress The address of main application contract.\n     */\n    function initializeContracts(address _okeydokeyAddress) \n        OkeyDokeyAdmin public returns (bool success) {\n        require(_okeydokeyAddress != address(0));\n        require(_okeydokeyAddress != address(this));\n\n        okeydokeyAddress = _okeydokeyAddress;\n        okeydokey = OkeyDokey(okeydokeyAddress);\n\n        tokenAddress = okeydokey.getAddress(0);\n        token = OkeyToken(tokenAddress);\n\n        housesAddress = okeydokey.getAddress(1);\n        houses = Houses(housesAddress);\n    }\n        \n    /**\n     * Make a reservation.\n     *\n     * @param guest The address of reserver.\n     * @param houseId The id of house to reserve.\n     * @param checkIn Time of check in, in seconds since UNIX epoch.\n     * @param checkOut Time of check out, in seconds since UNIX epoch.\n     */\n    function _reserve(address guest, uint256 houseId, \n        uint256 checkIn, uint256 checkOut) internal {\n\n        require(checkIn <= checkOut);\n\n        /* Smallest reservationId is 1 */\n        reservationId += 1;\n\n        Reservation memory reservation;\n\n        /* Fetch house information and check if house is available. */\n        var (, , host, , , , , active) = houses.getHouseInfo(houseId);\n        bool available = checkHouseAvailability(houseId, checkIn, checkOut);\n\n        if (!available || !active) {\n            reservationId -= 1;\n            return;\n        }\n\n        /* Store reservation information. */\n        reservation.id = reservationId;\n        reservation.houseId = houseId;\n        reservation.reserver = guest;\n        reservation.checkIn = checkIn;\n        reservation.checkOut = checkOut;\n        \n        /* Set host. */\n        reservation.host = host;\n\n        /* Assign reservation code. */\n        var (succ2, reservationCode) \n            = generateReservationCode(guest, host, reservationId);\n        if (!succ2) {\n            reservationId -= 1;\n            return;\n        }\n        reservation.reservationCode = reservationCode;\n\n        /* Logistics */\n        reservation.state = ReservationStates.RESERVED;\n\n        /* Save newly created reservation to storage. */\n        reservations[reservation.id] = reservation;\n        reservationCodes[reservationCode] = reservation.id;\n        reservationsBy[guest].push(reservation.id); \n        reservationsAt[houseId].push(reservation.id);\n\n        /* Add reserver as guest as well */\n        reservations[reservation.id].guests.push(guest);\n\n        NewReservation(reservationId);\n    }\n\n    /**\n     * Check if house is available for rent.\n     *\n     * @param houseId Id of the house to check.\n     * @param checkIn Time of check in, in seconds since UNIX epoch.\n     * @param checkOut Time of check out, in seconds since UNIX epoch.\n     * @return available Whether the house is available during the specified time window.\n     */\n    function checkHouseAvailability(uint256 houseId, uint256 checkIn, uint256 checkOut) \n        internal view returns (bool available) {\n\n        // For testing.\n        return true;\n\n        available = false;\n\n        uint256[] storage reservationIds = reservationsAt[houseId];\n\n        for (uint256 i=0; i < reservationIds.length; i++) {\n            Reservation storage reservation = reservations[reservationIds[i]];\n\n            /* Look for overlap. */\n            bool checkInTooEarly = (reservation.checkIn <= checkIn) &&\n                                   (checkIn <= reservation.checkOut + 1 days);\n            bool checkOutTooLate = (reservation.checkIn - 1 days <= checkOut) &&\n                                   (checkOut <= reservation.checkOut);\n\n            if (checkInTooEarly || checkOutTooLate) {\n                return;\n            }\n        }\n        \n        /* Only assign available to true if we found no overlap. */\n        available = true;\n    }\n\n    /**\n     * Generate a unique code for a reservation that acts as an invite.\n     *\n     * @param host The first seed to randomize reservation code.\n     * @param guest The second seed to randomize reservation code.\n     * @param id The third seed to randomize reservation code.\n     * @return success Whether the reservation was successful.\n     * @return reservationCode Randomly generated reservation code.\n     */\n    function generateReservationCode(address host, address guest, uint256 id) \n        internal pure returns (bool success, bytes32 reservationCode) {\n\n        success = false;\n\n        reservationCode = keccak256(host, guest, id);\n\n        success = true;\n    }\n\n    /**\n     * Fetch reservation information.\n     *\n     * @param _id The id of the reservation to query.\n     * @return success Whether the query was successful.\n     * @return id Id of the reservation.\n     * @return houseId Id of the reserved house.\n     * @return reservationCode Randomly generated reservation code.\n     * @return host Address of the host.\n     * @return reserver Address of the reserver.\n     * @return checkIn Time of check in, in seconds since UNIX epoch.\n     * @return checkOut Time of check out, in seconds since UNIX epoch.\n     * @return state State of the reservation.\n     */\n    function getReservationInfo(uint256 _id) public view onlyGuests(_id)\n        returns (bool success, uint256 id, uint256 houseId,\n                 bytes32 reservationCode, address host, address reserver,\n                 uint256 checkIn, uint256 checkOut, ReservationStates state) {\n\n        success = false;\n\n        id = reservations[_id].id;\n        houseId = reservations[_id].houseId;\n        reservationCode = reservations[_id].reservationCode;\n        host = reservations[_id].host;\n        reserver = reservations[_id].reserver;\n        checkIn = reservations[_id].checkIn;\n        checkOut = reservations[_id].checkOut;\n        state = reservations[_id].state;\n\n        success = true;\n    } \n\n    /**\n     * Guest commits to the reservation. \n     *\n     * @param id Id of the reservation.\n     * @param valid Whether the guest will go through with the reservation.\n     * @return success Whether the operation was successful.\n     */\n    function confirmReservation(uint256 id, bool valid) public onlyGuests(id) \n        returns (bool success) {\n\n        success = false;\n\n        Reservation storage reservation = reservations[id];\n\n        bool withinTimeFrame = now <= (reservation.checkIn + 1 days);\n\n        if (withinTimeFrame) {\n            if (valid) {\n                reservation.state = ReservationStates.CONFIRMED;\n                // Release funds from escrow to host!\n            } else {\n                reservation.state = ReservationStates.REJECTED;\n                // Refund!\n            }\n            success = true;\n        }\n    } \n\n    /**\n     * Fetch reservation information.\n     *\n     * @param reservationCode Randomly generated reservation code.\n     * @return success Whether the operation was successful.\n     * @return id Id of the reservation.\n     */\n    function registerAsGuest(bytes32 reservationCode) public \n        returns (bool success, uint256 id) {\n\n        success = false;\n\n        uint256 resId = reservationCodes[reservationCode];\n        Reservation storage reservation = reservations[resId]; \n\n        bool correctCode = (reservation.reservationCode == reservationCode);\n        bool correctState = (reservation.state == ReservationStates.RESERVED) ||\n                            (reservation.state == ReservationStates.CONFIRMED);\n        bool found;\n\n        /* Search for guest in already registered guest list */\n        address[] storage guests = reservation.guests;\n        for (uint256 i=0; i < guests.length; i++) {\n            if (guests[i] == msg.sender) {\n                found = true;\n            }\n        }\n\n        if (correctCode && correctState && !found) {\n            reservation.guests.push(msg.sender);\n            reservationsBy[msg.sender].push(reservation.id);\n            id = reservation.id;\n            success = true;\n        }\n    } \n\n    /**\n     * Check if guest address has access to house at current time.\n     *\n     * @param houseId House to check access to.\n     * @param guest Address of the guest to check for.\n     * @return authorized Whether the guest has access.\n     */\n    function isCurrentGuest(uint256 houseId, address guest) \n        public system(msg.sender) view returns (bool authorized) {\n        require(guest != 0x0);\n        require(houseId > 0);\n\n        // For testing.\n        return true;\n\n        authorized = false;\n\n        uint256[] storage reservationIds = reservationsBy[guest];\n\n        for (uint256 i=0; i < reservationIds.length; i++) {\n\n            Reservation storage reservation = reservations[reservationIds[i]];\n\n            bool correctState = reservation.state == ReservationStates.RESERVED ||\n                                reservation.state == ReservationStates.CONFIRMED;\n\n            bool correctHouseId = reservation.houseId == houseId;\n\n            bool correctTime = reservation.checkIn <= now && \n                               now <= reservation.checkOut;\n\n            if (correctState && correctHouseId && correctTime) {\n                authorized = true;\n                return;\n            }\n        }\n\n    } \n\n    /**\n     * Check if guest address has access to house at current time.\n     *\n     * @param checkIn Time of check in, in seconds since UNIX epoch.\n     * @param checkOut Time of check out, in seconds since UNIX epoch.\n     * @param hourlyRate Hourly fee in KEY tokens.\n     * @param dailyRate Daily fee in KEY tokens.\n     * @param utilityFee Utility fee in KEY tokens.\n     * @param cleaningFee Cleaning fee in KEY tokens.\n     * @return reservationFee Total cost of reservation.\n     */\n    function calculateReservationFee(uint256 checkIn, uint256 checkOut, \n        uint256 hourlyRate, uint256 dailyRate, \n        uint256 utilityFee, uint256 cleaningFee) \n        public view returns (uint256 reservationFee) {\n\n        reservationFee = 50;\n    } \n\n    /**\n     * Callback function for approveAndCall.\n     *\n     * @param _from Guest that wants to reserve.\n     * @param _value Amount of token sent to the contract.\n     * @param _token Address of KEY token.\n     * @param _extraData Data containing house id, checkin time,and check out time.\n     */\n    function receiveApproval(address _from, uint256 _value, \n        address _token, bytes _extraData) public {\n\n        require(tokenAddress == _token);\n\n        uint256 houseId;\n        uint256 checkIn;\n        uint256 checkOut;\n        (houseId, checkIn, checkOut) = _decodeReservationData(_extraData);\n\n        address host;\n        uint256 hourlyRate;\n        uint256 dailyRate;\n        uint256 utilityFee;\n        uint256 cleaningFee;\n        bool active;\n        (, , host, hourlyRate, dailyRate, \n            utilityFee, cleaningFee, active) = houses.getHouseInfo(houseId);\n\n        assert(active);\n\n        uint256 reservationFee = calculateReservationFee(checkIn, checkOut,\n            hourlyRate, dailyRate, utilityFee, cleaningFee);\n\n        assert(_value >= reservationFee);\n\n        if (token.transferFrom(_from, host, reservationFee)) {\n            _reserve(_from, houseId, checkIn, checkOut);\n        }\n    } \n\n    /**\n     * Decode extra data in approveAndCall to reservation data.\n     *\n     * @param data Data containing house id, checkin time,and check out time.\n     * @return houseId House id.\n     * @return checkIn Chek in date.\n     * @return checkOut Check out date.\n     */\n    function _decodeReservationData(bytes data) internal pure \n        returns (uint256 houseId, uint256 checkIn, uint256 checkOut) {\n\n        houseId = 1;\n        checkIn = 1522622157;\n        checkOut = 1522682157;\n    }\n\n    /**\n     * Self destruct.\n     */\n    function kill() OkeyDokeyAdmin public { \n        selfdestruct(admin); \n    }\n\n}",
  "sourcePath": "/home/seongmin/okeydokey/contracts/rental/Reservations.sol",
  "compiler": {
    "name": "solc",
    "version": "0.4.24+commit.e67f0147.Emscripten.clang"
  },
  "schemaVersion": "2.0.0",
  "updatedAt": "2018-06-04T20:22:05.966Z"
}