{
  "contractName": "Reviews",
  "abi": [
    {
      "inputs": [],
      "payable": false,
      "stateMutability": "nonpayable",
      "type": "constructor"
    },
    {
      "constant": false,
      "inputs": [
        {
          "name": "_okeydokeyAddress",
          "type": "address"
        }
      ],
      "name": "initializeContracts",
      "outputs": [
        {
          "name": "success",
          "type": "bool"
        }
      ],
      "payable": false,
      "stateMutability": "nonpayable",
      "type": "function"
    },
    {
      "constant": false,
      "inputs": [
        {
          "name": "reservationId",
          "type": "uint256"
        },
        {
          "name": "rating",
          "type": "uint8"
        },
        {
          "name": "content",
          "type": "bytes"
        }
      ],
      "name": "submitReview",
      "outputs": [
        {
          "name": "success",
          "type": "bool"
        },
        {
          "name": "newId",
          "type": "uint256"
        }
      ],
      "payable": false,
      "stateMutability": "nonpayable",
      "type": "function"
    },
    {
      "constant": false,
      "inputs": [],
      "name": "kill",
      "outputs": [],
      "payable": false,
      "stateMutability": "nonpayable",
      "type": "function"
    }
  ],
  "bytecode": "0x6080604052600060015534801561001557600080fd5b50336000806101000a81548173ffffffffffffffffffffffffffffffffffffffff021916908373ffffffffffffffffffffffffffffffffffffffff1602179055506109d4806100656000396000f300608060405260043610610057576000357c0100000000000000000000000000000000000000000000000000000000900463ffffffff16806312bb06041461005c57806341c0e1b5146100b7578063cd9646ee146100ce575b600080fd5b34801561006857600080fd5b5061009d600480360381019080803573ffffffffffffffffffffffffffffffffffffffff16906020019092919050505061016d565b604051808215151515815260200191505060405180910390f35b3480156100c357600080fd5b506100cc61045e565b005b3480156100da57600080fd5b5061014c60048036038101908080359060200190929190803560ff169060200190929190803590602001908201803590602001908080601f01602080910402602001604051908101604052809392919081815260200183838082843782019150505050505091929192905050506104f3565b60405180831515151581526020018281526020019250505060405180910390f35b60003373ffffffffffffffffffffffffffffffffffffffff166000809054906101000a900473ffffffffffffffffffffffffffffffffffffffff1673ffffffffffffffffffffffffffffffffffffffff161415156101ca57600080fd5b600073ffffffffffffffffffffffffffffffffffffffff168273ffffffffffffffffffffffffffffffffffffffff161415151561020657600080fd5b3073ffffffffffffffffffffffffffffffffffffffff168273ffffffffffffffffffffffffffffffffffffffff161415151561024157600080fd5b81600560006101000a81548173ffffffffffffffffffffffffffffffffffffffff021916908373ffffffffffffffffffffffffffffffffffffffff160217905550600560009054906101000a900473ffffffffffffffffffffffffffffffffffffffff16600660006101000a81548173ffffffffffffffffffffffffffffffffffffffff021916908373ffffffffffffffffffffffffffffffffffffffff160217905550600660009054906101000a900473ffffffffffffffffffffffffffffffffffffffff1673ffffffffffffffffffffffffffffffffffffffff1663b93f9b0a60036040518263ffffffff167c010000000000000000000000000000000000000000000000000000000002815260040180828152602001915050602060405180830381600087803b15801561037757600080fd5b505af115801561038b573d6000803e3d6000fd5b505050506040513d60208110156103a157600080fd5b8101908080519060200190929190505050600760006101000a81548173ffffffffffffffffffffffffffffffffffffffff021916908373ffffffffffffffffffffffffffffffffffffffff160217905550600760009054906101000a900473ffffffffffffffffffffffffffffffffffffffff16600860006101000a81548173ffffffffffffffffffffffffffffffffffffffff021916908373ffffffffffffffffffffffffffffffffffffffff16021790555060019050919050565b3373ffffffffffffffffffffffffffffffffffffffff166000809054906101000a900473ffffffffffffffffffffffffffffffffffffffff1673ffffffffffffffffffffffffffffffffffffffff161415156104b957600080fd5b6000809054906101000a900473ffffffffffffffffffffffffffffffffffffffff1673ffffffffffffffffffffffffffffffffffffffff16ff5b6000806104fe6108aa565b60008060008060008a11151561051357600080fd5b600096506000955060018060008282540192505081905550600860009054906101000a900473ffffffffffffffffffffffffffffffffffffffff1673ffffffffffffffffffffffffffffffffffffffff166328bb41cf8b6040518263ffffffff167c01000000000000000000000000000000000000000000000000000000000281526004018082815260200191505061012060405180830381600087803b1580156105bd57600080fd5b505af11580156105d1573d6000803e3d6000fd5b505050506040513d6101208110156105e857600080fd5b81019080805190602001909291908051906020019092919080519060200190929190805190602001909291908051906020019092919080519060200190929190805190602001909291908051906020019092919080519060200190929190505050909192939450909192935090919250909150905050809450819550829650505050828a1490508015156106815760018a03995061089d565b600154856000018181525050818560200181815250508985604001818152505033856060019073ffffffffffffffffffffffffffffffffffffffff16908173ffffffffffffffffffffffffffffffffffffffff168152505088856080019060ff16908160ff1681525050878560a0018190525060018560c001901515908115158152505084600260008760000151815260200190815260200160002060008201518160000155602082015181600101556040820151816002015560608201518160030160006101000a81548173ffffffffffffffffffffffffffffffffffffffff021916908373ffffffffffffffffffffffffffffffffffffffff16021790555060808201518160030160146101000a81548160ff021916908360ff16021790555060a08201518160040190805190602001906107bf929190610903565b5060c08201518160050160006101000a81548160ff021916908315150217905550905050600360003373ffffffffffffffffffffffffffffffffffffffff1673ffffffffffffffffffffffffffffffffffffffff16815260200190815260200160002085600001519080600181540180825580915050906001820390600052602060002001600090919290919091505550600460008381526020019081526020016000208560000151908060018154018082558091505090600182039060005260206000200160009091929091909150555084600001519550600196505b5050505050935093915050565b60e060405190810160405280600081526020016000815260200160008152602001600073ffffffffffffffffffffffffffffffffffffffff168152602001600060ff168152602001606081526020016000151581525090565b828054600181600116156101000203166002900490600052602060002090601f016020900481019282601f1061094457805160ff1916838001178555610972565b82800160010185558215610972579182015b82811115610971578251825591602001919060010190610956565b5b50905061097f9190610983565b5090565b6109a591905b808211156109a1576000816000905550600101610989565b5090565b905600a165627a7a7230582000c4cbddc39b7f6fe226257ac32824385a62a18e94d6400a3bca5bd103909a6a0029",
  "source": "pragma solidity ^0.4.19;\n\nimport \"../core/OkeyDokey.sol\";\nimport \"./Reservations.sol\";\n\ncontract Reviews {\n\n\t/** Admin of this contract. */\n    address private admin;\n\n    /** Running count of review ids. Smallest valid review index is 1. */\n    uint256 reviewId = 0;\n\n    /** Map of review ids to each corresponding review. */\n    mapping(uint256 => Review) private reviews;\n\n    /** Map of address to its authored reviews. */\n    mapping(address => uint256[]) private reviewsBy;\n\n    /** Map of house id to review ids. */\n    mapping(uint256 => uint256[]) private reviewsFor;\n\n    /** Address of OkeyDokey contract. */\n    address private okeydokeyAddress;\n\n    /** Instance of OkeyDokey contract. */\n    OkeyDokey private okeydokey;\n\n    /** Address of Reservations contract. */\n    address private reservationsAddress;\n\n    /** Instance of Reservations contract. */\n    Reservations private reservations;\n\n\t/** Structure of a reservation. */\n    struct Review {\n        uint256 id;\n        uint256 houseId;\n        uint256 reservationId;\n        address reviewer;\n        uint8 rating; /* Rating on a scale of 0 to 10 */\n        bytes content;\n        bool valid;\n    }\n\n    /**\n     * Modifier for functions only smart contract owner(admin) can run.\n     */\n    modifier OkeyDokeyAdmin() {\n\n        /* Verify admin. */\n        require(admin == msg.sender);\n\n        _;\n    }\n\n    /**\n     * Modifier for functions only OkeyDokey smart contracts can run.\n     * \n     * @param addr The address to check.\n     */\n    modifier system(address addr) {\n\n        /* Verify admin. */\n        require(okeydokey.isAdmin(addr));\n\n        _;\n    }\n\n    /**\n     * Constrctor function.\n     *\n     * Assign contract owner (admin).\n     *\n     */\n    function Reviews() public {\n        admin = msg.sender;\n    }\n\n\t/**\n     * Initialize other OKDK contracts this contract depends on.\n     *\n     * @param _okeydokeyAddress The address of main application contract.\n     * @return success Whether the initialization was successful.\n     */\n    function initializeContracts(address _okeydokeyAddress) \n        OkeyDokeyAdmin public returns (bool success) {\n        require(_okeydokeyAddress != address(0));\n        require(_okeydokeyAddress != address(this));\n\n        okeydokeyAddress = _okeydokeyAddress;\n        okeydokey = OkeyDokey(okeydokeyAddress);\n\n        reservationsAddress = okeydokey.getAddress(3);\n        reservations = Reservations(reservationsAddress);\n\n        return true;\n    }\n\n    /**\n     * Submit a review.\n     *\n     * @param reservationId The id of reservation being reviewed.\n     * @param rating The rating of the review, on a scale of 0 to 10.\n     * @param content The content of the review.\n     * @return success Whether submission of the review was successful.\n     * @return newId Id of the created review.\n     */\n    function submitReview(uint256 reservationId, uint8 rating, bytes content) \n        public returns (bool success, uint256 newId) {\n\n        require(reservationId > 0);\n            \n        success = false;\n        newId = 0;\n\n        /* Smallest reviewId is 1 */\n        reviewId += 1;\n\n        Review memory review;\n\n        /* Fetch reservation information and check if msg,sender is authorized. */\n        bool succ;\n        uint256 resId;\n        uint256 houseId;\n\n        (succ, resId, houseId, , , , ,) = reservations.getReservationInfo(reservationId);\n        bool correctId = reservationId == resId;\n\n        if (!correctId) {\n            reservationId -= 1;\n            return;\n        }\n\n        /* Store reservation information. */\n        review.id = reviewId;\n        review.houseId = houseId;\n        review.reservationId = reservationId;\n        review.reviewer = msg.sender;\n        review.rating = rating;\n        review.content = content;\n\n \t\t/* Logistics */\n        review.valid = true;\n\n        /* Save newly created house to storage. */\n        reviews[review.id] = review;\n        reviewsBy[msg.sender].push(review.id);\n        reviewsFor[houseId].push(review.id);\n\n        /* Reward process. */\n\n        newId = review.id;\n        success = true;\n    }\n\n    /**\n     * Self destruct.\n     */\n    function kill() OkeyDokeyAdmin public { \n        selfdestruct(admin); \n    }\n\n}\n",
  "sourcePath": "/home/seongmin/okeydokey/contracts/rental/Reviews.sol",
  "compiler": {
    "name": "solc",
    "version": "0.4.24+commit.e67f0147.Emscripten.clang"
  },
  "schemaVersion": "2.0.0",
  "updatedAt": "2018-06-04T20:22:05.957Z"
}