{
  "contractName": "Whitelist",
  "abi": [
    {
      "inputs": [],
      "payable": false,
      "stateMutability": "nonpayable",
      "type": "constructor"
    },
    {
      "constant": false,
      "inputs": [
        {
          "name": "_address",
          "type": "address"
        },
        {
          "name": "_hasAccess",
          "type": "bool"
        }
      ],
      "name": "setSystemAccess",
      "outputs": [],
      "payable": false,
      "stateMutability": "nonpayable",
      "type": "function"
    },
    {
      "constant": true,
      "inputs": [
        {
          "name": "_address",
          "type": "address"
        }
      ],
      "name": "getSystemAccess",
      "outputs": [
        {
          "name": "",
          "type": "bool"
        }
      ],
      "payable": false,
      "stateMutability": "view",
      "type": "function"
    },
    {
      "constant": true,
      "inputs": [
        {
          "name": "_id",
          "type": "bytes32"
        }
      ],
      "name": "indexOf",
      "outputs": [
        {
          "name": "",
          "type": "uint256"
        }
      ],
      "payable": false,
      "stateMutability": "view",
      "type": "function"
    },
    {
      "constant": true,
      "inputs": [],
      "name": "whitelistSize",
      "outputs": [
        {
          "name": "",
          "type": "uint256"
        }
      ],
      "payable": false,
      "stateMutability": "view",
      "type": "function"
    },
    {
      "constant": true,
      "inputs": [
        {
          "name": "_index",
          "type": "uint256"
        }
      ],
      "name": "idInIndex",
      "outputs": [
        {
          "name": "",
          "type": "bytes32"
        },
        {
          "name": "",
          "type": "address[5]"
        }
      ],
      "payable": false,
      "stateMutability": "view",
      "type": "function"
    },
    {
      "constant": true,
      "inputs": [
        {
          "name": "_id",
          "type": "bytes32"
        }
      ],
      "name": "idInWhitelist",
      "outputs": [
        {
          "name": "",
          "type": "bool"
        }
      ],
      "payable": false,
      "stateMutability": "view",
      "type": "function"
    },
    {
      "constant": true,
      "inputs": [
        {
          "name": "_address",
          "type": "address"
        }
      ],
      "name": "addressInWhitelist",
      "outputs": [
        {
          "name": "",
          "type": "bool"
        }
      ],
      "payable": false,
      "stateMutability": "view",
      "type": "function"
    },
    {
      "constant": true,
      "inputs": [
        {
          "name": "_address",
          "type": "address"
        }
      ],
      "name": "getIdOf",
      "outputs": [
        {
          "name": "",
          "type": "bytes32"
        }
      ],
      "payable": false,
      "stateMutability": "view",
      "type": "function"
    },
    {
      "constant": false,
      "inputs": [
        {
          "name": "_id",
          "type": "bytes32"
        },
        {
          "name": "_address",
          "type": "address"
        },
        {
          "name": "_index",
          "type": "uint256"
        }
      ],
      "name": "whitelistAddress",
      "outputs": [],
      "payable": false,
      "stateMutability": "nonpayable",
      "type": "function"
    },
    {
      "constant": false,
      "inputs": [
        {
          "name": "_ids",
          "type": "bytes32[]"
        },
        {
          "name": "_addresses",
          "type": "address[]"
        },
        {
          "name": "_indices",
          "type": "uint256[]"
        }
      ],
      "name": "batchWhitelistAddress",
      "outputs": [],
      "payable": false,
      "stateMutability": "nonpayable",
      "type": "function"
    },
    {
      "constant": false,
      "inputs": [
        {
          "name": "_address",
          "type": "address"
        }
      ],
      "name": "unWhitelistAddress",
      "outputs": [],
      "payable": false,
      "stateMutability": "nonpayable",
      "type": "function"
    },
    {
      "constant": true,
      "inputs": [
        {
          "name": "_id",
          "type": "bytes32"
        }
      ],
      "name": "addressesOf",
      "outputs": [
        {
          "name": "",
          "type": "address[5]"
        }
      ],
      "payable": false,
      "stateMutability": "view",
      "type": "function"
    }
  ],
  "bytecode": "0x608060405234801561001057600080fd5b50336000806101000a81548173ffffffffffffffffffffffffffffffffffffffff021916908373ffffffffffffffffffffffffffffffffffffffff1602179055506001600460003373ffffffffffffffffffffffffffffffffffffffff1673ffffffffffffffffffffffffffffffffffffffff16815260200190815260200160002060006101000a81548160ff02191690831515021790555061125c806100b86000396000f3006080604052600436106100ba576000357c0100000000000000000000000000000000000000000000000000000000900463ffffffff16806301fa1739146100bf578063074939901461011a5780631a7d9e31146101635780631ddb2e09146101d05780631fd1b7a4146102bc5780633f5dc6e51461033457806345377d591461038f5780636f4ce56a146103ee578063cac9ffee14610433578063e53b29ed14610476578063f0a43714146104d1578063f6d0fa22146104fc575b600080fd5b3480156100cb57600080fd5b506101186004803603810190808035600019169060200190929190803573ffffffffffffffffffffffffffffffffffffffff1690602001909291908035906020019092919050505061054b565b005b34801561012657600080fd5b5061014960048036038101908080356000191690602001909291905050506105b3565b604051808215151515815260200191505060405180910390f35b34801561016f57600080fd5b5061019260048036038101908080356000191690602001909291905050506105c5565b6040518082600560200280838360005b838110156101bd5780820151818401526020810190506101a2565b5050505090500191505060405180910390f35b3480156101dc57600080fd5b506102ba6004803603810190808035906020019082018035906020019080806020026020016040519081016040528093929190818152602001838360200280828437820191505050505050919291929080359060200190820180359060200190808060200260200160405190810160405280939291908181526020018383602002808284378201915050505050509192919290803590602001908201803590602001908080602002602001604051908101604052809392919081815260200183836020028082843782019150505050505091929192905050506105dd565b005b3480156102c857600080fd5b506102e760048036038101908080359060200190929190505050610645565b60405180836000191660001916815260200182600560200280838360005b83811015610320578082015181840152602081019050610305565b505050509050019250505060405180910390f35b34801561034057600080fd5b50610375600480360381019080803573ffffffffffffffffffffffffffffffffffffffff169060200190929190505050610717565b604051808215151515815260200191505060405180910390f35b34801561039b57600080fd5b506103d0600480360381019080803573ffffffffffffffffffffffffffffffffffffffff169060200190929190505050610729565b60405180826000191660001916815260200191505060405180910390f35b3480156103fa57600080fd5b5061041d6004803603810190808035600019169060200190929190505050610786565b6040518082815260200191505060405180910390f35b34801561043f57600080fd5b50610474600480360381019080803573ffffffffffffffffffffffffffffffffffffffff1690602001909291905050506107c7565b005b34801561048257600080fd5b506104b7600480360381019080803573ffffffffffffffffffffffffffffffffffffffff16906020019092919050505061082b565b604051808215151515815260200191505060405180910390f35b3480156104dd57600080fd5b506104e6610881565b6040518082815260200191505060405180910390f35b34801561050857600080fd5b50610549600480360381019080803573ffffffffffffffffffffffffffffffffffffffff16906020019092919080351515906020019092919050505061088e565b005b600460003373ffffffffffffffffffffffffffffffffffffffff1673ffffffffffffffffffffffffffffffffffffffff16815260200190815260200160002060009054906101000a900460ff1615156105a357600080fd5b6105ae8383836109a1565b505050565b60006105be82610ce8565b9050919050565b6105cd61120d565b6105d682610dc1565b9050919050565b600460003373ffffffffffffffffffffffffffffffffffffffff1673ffffffffffffffffffffffffffffffffffffffff16815260200190815260200160002060009054906101000a900460ff16151561063557600080fd5b610640838383610e77565b505050565b600061064f61120d565b73__IterableMapping_______________________6375a3e8e86001856040518363ffffffff167c0100000000000000000000000000000000000000000000000000000000028152600401808381526020018281526020019250505060c06040518083038186803b1580156106c357600080fd5b505af41580156106d7573d6000803e3d6000fd5b505050506040513d601f19601f8201168201806040525060c08110156106fc57600080fd5b81019080805190602001909291909190505091509150915091565b600061072282610f16565b9050919050565b600061073482610f16565b151561073f57600080fd5b600560008373ffffffffffffffffffffffffffffffffffffffff1673ffffffffffffffffffffffffffffffffffffffff168152602001908152602001600020549050919050565b600061079182610ce8565b151561079c57600080fd5b6001806000016000846000191660001916815260200190815260200160002060000154039050919050565b600460003373ffffffffffffffffffffffffffffffffffffffff1673ffffffffffffffffffffffffffffffffffffffff16815260200190815260200160002060009054906101000a900460ff16151561081f57600080fd5b61082881611034565b50565b6000600460008373ffffffffffffffffffffffffffffffffffffffff1673ffffffffffffffffffffffffffffffffffffffff16815260200190815260200160002060009054906101000a900460ff169050919050565b6000600160020154905090565b600073ffffffffffffffffffffffffffffffffffffffff166000809054906101000a900473ffffffffffffffffffffffffffffffffffffffff1673ffffffffffffffffffffffffffffffffffffffff16141515156108eb57600080fd5b6000809054906101000a900473ffffffffffffffffffffffffffffffffffffffff1673ffffffffffffffffffffffffffffffffffffffff163373ffffffffffffffffffffffffffffffffffffffff1614151561094657600080fd5b80600460008473ffffffffffffffffffffffffffffffffffffffff1673ffffffffffffffffffffffffffffffffffffffff16815260200190815260200160002060006101000a81548160ff0219169083151502179055505050565b6000806109ac61120d565b60006001028660001916141515156109c357600080fd5b600073ffffffffffffffffffffffffffffffffffffffff168573ffffffffffffffffffffffffffffffffffffffff16141515156109ff57600080fd5b83600011158015610a105750600584105b1515610a1b57600080fd5b610a2485610f16565b151515610a3057600080fd5b610a3986610ce8565b15610b695760016000016000876000191660001916815260200190815260200160002060010192508284600581101515610a6f57fe5b0160009054906101000a900473ffffffffffffffffffffffffffffffffffffffff169150848385600581101515610aa257fe5b0160006101000a81548173ffffffffffffffffffffffffffffffffffffffff021916908373ffffffffffffffffffffffffffffffffffffffff160217905550600073ffffffffffffffffffffffffffffffffffffffff168273ffffffffffffffffffffffffffffffffffffffff16141515610b64576000600102600560008473ffffffffffffffffffffffffffffffffffffffff1673ffffffffffffffffffffffffffffffffffffffff16815260200190815260200160002081600019169055505b610c98565b848185600581101515610b7857fe5b602002019073ffffffffffffffffffffffffffffffffffffffff16908173ffffffffffffffffffffffffffffffffffffffff168152505073__IterableMapping_______________________63e9ef9e81600188846040518463ffffffff167c010000000000000000000000000000000000000000000000000000000002815260040180848152602001836000191660001916815260200182600560200280838360005b83811015610c37578082015181840152602081019050610c1c565b50505050905001935050505060206040518083038186803b158015610c5b57600080fd5b505af4158015610c6f573d6000803e3d6000fd5b505050506040513d6020811015610c8557600080fd5b8101908080519060200190929190505050505b85600560008773ffffffffffffffffffffffffffffffffffffffff1673ffffffffffffffffffffffffffffffffffffffff1681526020019081526020016000208160001916905550505050505050565b60008060010282600019161415610d025760009050610dbc565b73__IterableMapping_______________________63b47e169d6001846040518363ffffffff167c01000000000000000000000000000000000000000000000000000000000281526004018083815260200182600019166000191681526020019250505060206040518083038186803b158015610d7e57600080fd5b505af4158015610d92573d6000803e3d6000fd5b505050506040513d6020811015610da857600080fd5b810190808051906020019092919050505090505b919050565b610dc961120d565b610dd282610ce8565b1515610ddd57600080fd5b600160000160008360001916600019168152602001908152602001600020600101600580602002604051908101604052809291908260058015610e6b576020028201915b8160009054906101000a900473ffffffffffffffffffffffffffffffffffffffff1673ffffffffffffffffffffffffffffffffffffffff1681526020019060010190808311610e21575b50505050509050919050565b6000808451111515610e8857600080fd5b82518451148015610e9a575081518351145b1515610ea557600080fd5b600090505b8351811015610f1057610f038482815181101515610ec457fe5b906020019060200201518483815181101515610edc57fe5b906020019060200201518484815181101515610ef457fe5b906020019060200201516109a1565b8080600101915050610eaa565b50505050565b600080610f2161120d565b60008073ffffffffffffffffffffffffffffffffffffffff168573ffffffffffffffffffffffffffffffffffffffff1614151515610f5e57600080fd5b600560008673ffffffffffffffffffffffffffffffffffffffff1673ffffffffffffffffffffffffffffffffffffffff1681526020019081526020016000205492506000600102836000191614151561102757610fba83610dc1565b9150600090505b6005811015611026578473ffffffffffffffffffffffffffffffffffffffff168282600581101515610fef57fe5b602002015173ffffffffffffffffffffffffffffffffffffffff161415611019576001935061102c565b8080600101915050610fc1565b5b600093505b505050919050565b60008060008073ffffffffffffffffffffffffffffffffffffffff168473ffffffffffffffffffffffffffffffffffffffff161415151561107457600080fd5b61107d84610f16565b151561108857600080fd5b600560008573ffffffffffffffffffffffffffffffffffffffff1673ffffffffffffffffffffffffffffffffffffffff1681526020019081526020016000205492506001600001600084600019166000191681526020019081526020016000206001019150600090505b60058110156111bb578373ffffffffffffffffffffffffffffffffffffffff16828260058110151561112057fe5b0160009054906101000a900473ffffffffffffffffffffffffffffffffffffffff1673ffffffffffffffffffffffffffffffffffffffff1614156111ae576000828260058110151561116e57fe5b0160006101000a81548173ffffffffffffffffffffffffffffffffffffffff021916908373ffffffffffffffffffffffffffffffffffffffff1602179055505b80806001019150506110f2565b6000600102600560008673ffffffffffffffffffffffffffffffffffffffff1673ffffffffffffffffffffffffffffffffffffffff168152602001908152602001600020816000191690555050505050565b60a0604051908101604052806005906020820280388339808201915050905050905600a165627a7a723058201e60a323f1c77e8a52dde7cd72f8721903ca127a5618fa741ae7c33d72cc5d100029",
  "source": "pragma solidity ^0.4.19;\n\nimport \"../libs/IterableMapping.sol\";\n\n/**\n * @title Whitelist\n * @dev Store whitelisted user ids and addresses.\n */\ncontract Whitelist {\n    using IterableMapping for IterableMapping.itmap;\n\n    /* Creator of this ICO contract. */\n    address owner;\n\n    /* Whitelist with all users that can contribute to this ico. */\n    IterableMapping.itmap private whitelist;\n\n    /* Add list of contracts that can access this contract. */\n    mapping (address => bool) private systemAccess;\n\n    /* Address to its user id. */\n    mapping (address => bytes32) private idOf;\n\n    /**\n     * @dev Reverts if not in owner status.    \n     */\n    modifier onlyOwner() {\n        require(owner != address(0));\n        require(msg.sender == owner);\n        _;\n    }\n\n    /**\n     * @dev Reverts if not in admin status.  \n     */\n    modifier system() {\n        require(systemAccess[msg.sender]);\n        _;\n    }\n    \n    /**\n     * @dev Constructor, takes all necessary arguments.\n     */\n    function Whitelist() public {\n        owner = msg.sender;\n        systemAccess[msg.sender] = true;\n    }\n\n    /**\n     * @dev Sets access level of an address. \n     * @param _address Address to set permissions to access whitelist\n     * @param _hasAccess Whether the address has access\n     */\n    function setSystemAccess(address _address, bool _hasAccess) onlyOwner public {\n      systemAccess[_address] = _hasAccess;\n    }\n\n    /**\n     * @dev Get access level of an address. \n     * @return Whether address has access\n     */\n    function getSystemAccess(address _address) public view returns (bool) {\n      return systemAccess[_address];\n    }\n\n    /**\n     * @dev Deliver tokens to an individual user.\n     * @param _id Id of the user\n     * @return Index of id within whitelist\n     */\n    function indexOf(bytes32 _id) public view returns (uint) {\n      require(_idInWhitelist(_id));\n\n      return whitelist.data[_id].keyIndex - 1;\n    }\n\n    /**\n     * @dev Getter for whitelist size.\n     * @return Size of whitelist\n     */\n    function whitelistSize() public view returns (uint) {\n      return whitelist.size;\n    }\n\n    /**\n     * @dev Getter for user id in ith index.\n     * @param _index Index of user in  whitelist\n     * @return bytes32 user id\n     * @return Addresses associated with user id\n     */\n    function idInIndex(uint _index) public view \n      returns (bytes32, address[5]) {\n\n      return IterableMapping.iterate_get(whitelist, _index);\n    }\n\n    /**\n     * @dev Checks whether id was registered to whitelist. \n     * @param _id Id of user\n     * @return Whether the id exists in whitelist\n     */\n    function idInWhitelist(bytes32 _id) public view \n      returns (bool) {\n\n      return _idInWhitelist(_id);\n    }\n\n    /**\n     * @dev Checks whether address was registered to whitelist. \n     * @param _address Address of user\n     * @return Whether the address exists in whitelist\n     */\n    function addressInWhitelist(address _address) public view \n      returns (bool) {\n\n      return _addressInWhitelist(_address);\n    }\n\n    /**\n     * @dev Get id of address.\n     * @param _address Address to query id for\n     * @return Id corresponding to address\n     */\n    function getIdOf(address _address) \n      public view returns (bytes32) {\n\n      require(_addressInWhitelist(_address));\n\n      return idOf[_address];\n    }\n\n    /**\n     * @dev Add user to whitelist\n     * @param _id Id of user to whitelist\n     * @param _address Address of user to whitelist\n     * @param _index Index, from 0 to 4, indicating which address to modify\n     */\n    function whitelistAddress(bytes32 _id, address _address, uint _index) \n      public system {\n\n      _whitelistAddress(_id, _address, _index);\n    }\n\n    /**\n     * @dev Add user to whitelist\n     * @param _ids Id of user to whitelist\n     * @param _addresses Address of user to whitelist\n     * @param _indices Index, from 0 to 4, indicating which address to modify.\n     */\n    function batchWhitelistAddress(bytes32[] _ids, address[] _addresses, uint[] _indices) \n      public system {\n\n      _batchWhitelistAddress(_ids, _addresses, _indices);\n    }\n\n    /**\n     * @dev Remove address from whitelist\n     * @param _address Address of user to unwhitelist\n     */\n    function unWhitelistAddress(address _address) \n      public system {\n\n      _unWhitelistAddress(_address);\n    }\n\n    /**\n     * @dev Add user to whitelist\n     * @param _id User id to whitelist\n     * @param _address Address of user to whitelist\n     * @param _index Index, from 0 to 4, indicating which address to modify.\n     */\n    function _whitelistAddress(bytes32 _id, address _address, uint _index) \n      internal {\n\n      require(_id != 0x0);\n      require(_address != address(0));\n      require(0 <= _index && _index < 5);\n      require(!_addressInWhitelist(_address));\n\n      // Fetch old entry.\n      if (_idInWhitelist(_id)) {\n\n        address[5] storage addresses = whitelist.data[_id].value;\n\n        address prevAddr = addresses[_index];\n\n        // Update address list.\n        addresses[_index] = _address;\n\n        // Remove previous address.\n        if (prevAddr != address(0)) {\n          idOf[prevAddr] = 0x0;\n        }\n        \n      // Create new entry.\n      } else {\n        address[5] memory newAddresses;\n        // newAddresses[0] = __addressid;\n        newAddresses[_index] = _address;\n        IterableMapping.insert(whitelist, _id, newAddresses);\n      }\n\n      // Map address to its id.\n      idOf[_address] = _id;\n    }\n\n    /**\n     * @dev Add user to whitelist\n     * @param _ids User id to whitelist\n     * @param _addresses Address of user to whitelist\n     * @param _indices Index, from 0 to 4, indicating which address to modify.\n     */\n    function _batchWhitelistAddress(bytes32[] _ids, address[] _addresses, uint[] _indices) \n      internal {\n\n      require(_ids.length > 0);\n      require(_ids.length == _addresses.length && _addresses.length == _indices.length);\n\n      for (uint i=0; i < _ids.length; i++) {\n        _whitelistAddress(_ids[i], _addresses[i], _indices[i]);\n      }\n    }\n\n    /**\n     * @dev Remove address from whitelist\n     * @param _address Address of user to unwhitelist\n     */\n    function _unWhitelistAddress(address _address) \n      internal {\n\n      require(_address != address(0));\n      require(_addressInWhitelist(_address));\n\n      bytes32 id = idOf[_address];\n\n      address[5] storage addresses = whitelist.data[id].value;\n\n      for (uint i=0; i < addresses.length; i++) {\n        if (addresses[i] == _address) {\n          addresses[i] = address(0);\n        }\n      }\n\n      // Map address to its id.\n      idOf[_address] = 0x0;\n    }\n\n    /**\n     * @dev Get addresses listed under id\n     * @param _id Id to fetch addresses for\n     * @return Addresses (max of 5).\n     */\n    function addressesOf(bytes32 _id) \n      public view returns (address[5]) {\n\n      return _addressesOf(_id);\n    }\n\n    /**\n     * @dev Check if an address is in whitelist\n     * @param _address Address to check for\n     * @return True if in whitelist\n     */\n    function _addressInWhitelist(address _address) \n      internal view returns (bool) {\n\n      require(_address != address(0));\n\n      bytes32 id = idOf[_address]; \n\n      if (id != 0x0) {\n\n        address[5] memory addresses = _addressesOf(id);\n\n        for (uint i=0; i < addresses.length; i ++) {\n          if (addresses[i] == _address) {\n            return true;\n          }\n        }\n      } \n\n      return false;\n    }\n\n    /**\n     * @dev Check if a user id is in whitelist\n     * @param _id Id to check for.\n     * @return True if in whitelist\n     */\n    function _idInWhitelist(bytes32 _id) \n      internal view returns (bool) {\n\n      if (_id == 0x0) {\n        return false;\n      }\n\n      return IterableMapping.contains(whitelist, _id);\n    }\n\n    /**\n     * @dev Get addresses listed under id\n     * @param _id Id to fetch addresses for\n     * @return Addresses (max of 5).\n     */\n    function _addressesOf(bytes32 _id) \n      internal view returns (address[5]) {\n\n      require(_idInWhitelist(_id));\n\n      return whitelist.data[_id].value;\n    }\n\n}",
  "sourcePath": "/home/seongmin/okeydokey/contracts/ico/Whitelist.sol",
  "compiler": {
    "name": "solc",
    "version": "0.4.24+commit.e67f0147.Emscripten.clang"
  },
  "schemaVersion": "2.0.0",
  "updatedAt": "2018-06-05T01:08:04.354Z"
}